:020000042000DA
:1000000018481949086006C881F30888104717483E
:100010000068002801D01648F3E71649164A002068
:1000200000E001C19142FCD1144988471449884736
:100030001449884700BEFDE7F0540020F05400202A
:10004000FC550020000004200000042000000420D3
:100050000010042000100420001004200000000004
:10006000704700000001002008ED00E0000000D013
:1000700000000000FC550020EC6300202924002033
:100080004D0E00202124002006005250ABB36053D7
:100090009451002006005250861C0302A4510020F7
:1000A000060052505422A29DAC510020F2EB887100
:1000B000D0540020E85400203800002090A31AE714
:1000C0000000000000000000000000000000000030
:1000D0000000000000000000000000000000000020
:1000E0000000000000000000000000000000000010
:1000F0000000000000000000000000000000000000
:10010000002004200F000020CB010020CD010020A2
:10011000C9010020C9010020C9010020C901002037
:10012000C9010020C9010020C9010020CF01002021
:10013000C9010020C9010020D1010020D301002005
:10014000C1010020C1010020C1010020C101002027
:10015000C1010020C1010020C1010020C101002017
:10016000C1010020C1010020C1010020C101002007
:10017000C1010020C1010020C1010020C1010020F7
:10018000C1010020C1010020C1010020C1010020E7
:10019000C1010020C1010020C1010020C1010020D7
:1001A000C1010020C1010020C1010020C1010020C7
:1001B000C1010020C1010020C1010020C1010020B7
:1001C000EFF30580103800BE00BE00BE00BE00BECA
:1001D00000BE00BE03000068EFF3108C72B6026828
:1001E000002AFCD0BFF35F8F04229A56002A0BDB53
:1001F000002900D00A6000201B68BFF35F8F002237
:100200001A608CF310887047D02212061268012001
:100210001A71F1E7F0B5C646160000B504001F00DC
:100220000268EFF3108172B61368002BFCD0BFF3A5
:100230005F8F0423E3562268002B2BDBBFF35F8F15
:100240000020106081F31088D02212061278002559
:1002500052B290469A420ED1002080BCB846F0BD02
:10026000BFF35F8F156081F310883000390001F013
:100270004FFC0028F0D12268EFF3108172B61368AA
:10028000002BFCD0BFF35F8F237922687F2BE7D947
:10029000434602E0D0231B061B682371BFF35F8F28
:1002A0000023136081F310880120D6E7F0B5C6461D
:1002B00000B50F00040001F0BDFCFA220E0005009D
:1002C000002338000021920002F010F8401971411B
:1002D00006000F1E02DA0126164F7642D0231B06B7
:1002E0001B68002598460AE0BFF35F8F156081F315
:1002F00010883000390001F00BFC002818D122686A
:10030000EFF3108172B61368002BFCD0BFF35F8F40
:10031000237922687F2BE7D943462371BFF35F8F90
:100320000023136081F31088012080BCB846F0BD23
:100330000020FAE7FFFFFF7F0268EFF3108172B63B
:100340001368002BFCD0BFF35F8FFF23037103689A
:10035000BFF35F8F00221A6081F3108840BF70479F
:100360000022154B10B59A60DA601A615A619A61E1
:10037000DA611A625A629A62DA621A635A639A639B
:10038000DA631A645A649A64DA641A655A659A657B
:10039000DA651A665A669A66DA661A675A679A675B
:1003A000DA67F03292000021044802F00BF8044BA7
:1003B000044A1A6010BDC04600001050D45F0020EF
:1003C0009C63002080011050F0B54746CE4680B5B2
:1003D0001C4B00249F6D012685B0002F1BD01A4BAB
:1003E00098461A4B994604E00134E4B27600202C7A
:1003F00011D03E42F8D043469E65012365086D004A
:10040000A343ED186D014D44280000F013FC0028B3
:1004100006D1B743E8D105B0C0BCB946B046F0BD7F
:10042000EB8AE0210393002301A8AA78C900018088
:1004300001210271437100F01DFC280000F098FBBF
:10044000E7E7C0460000115000301150945F0020D3
:100450009823C64AF0B5D55880232E009B0210245D
:1004600085B01E401D4274D0C14BC24C9A6AC24B2B
:1004700000261A603B23E35C022B00D14BE17B2377
:10048000E35C022B00D1EFE0BB23E35C022B00D145
:10049000F6E0FB23E35C022B00D1FDE03C23FF33BD
:1004A000E35C022B00D129E17C23FF33E35C022BC8
:1004B00000D10AE1BC23FF33E35C022B00D13BE116
:1004C000FC23FF33E35C022B00D1F1E0AB4BE35C98
:1004D000022B00D170E1AA4BE35C022B00D101E1B9
:1004E000A84BE35C022B00D171E1A74BE35C022B2C
:1004F00000D12EE1A54BE35C022B00D19CE1A44B83
:10050000E35C022B00D16DE1A24BE35C022B00D136
:100510009DE1A14BE35C022B00D17BE1002E08D1D1
:100520009E4B1B78002B04D180219D4A9033890279
:10053000D150C02269468D4B92009B6C80265B0592
:100540008A805B0D012101A8029300F093FB954C7A
:10055000B602EB0600D57BE080235B021D422FD064
:100560000224844F1E43BB7E002B14D000F0D6FC27
:10057000012800D970E0C02200213800920100F06B
:10058000FDFA380000F0F4FA00F0C8FC012802D9A6
:10059000834B5C661C660123FB702037012C20D145
:1005A000C0236A46DB0093807F4A02AB03CA03C3C1
:1005B000012101A800F05EFB8022794B92021A65AE
:1005C00080235B011D420ED18023DB011D4221D11E
:1005D00080231B021D422DD1AE4200D0BEE105B0EA
:1005E000F0BD0124BFE700241E43604B1C60FFF7F1
:1005F000B7FE80236A465B0093801472012101A834
:1006000000F038FB8022664B12031A658023DB0161
:100610001D42DDD01E4380236A46DB00938001210A
:1006200001A800F027FB10225D4B1A6580231B02F6
:100630001D42D1D01E43A0236A46DB0093800121D6
:1006400001A800F017FB8022554B12011A65C3E781
:10065000FFF7BAFE26007FE7544B444A1C66536EF0
:100660002340A342FBD186E77833E75C002F00D11B
:100670000AE70233E25C002A00D00DE13E0003E706
:10068000B833E75C002F00D103E70233E25C002AB5
:1006900000D0F9E03E00FCE6F833E75C002F00D123
:1006A000FCE60233E25C002A00D041E13E00F5E6C0
:1006B000F933FF33E75C002F00D107E70233E25C38
:1006C000002A00D02BE13E0000E77933FF33E75CDE
:1006D000002F00D1EEE60233E25C002A00D015E1E3
:1006E0003E00E7E6324BE75C002F00D1F8E602332C
:1006F000E25C002A00D001E13E00F1E63933FF332D
:10070000E75C002F00D1CFE60233E25C002A00D084
:10071000EBE03E00C8E63833E65C002E00D1AEE6E2
:100720000233E25C002A00D1A9E62000002220303A
:10073000E25400F04BFAA2E6B933FF33E75C002F36
:1007400000D1BDE60233E25C002A00D0C4E03E00E6
:10075000B6E6184BE75C002F00D1CBE60233E25C33
:10076000002A00D0B0E03E00C4E6C04600001150B0
:1007700000400540945F00208C5F00203B02000099
:100780007B020000BB020000FB0200003B030000F4
:100790007B030000BB030000FB030000E2630020BA
:1007A00000301150100002000000105000201150C5
:1007B0007A020000FA0200006B4BE75C002F00D1C8
:1007C00089E60233E25C002A76D13E0083E6674B7D
:1007D000E75C002F00D188E60233E25C002A63D197
:1007E0003E0082E6624BE75C002F00D18CE60233CC
:1007F000E25C002A00D0A3E05E4BE35C022B30D128
:100800005D4BE35C002B27D15C4BE35C022B00D0FB
:100810008FE63E005A4BE35C002B00D17EE6FF23BF
:100820009B00E25C002A00D183E60022E2541C3BDC
:10083000E01800F0CBF97CE6524BE75C002F00D1CA
:100840005DE60233E25C002A16D13E0057E64A4BD1
:10085000E35C002B00D15CE6EF239B00E25C002A06
:1008600075D1464BE35C022B00D062E6444BE35C5F
:10087000002B00D15DE6D2E70022E2541C3BE018D9
:1008800000F0A4F93E003AE620000022A030E25435
:100890003E0000F09BF9FCE5200000226030E254AD
:1008A0003E0000F093F9EFE50022E2541C3BE01813
:1008B00000F08CF93E0018E60022E2541C3BE018E0
:1008C00000F084F93E0006E60022E2541C3BE018EA
:1008D00000F07CF93E000DE620000022A130FF3040
:1008E000E2543E0000F072F9EAE5200000222130D7
:1008F000FF30E2543E0000F069F9D5E50022E254F1
:100900001C3BE01800F062F93E00E9E520000022FF
:100910006130FF30E2543E0000F058F9CAE5200093
:100920000022E130FF30E2543E0000F04FF9CDE507
:1009300020000022E030E2543E0000F047F9ADE52F
:100940000022E2541C3BE01800F040F954E700227A
:10095000E2541C3BE01800F039F982E731000A4804
:10096000694000F0E1FAC0463A020000BA02000015
:100970007A030000BB030000BA030000FB03000081
:10098000FA0300003A030000F8510020F0B58C464D
:10099000838A018B020083B00E1C994200D91E1C71
:1009A000B6B29B1B9CB2D37880211800451EA8418B
:1009B000C90031434003084301214B40D3705378B1
:1009C0009482002B32D11169002E2AD06346D4685C
:1009D0009B01E418731E0193062B32D923000B43AD
:1009E0009B072ED1631A013B022B2AD90023B7089B
:1009F000BF00CD58E5500433BB42FAD19E420ED021
:100A0000019DE418EF1ACD18C95C21700199994233
:100A100005D06B786370012F01D0AB78A37011699A
:100A2000948A802389191B0211611843002C02D17A
:100A30008023DB0118436346002B00D0000403B081
:100A4000F0BD0023CD5CE55401339E42FAD1E6E7C8
:100A50008368F0B51A68002900D0120C437892051B
:100A6000950D002B09D1C38AEB18C382038BAB42CF
:100A700001D9002383822800F0BD0469002D28D00D
:100A8000C36889016F1EBC465E18062F27D9013145
:100A90005B18E31A022B22D9230033439B071ED194
:100AA0000023120E9200F158E15004339A42FAD119
:100AB00095420DD063469F1AA318B45CB1181C7000
:100AC000944505D04A785A70012F01D08A789A70DF
:100AD0000469C38A6419EB18C3820461C6E7002263
:100AE000B35CA35401329542FAD10469F1E7C046E0
:100AF00010B50400836800211B68FFF7A9FF636835
:100B00001B685B0002D5238B834200D010BD0121FE
:100B10002000FFF79DFFF9E7084B1A6C00239207AE
:100B200003D48278D209012A01D018007047C37E0D
:100B3000023B5A425341DBB2F7E7C0460000115076
:100B400010B5FFF7E9FF00280AD0064B064A9B6A5A
:100B5000064912685B189B1A0020C6229A4240413F
:100B600010BDC046004005408C5F0020E0FCFFFF48
:100B700000238376436103617047C04610B58368E4
:100B8000002901D01C682140002A12D08024E400F2
:100B9000114322420DD01A6822420CD1084A0A4061
:100BA0001A60084A126C920703D40C23033BFDD24F
:100BB0008368196010BD8178034800F0B5F9C0461C
:100BC000FFFBFFFF000011500C520020436870B57E
:100BD0000021802504001E68FFF7D8FE124B6D012E
:100BE0001A6C0543A37892070ED55B060ED00F4B07
:100BF0001E4080239B053343626800211360200060
:100C00002A00FFF7BBFF70BDDB09F0D0A38A002BE1
:100C1000EDD001212000FFF7B9FEA023044ADB0537
:100C2000324005431343E7E700001150FFFFFFAFD9
:100C3000FFFFFFDF70B5857E0400002D14D0FFF7A5
:100C400057FFA38A002B01D1280070BD2000FFF7B9
:100C500077FF002803D0012300252377F4E7200045
:100C6000FFF7B4FF0025EFE78178014800F05CF959
:100C70002C520020F0B54746CE4680B5437805009B
:100C80000F0085B0062B07D8694A9B00D3589F46B2
:100C9000684A137801331370674B1C686269EFF37D
:100CA000108172B61368002BFCD0BFF35F8FA16177
:100CB0002000290003F07CFF6269A369BFF35F8F06
:100CC0000021116083F31088002804D105B0C0BC56
:100CD000B946B046F0BD3A006978287802F050FA7B
:100CE000F4E70121554B1A788A431A701A780131BA
:100CF0008A431A7000225A701A7802318A431A7095
:100D0000CAE74F494F4B88464F491E001A780024C6
:100D10000023894612E04B461B6861015B18002BDB
:100D200006D0DB69002B03D06968287898473278B1
:100D30000134E4B2511C2300A14217DBA242EAD8DD
:100D40009B1A5B014344ECE73C4B1A78D207BDD5B4
:100D500004211A780A431A709EE7384B1A78D20792
:100D6000B4D504211A788A431A7095E7334A137868
:100D7000904611005B0728D51378042201AC9343F9
:100D80000B7020000021083201F01CFB2B7823702F
:100D900005236370284B1B6818005A69EFF3108114
:100DA00072B61368002BFCD0BFF35F8F0600816121
:100DB000210003F0FDFE7269B369BFF35F8F00216C
:100DC000116083F3108800282CD14346DB78DB07C1
:100DD00000D47BE72B7801AC2370032363706B682E
:100DE0006360154B1D686A69EFF3108172B6136872
:100DF000002BFCD0BFF35F8FA9612800210003F016
:100E0000D7FE6A69AB69BFF35F8F0021116083F37E
:100E10001088002800D159E73A006178207802F064
:100E2000AFF953E73A006178207802F0A9F9CCE7EE
:100E300074540020E3630020905B0020385B0020A6
:100E400090540020E1630020505A002070B5234CDC
:100E50008AB001F0E1FB2249200003F0F3FF0023F8
:100E600080220593F82352025B0202920393C0236F
:100E7000050001261B03102202A906A8049301F015
:100E8000A7FAAB1CEA1D1203DB01134306A91022CB
:100E900002A8079301F09CFA124B06211920059332
:100EA00000F024F80123192200212000009604F00C
:100EB00045F8FA23DB032A000293002102AB20004D
:100EC00004F094F88022236852023343236063685D
:100ED0001342FCD1044B2361FEE7C04600002050C2
:100EE000F85000202003000440420F0010B54024B9
:100EF000074A83009A181268C0005440C02222405A
:100F0000044C1B191A60044BC018416010BDC04648
:100F100004C0014004D00140004001408023DB05B3
:100F20001868000F7047C0460FB400B5084883B07A
:100F300001F0C0FB049B002B07D005A9180001910C
:100F400001F054FA034801F0B5FB012001F066FA04
:100F50001051002020510020EFF3108072B6034A98
:100F60001368002BFCD0BFF35F8F70472C0100D0BB
:100F7000BFF35F8F0022024B1A6080F31088704726
:100F80002C0100D070B58C461600EFF3108472B6B9
:100F90000F490B68002BFCD0BFF35F8F6346DB0863
:100FA000C5180722C05C63461A40012393401A000B
:100FB0000240034207D118432870BFF35F8F0A60D5
:100FC00084F3108870BD61463000FFF7ADFFC04666
:100FD0002C0100D0F8B5CE4647468C4680B51C00A3
:100FE000EFF3108872B61C490B68002BFCD0BFF3DE
:100FF0005F8FA24221D80723994602E00132944232
:1010000018D34946012611408E40D308C718C35C47
:101010001E42F3D1100033433B70BFF35F8F0022B9
:101020000D4B1A6088F3108800280EDBC0BCB9464F
:10103000B046F8BD01204042EFE7BFF35F8F0023C9
:101040000B6088F31088012040426346002BEDD0EE
:101050000898FFF769FFC0462C0100D0044A1078B9
:10106000431CDBB2172B00D9102313707047C04606
:10107000F054002000B5054B83B001000093182206
:101080001F230348FFF7A6FF03B000BD2451002033
:10109000305F00200021044B044ABFF35F8F02C37E
:1010A0009342FAD17047C046000100D0800100D0C1
:1010B000084B094A1360094A1360094A1360094A38
:1010C0001360094A1360094A1360094A1360094A08
:1010D000136070478080808000E400E004E400E05A
:1010E00008E400E00CE400E010E400E014E400E0B8
:1010F00018E400E01CE400E01F2318401E3B83407E
:10110000002905D0C021044A49005350136070479C
:10111000802201498B50FAE700E100E00122824081
:10112000034B1B6813405A1E9341D8B27047C04608
:1011300000E100E001238340014A13607047C0468C
:1011400000E200E0054B10309B688000C358044A61
:1011500000209B1A2F229A424041704700ED00E088
:10116000F454002070B50D00EFF3108672B60F4AEC
:101170001368002BFCD0BFF35F8F0D4B10309B68C2
:1011800084001B590B4A934203D09D4201D000F0CA
:101190004FFF074B9B681D51BFF35F8FBFF35F8FFE
:1011A0000022024B1A6086F3108870BD240100D023
:1011B00000ED00E0C1010020F0B5DE4657464E4686
:1011C0004546E0B5824683B08B461700EFF31088A2
:1011D00072B6604A1368002BFCD0BFF35F8F002506
:1011E0005D4B5D579946002D00DA9AE04A466B0048
:1011F0005A4C5E19B6000193A31900939B791370A2
:10120000574B9A68534610339B00D15899460B1B95
:101210002F2B32D9534B994200D098E0019B0236D4
:10122000ED18514BAD006353504BA619043B9B1B6B
:101230004F4A1B055B0D651913436B804D4B012114
:10124000AB80FF23AB715B46AB60009BEF710B4340
:1012500019004A46424B9B689950BFF35F8FBFF31A
:101260005F8F00223B4B1A6088F3108803B0F0BCFC
:10127000BB46B246A946A046F0BD01200A00824303
:10128000D379B446BB422DD83B4BB51C1900130093
:101290001B1B5B415943090D8C46334B6519A35306
:1012A000324B0099043B5B1B1B05314D5B0D2B43FF
:1012B00004364B80A619131F9B1B1B055B0D1D439A
:1012C00063468B715B468B602C4B8D80CF711360B6
:1012D0000143BEE75800C01880002018C679BE42FE
:1012E00025D902000623D356002BF3DA9A46131DA4
:1012F0009C4623486346009E9571043EF61A3605C7
:101300001B4B760D1E43019B96805A195346920043
:10131000A418A3715B46194AA0802260E771A360FC
:1013200097E700F085FE00254B465D575EE7664671
:101330009A46131D9C469088043640050015A61950
:101340006044801B00050A4E400D3043D2E700F098
:101350006FFE63E7240100D0E4630020F454002012
:1013600000ED00E0C101002000A1FFFF2455002096
:1013700000E0FFFF01BDFFFFAAAA0000014880476F
:1013800001BD00000123034370B59C46EFF30581C6
:10139000EFF3108572B6214A1368002BFCD0BFF31F
:1013A0005F8F1F4B04001F4AE41A64416243120D11
:1013B0001D4C8900A66852B2765866451CD006219D
:1013C000595691421CD012215956914222D01E21C9
:1013D0005956914220D02A2159560324914210D0C7
:1013E000124B19781A708171BFF35F8F00220B4B7B
:1013F0001A6085F3108870BDA3680D4C5C50EFE750
:1014000000246100091989005B18FF2199710949BD
:101410009980E5E70124F4E70224F2E7240100D0F3
:10142000F4540020AAAA000000ED00E0E4630020CC
:10143000C101002001BDFFFF00B5074B83B00100D3
:101440000093002205230548FFF7C4FD002801DBB7
:101450001F23181A03B000BD40510020E86300208C
:10146000024BC918890001607047C0464000003433
:1014700070B5114C114DAC420FD2FF262368002BE2
:101480000CD0FFF7EBFD01002000FFF7E9FFA6807D
:10149000BFF35F8F0834AC42F0D370BDFFF7DEFDC1
:1014A00001002000FFF7DCFF2671BFF35F8F0834D7
:1014B000AC42E3D3F1E7C046B8550020C055002048
:1014C00010B50400FFF7CAFD01002000FFF7C8FFB8
:1014D000FF232371BFF35F8F10BDC04610B504001A
:1014E0000120FFF7C7FD034BC01880002060BFF349
:1014F0005F8F10BD40000034034BC91889000160A4
:10150000BFF35F8F7047C046400000340A4B196834
:10151000EFF3108072B60A68002AFCD0BFF35F8F29
:101520001B68BFF35F8F00221A6080F3108840BFF2
:10153000002000217047C046C4630020F0B5DE469D
:1015400057464E464546E0B585B0EFF30583032286
:101550001A40B34B91005F58012393409B4602927F
:101560005A468846AF4B1A60AF4B03935B46AF4871
:1015700043630823FE5E002E37DABB881BB2002BC4
:1015800000DBA4E0BB79002B00D0E5E00823F95E86
:10159000002920DB4B007A695B18DB00D3189D68BB
:1015A000DC686B1C00D104E1A04801004144826A60
:1015B0000B69AE1A9B1A9E4215D30123026A029848
:1015C00083401A420FD0994800F02CFB8C4202DC79
:1015D000CCD18542CAD940BF05B0F0BCBB46B246AB
:1015E000A946A046F0BD0D61EDE77A69730091460A
:1015F0009B19DB0099444B469C68DD6800F012FBA8
:101600008D42BADC00D1F6E0002D00DADBE04A467C
:101610004B4652691B699246039A934200D1CCE033
:101620004A460821785E5288000451461043984784
:10163000009001910099019A0B00134300D1C2E080
:1016400013000A00002B00DBD9E020002900801ADB
:1016500099414B469860D96000229B5E002B00DACE
:101660008BE75D007C69EA18D200A21800949468A8
:10167000D268A2468A4200DD7FE702D1844200D9C7
:101680007BE70824A4463B81BC44009C00972F00C4
:101690006546B4463E0006E05E00F218D200A2188D
:1016A0009768D268BA468A4207DC00D1B4E0F318E2
:1016B000DB00E518E35E002BEEDA66464A46009F43
:1016C00013802E80BB881BB2002B00DA5AE73A69E0
:1016D000EFF3108172B61368002BFCD0BFF35F8F5D
:1016E0000123BE885B42BB8036B23B69BFF35F8F8C
:1016F00000221A6081F31088002E00DA42E73B00D6
:1017000008333A0099467D6973009B190824115FDC
:10171000DB004846EB18002913DB9C680093A446C5
:10172000DC6806E0A34240D00023F95E38000029BF
:1017300006DB4F007F18FF00EF19FB68A342F1DDC5
:10174000009B068000201E5E1980002EDCDA170048
:10175000BB79002B00D119E70023BB710823F95E88
:101760004B1C00D137E73D000835AC467C6903E0EF
:1017700084464B1C00D109E74B005B18DB00E018E6
:101780000A00E15E43881BB2002BF1DA01256D42AD
:10179000EE178560C66008257B5F9342E9D06346FB
:1017A00019803B8903803A81E3E7BB686345BBD975
:1017B000C6E7631C00D0F7E605E7534650461B69B1
:1017C0009847002823D14B461B883A693B81EFF3A9
:1017D000108372B611680029FCD0BFF35F8F4946B1
:1017E0007A880A803A697E80BFF35F8F002111609A
:1017F00083F31088C1E6844200D805E7BDE60B48B4
:1018000000F010FA009B019CC018614121E753468B
:101810000CCB009201930DE7824500D847E74CE7D7
:10182000A86300203C7005403D15002000400540A5
:1018300070B52D4C2569002D04D00A212B48FFF7E7
:101840000FFE70BD2A4E0321294800F0E1F9E66041
:10185000FFF704FC274B0322C018D02322701B067D
:101860001B6801216370244B8000A3600F2320615B
:101870000220638063694942A18019800231198680
:1018800047311D83585218315A5275325C3999527A
:1018900018320131995218320131995218320131FE
:1018A0009952083518329D52023118329952183225
:1018B000013199521832013199521832013199523D
:1018C0001832013199521832013199520B4B0C499F
:1018D000DC6001303562FFF745FC01210320FFF792
:1018E0000BFC084B1D60A8E73C550020C46300209A
:1018F0000040054040000034FFFF1000A8630020B6
:101900003D15002038600540004870473C550020D8
:10191000F8B51F0008AB1B7804001600002B07D198
:1019200000F088F932003B00121A8B41002B51DB8A
:101930002269EFF3108C72B61368002BFCD0BFF352
:101940005F8F0223E15E256900293ADB4B00606965
:101950005B18DB00C218C35A6380BFF35F8F00239C
:101960002B608CF31088069B9660D7601361079BF1
:101970005361538801335B045B0C181C002B1ED091
:1019800083B25080080418432569EFF3108672B6BD
:101990002B68002BFCD0BFF35F8FA3881380A1803E
:1019A0002369BFF35F8F00221A6086F310882378C3
:1019B00001329A400849E3685B181A60F8BD0120BB
:1019C000DEE7BFF35F8F00232B608CF310880120CC
:1019D0004042F3E70020F1E73C20000070B582B000
:1019E0000092019301000269EFF3108472B613684C
:1019F000002BFCD0BFF35F8F0223C85E0D69002867
:101A00003FDB4A69430016001B18DB00D218F35A6B
:101A10004B80BFF35F8F00232B6084F31088069BFD
:101A20001361079B5361009B019C9360D4605388B2
:101A300001335B045B0C1D1C002B20D0ACB20304F3
:101A4000558023430D69EFF3108C72B62C68002C7F
:101A5000FCD0BFF35F8F8C88148088800A69BFF345
:101A60005F8F002010608CF310880A78013090405E
:101A7000CA68084952181060180002B070BD0125EC
:101A8000DCE7BFF35F8F00232B6084F31088013BFA
:101A9000F2E7C0463C20000010B543890A14934287
:101AA0001ADD53009B184269DB00D3180469EFF379
:101AB000108C72B62268002AFCD0BFF35F8F5A8860
:101AC000090494B2090C8A4208D00369BFF35F8FFE
:101AD00000221A608CF31088002010BD094A2243AE
:101AE0005A80012302698371BFF35F8F0021116067
:101AF0008CF31088027804499340C2680120521880
:101B00001360EAE70080FFFF3C2000004078704748
:101B1000F0B5CE46474680B504000D0085B0EFF322
:101B200005868946002E10D0364900204B6AAB420C
:101B300006D38A6A5B1B591E8B41A242404118435F
:101B400005B0C0BCB946B046F0BD2F4FFB683A782F
:101B500098461800039200F065F8039A131D424658
:101B60009B009B5822001B1A9C462B00121A8B418B
:101B70009E4210DC0DD020BF224A0020536A4B4504
:101B8000DED3926A5B1B591E8B41A242404118432F
:101B9000D6E79445EFD900F04DF822002B00121A39
:101BA0008B41002B1BDB00230193184B2200009379
:101BB00038002B00FFF712FF002810DD114B5A6A86
:101BC0004A451CD39B6AA34217D301003800FFF794
:101BD00063FF0C4A0020536A4B45B1D3D1E7094A51
:101BE0000020536A4B45ABD30020926A5B1BA24294
:101BF00040415A1E93411843A2E74A45E5D120BF10
:101C0000E3E7C046004005403C5500200D1500208C
:101C100010B5024A0248FFF7B5F910BD5C5100202B
:101C2000345F00200300416A0A00986A596A8A42B8
:101C3000FAD17047034B596A0A00986A596A91426F
:101C4000FAD1704700400540F8B5DE464E4645469D
:101C50005746E0B505008B4618000A99914600F0FA
:101C6000B7FA0A9B6C001E026419304BA400E418FA
:101C7000636880469E4200D966602F1FFBB29A4679
:101C8000012B2FD9C0238022294FAD009B01795908
:101C90001201E3181A6000291BD14B4622685B0130
:101CA0005340E022134080225201A2181360534691
:101CB000012B2FD9802380229B01E31812011A6087
:101CC000434666607B51F0BCBB46B246A946A0467F
:101CD000F8BD786900F07CFA013043001B18033B23
:101CE000FDD2DAE75B46012BCCD1C02303229B0156
:101CF000E3181A60023AA3681A42FCD04A462368E5
:101D000052015A40E023134080225201A218084F8A
:101D10001360AD0058460323216841400B40136017
:101D200001228240A3681A42FCD0C3E70080004031
:101D3000385F0020F0B5D6464F46464644009846E8
:101D40002418324BA400E41863688A469146C0B553
:101D5000FF2B02D880235B006360061FF6B2012EC2
:101D60002FD9C02380222A4F85009B017959120167
:101D7000E3181A6000291BD14B4622685B015340CF
:101D8000E022134080225201A2181360012E30D9A4
:101D9000802380229B01E31812011A6080235B00DC
:101DA000636043467B51E0BCBA46B146A846F0BDED
:101DB000786900F00DFA013043001B18033BFDD297
:101DC000DAE75346012BCCD1C02303229B01E31851
:101DD0001A60023AA3681A42FCD04A4623685201AC
:101DE0005A40E023134080225201A218084F13608A
:101DF000850050460323216841400B4013600122B7
:101E00008240A3681A42FCD0C2E7C046008000406E
:101E1000385F0020014B8000C0587047385F0020B9
:101E2000F0B5C646040000B52348160098460D00DC
:101E300000F0CEF90100300000F0CAF94346069ADE
:101E40001B04120313439C4623680600002B22DB6D
:101E50001A4B1B48E218531E9A4180235242120B20
:101E60009B011203D218174B1A60174B1A6013000C
:101E700001688B43FBD12122144B2560E318A66037
:101E80001A602268002AFCDA6246E26008221A60C0
:101E900080BCB846F0BD3F2322681340AB42D7D187
:101EA000A3681B051B0D8342D2D1EE22E368D20248
:101EB00013406345CCD1EBE7001BB7000040FDBFEA
:101EC00008C0004000E0004000F000400430000086
:101ED00010B580241C4BE4051C6000281AD0012397
:101EE0001A4C18431A4BDC611A4C44401C6259626C
:101EF00098628021144BC90519601748174908607A
:101F0000E021C9041960002A07D18022144B12066F
:101F10001A6010BD0E4BD861EBE753019B1A9B0072
:101F20009A18802312015B049A4209D213000D49CA
:101F30000B60074B5A608022094BD2051A60E8E714
:101F4000094B1A00F3E7C04600B00540D3C007B004
:101F5000008005402D3FF84FFCFF010008200140A4
:101F600000A0054098630020FFFFFF008023024A85
:101F70009B000B43D362704700800540002310B5DF
:101F80000100988A1B8B984710BDC046162310B5D8
:101F9000010018885B88984710BDC046F8B54746D1
:101FA000CE4680B50F1E18D0142399460433040082
:101FB0000025012698464B461888434621681B8811
:101FC000984701C4431E984101350640AF42F2D103
:101FD0003000C0BCB946B046F8BD0126F8E7C0469F
:101FE000002370B504000D00988A05491B8B9847A3
:101FF00003000020002C01DB0130A040290098479D
:1020000055420000AA23064A1B0113608D235B0082
:10201000D3600449044B19605368002BFCDA704705
:102020000040024000B0FA00006002407047C04625
:1020300010B50148FEF778FF8051002070B5074DBC
:10204000074EB54209D20024013E761BB608013680
:1020500008CD01349847B442FAD170BDC055002074
:10206000F8550020054B064A06491A60064A074BF8
:102070001A6010000B689843FBD1704700E00040E5
:10208000BFCDFBFE08C00040FE7F3C0000F00040DA
:10209000044BDB6C002B03D18022034BD2021A606D
:1020A0007047C046000011504C201150044A054BA7
:1020B0001A60054A1368DB018033FBD17047C046C4
:1020C000FFFFFF0100F0004008C000404022034B2A
:1020D0009A675A671A67DA667047C04600F001408F
:1020E00010B5FEF7D7FF10BD002310B5294C82B004
:1020F000A367FFF787FF0122274B1A60636C012B50
:10210000FCD10322254B1A60224A936B012BFCD190
:10211000013300930121224A22480433FFF780FE55
:10212000052301210093204A2048FFF779FE002271
:10213000022104201E4BFFF7FDFD00220121052096
:102140001C4BFFF7F7FD0022002107201A4BFFF779
:10215000F1FD002200210820174BFFF7EBFD802343
:10216000DB000093002200210920134BFFF76CFDD8
:102170000022104B00210620FFF7DCFD0420FFF7B2
:1021800049FE0E4900F024F801000020FFF7EEFEA2
:1021900002B010BD008000403CB0004030B00040B4
:1021A000002F685900800240008C864700C0024022
:1021B000001BB70040597307006CDC0240420F005F
:1021C00001480421014B1847605500209D1F002045
:1021D000114A936F9B0813D210665166002905D0EF
:1021E000FFE7FFE7FFE7516F106F704704B5002866
:1021F00001D00020C04302F04DFF002104BDC046C5
:10220000F0B5146E556E576F166FFFF7E5FF146645
:10221000556657671667F0BD000000D0132370B5F0
:102220001D78012D19D014DD1F48FFF7AFFE060001
:102230001E48FFF7ABFE1E4C80223100200000F04C
:10224000C7F8022D2DD01B48FFF798FE1A4B1860D7
:1022500070BD1A4B164CA364F5E7184B144C236061
:102260006360A360E36023616361A361E361236250
:102270006362A362E36223636363A363E363236430
:102280006364A364E36423656365A365E365236610
:102290006366A366E36623676367A367E367A36474
:1022A000D1E7064BA364CEE7534400005346000039
:1022B000505800204C330000C0630020C122002091
:1022C00007B5604601880A0A0230DF2AFAD1C9B28E
:1022D000820804D3028840880004104300E00068AC
:1022E000014A5050039007BD5058002051434343CA
:1022F000C9188C46110C83B24B4310B4040C6143D3
:1023000092B280B2504362431C041B0C001910BCF3
:1023100059411304120CC018514161447047000028
:10232000132310B51C781348FFF730FE012C0BD097
:1023300004DD01008022104800F04AF80F48FFF742
:102340001DFE0F4B186010BD0B4C010054222000E5
:1023500000F03EF80B4B6365A365E3652366636697
:10236000A366E36623676367A367E3672362E361AA
:10237000E4E7C04653460000505900204C330000AB
:10238000C06300208923002007B5604601880A0A3F
:102390000230DF2AFAD1C9B2820804D30288408809
:1023A0000004104300E00068014A5050039007BD4C
:1023B0005059002001480421014B18477055002056
:1023C0009D1F0020014B1B6818470000705500201E
:1023D000014B5B68184700007055002010B50028BD
:1023E00000D110BD00F01CF9FBE7C04610B5094A4A
:1023F0000300146884B0002C08D001220091064824
:10240000524203A9A047012004B010BD00F052F9C8
:102410000020F9E794630020DD23002000BEFDE7E3
:1024200010B5FFF7FBFFC04670B5FFF707FE074D7D
:10243000074EB54209D20024013E761BB60801368C
:1024400008CD01349847B442FAD170BDF855002048
:10245000FC550020030010B5080011001B689847C8
:1024600010BDC046F8B5437D07000D001600002BD7
:1024700038D0002A1ADD0B780A2B18D00020012E44
:1024800009D0012421006B5C01340A2B1AD0B4421C
:10249000F8D1864203DD311A3B6828189847AD19F8
:1024A000013D2B780D3B5A4253413B75F8BD037DEE
:1024B000002BE3D102210E483B689847012EEED055
:1024C0000120DEE76B1E5B5C0D2BE0D0884203DA57
:1024D000091A3B6828189847054802213B68984725
:1024E0002000D4E70368110028009847DEE7C046C3
:1024F0006C520020F0B54646D6464F46C0B582B075
:1025000090461C0006000D00FFF794FB00232F4AA5
:1025100012184B41002B02DA01222D4B52422D4959
:1025200008008A46FDF776FE81466B1C03D1300019
:1025300002F0B2FD0500002C27D0274F274B1C6866
:10254000002C18D04346002B21D1254B984602E0A1
:102550002469002C0FD02368002BF9D043461B6858
:10256000002B01D09C42F3D120002A003100B84753
:102570002469002CEFD14B46002B23D1280002B058
:10258000E0BCBA46B146A846F0BD164FD6E7144B9C
:10259000984602E02469002CEDD02368002BF9D086
:1025A00043461B68002B01D0A342F3D12A0031001F
:1025B0002000B8476B460A222000DA71D91D093A7B
:1025C000B847E7E75046FDF7B7FED7E740420F00B0
:1025D000FFFFFF7FB855002065240020885F0020A2
:1025E000905F0020552400200A4A1368002B05D173
:1025F0000CE01A001B691032002B07D08342F8D17F
:10260000002902D118691060196170470029FCD0B7
:102610001060FAE7885F002010B500F07BFA10BD6B
:10262000F0B5CE46474680B583B06B460600DD1D4B
:102630002870FFF7FFFA0023194A12184B41002BAC
:1026400002DA0122174B5242174908008946FDF76A
:10265000E1FD164B80461C68002C14D0144F02E09C
:102660002469002C0FD02368002BF9D03B68002B85
:1026700001D09C42F4D1200001222900FFF7F2FE94
:102680002469002CEFD14346002B05D1300003B064
:10269000C0BCB946B046F0BD4846FDF74DFEF5E773
:1026A00040420F00FFFFFF7FB8550020885F0020E9
:1026B000905F002070B5040002F0EEFC01230100E1
:1026C000050001222000FFF715FF084B1C68002CB5
:1026D00006D06368002B05D098472469002CF8D1F8
:1026E000280070BD2469002CF3D1F9E7885F002031
:1026F0007047C0460022014B1A707047E563002006
:102700004B790020FF2B0BD18B79002B08D1CB7993
:10271000012B05D1082A03D9024B8A7809301A7097
:102720007047C046E56300200120704710B50129BD
:1027300013D112495379107909781B020343002001
:10274000994200D010BD5378012B08D0022BF9D14B
:10275000642200210020FFF7BBFB0120F2E7D378C1
:1027600091781B021943480ADB0501D4012040423D
:102770007F238A05D20F1940FFF732FCE563002062
:1027800000487047385300209446012310B50129B2
:102790000AD152780023012A06D162461179527972
:1027A00012020A43072A01D0180010BDA633614661
:1027B000024A01F047FA0300F6E7C04690520020B3
:1027C0000123037000487047705200204B780A784C
:1027D0001B0213438A7810B512041A43CB781B06E8
:1027E00013439622D200934200D010BD0022012054
:1027F00011004042FFF7F4FB024B1860024B1960D6
:102800007047C046285F00202C5F002010B5024BA7
:102810001878FEF78FFC10BDE6630020154B70B5ED
:102820001A68002A22D0EFF3108172B610680028CF
:10283000FCD0BFF35F8F00200F4A596010701B68F7
:10284000BFF35F8F186081F31088002400250B4EC2
:102850003078FEF763FC002804D10024002529000D
:10286000200070BD3078FEF765FCF8E7FA240025FB
:10287000A400ECE7A0630020E7630020E6630020EB
:1028800070B5050000200E0001F0F4FA002834D0E5
:10289000002001F005FB00282FD0FFF7CBF9002323
:1028A000174A12184B41002B16DB164C2000FDF77F
:1028B000B1FC002821D0002001F0DCFA00280FD163
:1028C00001200021404200F0F3FC03256D4220006E
:1028D000FDF732FD280070BD01220B4B5242E4E7A8
:1028E000002001F0DDFA0028EAD0290032000020A3
:1028F00001F0E0FA051EEAD1E7E703256D42E9E7BA
:1029000040420F00C8630020FFFFFF7F10B5FFF7B4
:1029100091F900230D4A12184B41002B02DA0122D3
:102920000B4B52420B48FDF775FC00280CD00120E0
:102930000021404200F0BCFC002001F0FFFA00281A
:10294000F5D10448FDF7F8FC10BDC04640420F0029
:10295000FFFFFF7FC8630020F8B5CE46474680B52D
:1029600005000C00FFF766F90023344A12184B41AA
:10297000002B02DA0122324B5242324908008846CB
:10298000FDF748FC002803D1C0BCB946B046F8BDED
:10299000002001F06FFA002848D00026002C41DD0D
:1029A000294B994613E0A919002001F003FB070009
:1029B00001200021404200F07BFC002001F0BEFA23
:1029C000FFF738F9204BF61903C3B4422ADD002083
:1029D00001F010FBA71B0200B84200DD3A00002AFC
:1029E000E1D101200021404200F062FC002001F012
:1029F000A5FA002001F03EFA002813D0002001F0D3
:102A0000F9FA0028E1D1FFF715F94B460F000CCB7E
:102A1000002184460D4812184B419F4202D8D4D160
:102A20009445D2D94046FDF787FCADE70020002150
:102A3000054B03C34046FDF77FFCA5E740420F006E
:102A4000FFFFFF7FC86300204858002020A1070037
:102A500030B5002185B02848FDF7BCFB00281CD10B
:102A6000264B1A68002A16D0EFF3108172B6106850
:102A70000028FCD0BFF35F8F012421485960027801
:102A80001B68D2B20470BFF35F8F0020186081F31F
:102A90001088002A17D005B030BD01200021404227
:102AA00000F006FC002001F0FBF905001248FDF7DC
:102AB00043FC002DEFD0134B1B68002BEBD0124AC8
:102AC00010689847E7E7FEF71FFF0400FFF7B2F82A
:102AD000FA220023920012184B41002B02DA012245
:102AE0000A4B524201210291002101910849200024
:102AF0000091FEF70DFFCEE7C8630020A063002021
:102B0000E7630020285F00202C5F0020FFFFFF7F8D
:102B10001D280020D02310B51B0684B01C68FEF7CA
:102B2000F3FEFEF7F3FFA04202D0002004B010BD78
:102B3000284B002100201B7801F044FD2648036843
:102B4000002B44D00120FEF777FCFF23234C2449BF
:102B500020701840FEF706FB20780121FEF7CCFA22
:102B60000520FEF7EFFA002824D1082200211D4895
:102B7000FFF728FCFEF7C8FE0400FFF75BF8FA2217
:102B80000023920012184B41002B02DA0122164B4F
:102B9000524201210291002101911449200000912B
:102BA000FEF7B6FE0028C0DB11480121FFF71CFD2F
:102BB0000120BBE70120FEF75DFA01000948FEF79E
:102BC0009BFC002205200B49FEF7F6FAECE7FEF726
:102BD00077FCB7E7E4540020C8630020E6630020D8
:102BE000512A0020A0630020FFFFFF7F1D28002046
:102BF000805500200D28002000487047D453002045
:102C0000004870478053002010B504001648037830
:102C1000002B20D0002C06D1144B15484380063BD6
:102C2000FF3B038010BD052C1CD8124BA400E458B8
:102C30000F480123811C013C04E001330A8002316A
:102C4000142B0CD0E25C002AF7D1C022DBB25B006F
:102C500092001343E5E7112100F018F8DAE7CA23E0
:102C60009B00DEE70020DDE7D063002009040000C0
:102C7000605F00206853002010B50822EE21024852
:102C8000FFF7A0FB10BDC046B863002030B5012996
:102C900000D1BBE0744B01391A78121114003034A2
:102CA000092A00DDB5E00470012900D1DAE00F2225
:102CB0001C78224014003034092A00D9ACE044705A
:102CC000022900D1CEE05A78944612111400303413
:102CD000092A00DDA3E08470032900D1C2E0644624
:102CE0000F22224014003034092A00D99AE0C4701F
:102CF000042900D1B6E09A789446121114003034B9
:102D0000092A00DD91E00471052900D1AAE064469A
:102D10000F22224014003034092A00D988E044717F
:102D2000062900D19EE03025AC46DC78221194447F
:102D3000092A00DD7FE062468271072900D191E017
:102D40000F22224014003034092A00D977E0C471E0
:102D5000082900D186E03025AC461C792211944424
:102D6000092A00DD6EE062460272092900D179E08D
:102D70000F22224014003034092A67D844720A29ED
:102D800000D16FE03025AC465C7922119444092AC9
:102D90005FDC624682720B2964D00F22224014004D
:102DA0003034092A59D8C4720C295BD03025AC467E
:102DB0009C7922119444092A02DD0735AC469444DB
:102DC000624602730D294DD00F2222401400303488
:102DD000092A01D93732140044730E2942D0DA7916
:102DE00013111C003034092B01DD37331C008473B0
:102DF0000F2937D00F2313401A003732092B01D87F
:102E000030331A00C27310292CD010300023037005
:102E100030BD3732140046E7373214004FE73732FF
:102E2000140058E73732140061E7373214006AE7BC
:102E30003732140073E70735AC4694447BE73732EA
:102E4000140084E70735AC4694448CE7373214000D
:102E500094E70735AC4694449BE737321400C472BC
:102E60000C29A3D14018D1E7B8630020F8B500F0D1
:102E700047F90C23194DFF22AB6705201849FEF7CF
:102E80009BF9184C402200212000FFF79BFA4027B5
:102E9000002301262121144A66702783A260136053
:102EA00063545F31618445396354104A104963604B
:102EB000E2602787A1620B606362E262FDF750FA6D
:102EC00080239B052E64EB6490230A4A0120EA507C
:102ED0008022094B5202DA64F8BDC046000011504E
:102EE00051040020945F0020840010500001105015
:102EF0008000105010D001000020115010B50121A9
:102F00000520FEF7F9F810BD10B500220021024897
:102F100000F016F910BDC046B45F0020044B1970D4
:102F2000002904D080219023024A8902D1507047A1
:102F3000E2630020002011500B785B0600D0704740
:102F40004B78052BFBD18A78014B1A60F7E7C04616
:102F500000001150F8B5CE464746C87880B58007C6
:102F6000830F1800012B61D08B780A799C464B792E
:102F70007F211B0213435B055E0D63461940DC098C
:102F80004B001A191F0063462F4D5201AA18937067
:102F900001236340537000231683D370D076B1466B
:102FA000CA00012C31D0294E92198E01B446AC448E
:102FB0006646B2601360002931D0254BC900C9189C
:102FC00071604B463F339B09022836D09B01214854
:102FD00039190268490169180E00CA601E49D318E0
:102FE00003608B422BD83B195B01ED18EB7E1B492C
:102FF0009B064A4013438022120613436A681360FB
:103000000120C0BCB946B046F8BD154E92198E01DC
:10301000B446AC446646B2621360002908D100236E
:1030200064012C1963600F4BE360E9E70020E8E7D7
:103030000A4BC900C9187162C3E7DB01C7E7FEF795
:10304000F7FFF268CFE7C046945F0020840010507D
:10305000040010509C630020FF0F1050000010501F
:10306000800010500001105010B5FDF779F910BD27
:103070007F2010B508404000C90940181100044ADB
:10308000400180181A0000F05BF8012010BDC04616
:10309000945F00207F23180000B5084083B00B42E6
:1030A00004D14B424B41084A013393668022C9093F
:1030B0004000064B401840010021C0181201FDF7E6
:1030C0005DFD03B000BDC04600201150945F00209C
:1030D0007F22130010B50B400A4200D110BDC90970
:1030E0005B005B1804485B01C01800230022034901
:1030F000C370FDF743FDF1E7945F0020FFF7FFFF8A
:1031000080220A4B520410B51A60094B09491A6013
:1031100010000B689843FBD1802200215201064821
:10312000FFF750F90922054B5A6710BD00E0004037
:1031300000F0004008C00040000010500000115096
:10314000002310B5C38201338282837601610400BB
:10315000FDF7E2FC002804D080219023074A890271
:10316000D1502000FDF7ECFC002802D0012323778A
:1031700010BD2000FDF72AFDFAE7C04600201150DF
:103180007047C0467047C046002070470020704717
:103190007047C0467047C0467047C0467047C0463B
:1031A000024B5878431E9841C0B27047385B0020EC
:1031B000024B18784007C00F7047C046385B0020AC
:1031C000F0B5D6464F464646C0B52E4B814698468A
:1031D0001B788A46FF2B4ED100293ED00021542275
:1031E0002948FFF7EFF80022284C294B20001A70DD
:1031F000FEF766F9274B1C60274C2000143CFEF7B5
:103200006DF9200001F0DAFD244B254D1C60254BA3
:10321000002B04D02800FFF7D3FA234B18600024BA
:1032200000232A78214F204E0FE0336862019B185B
:10323000002B12D05B68002B0FD098472A780134FE
:10324000E4B2511C2300A14209DBA242EDD89B1A33
:103250005B01DB195B68002BEFD100200CE04246DC
:103260004B46514648461370FFF700FE0028F4D045
:103270004846FFF743FE0120E0BCBA46B146A846E7
:10328000F0BDC046B4550020385B0020305B002004
:10329000E36300208C5B0020AC550020905B002095
:1032A000E1630020C1270020505A002090540020E4
:1032B000F0B5DE4657464E464546E0B5C64B91B0A2
:1032C00002931B78FF2B00D13BE1C44BC44E1F007F
:1032D000C44B0DAC0193C44B009335686A69EFF39E
:1032E000108172B61368002BFCD0BFF35F8FA96109
:1032F0002800210001F098FB6A69AB69BFF35F8F7A
:103300000021116083F31088002800D119E163784F
:10331000082BE2D89B00FB589F466368002BDCD04B
:10332000A0689847D9E77F222179AE4D0A40530023
:10333000EB189846C809804440460123303005798F
:103340009D430571057903339D430571002A00D122
:10335000FEE04346A54A1B7D1278934200D3EDE080
:10336000A34A5B011568ED18002D00D1E9E0A368C0
:1033700062792078AD69A847AFE79E4B1A78002A9A
:1033800000D1DEE01A78013A1A701B78002BA4D124
:103390000122944D01212B78042013432B703423F8
:1033A000EA5C8A43EA54EA5C8243EA540133EA5C09
:1033B0008A43EA54EA5C8243EA54237800209B461D
:1033C00000F09AFC602223791A40602A00D1EEE0D6
:1033D000402A00D1F4E0DB06DB0E012B00D111E125
:1033E000022B00D1C6E0002B00D0E0E0202A00D163
:1033F0001CE2002A00D0DAE06379092B00D9D6E07C
:103400007D4A9B00D3589F46764D2B78DB0700D42E
:1034100063E7FFF7C3FE60E7019BDB78DB0700D4BF
:103420005BE76068FFF7AEFE57E76E4D2B78DB0772
:1034300000D452E728780007C00FFFF7ADFE4CE735
:103440002378694999468B46684B694998468A466C
:1034500039001A7847460023B04600254E46894673
:1034600010E053461B686A019B18002B00D175E0E1
:10347000DB68300098473A780135EDB2511C2B00DB
:103480008D4243DC9542ECD39B1A5B015B44EFE732
:10349000237857499946554B8A4698463100BB4692
:1034A0004E461A7800250023474689460FE05346CA
:1034B0001B686A019B18002B54D0DB6830009847CA
:1034C0003A780135EDB2511C2B008D4206DC954255
:1034D000EDD39B1A009A5B01D318EEE7019D5422AD
:1034E00000212800FEF76EFF1022FF214348FEF75F
:1034F00069FF28002022FF2114304E465F46FEF768
:1035000061FF00F0EFFBFFF745FEE6E6354D542284
:1035100000212800FEF756FF1022FF21281DFEF78C
:1035200051FF28002022FF21143046464F46FEF767
:1035300049FF00F0D7FB2379AB70CEE6501C9842D0
:1035400013DA11B0F0BCBB46B246A946A046F0BDA6
:10355000A3686279207800F0E3FBBEE646464F465A
:10356000204DE6E74E465F46CBE71F4D9B1A5B01B9
:103570005D19FCE67023217A0B4218D1C8098246F6
:103580000F330B405B0098461848EB1853441B7DE3
:1035900000789946834268D215485B0100688146ED
:1035A0009944002A00D163E14B46002B6AD1207870
:1035B0000021FFF76FFD80212078FFF76BFD8CE67F
:1035C0000F4800F099FB012158460EAAFFF7DCF8DE
:1035D000002800D081E6EAE7B4550020E853002037
:1035E000905B0020385B002090540020E1630020B5
:1035F000505A0020E36300200C5400203C5B002064
:1036000089270020237A22890F2BD0D8FF2313404B
:10361000CF4AEB181B791578AB423ED3691C99420F
:10362000C5DB5D1BCB4B6D01ED18686900F064FBD9
:10363000012158466B690EAA9847002800D04CE635
:103640006022150023791D401A42B0D163790A3BEC
:10365000012BACD800F050FB63790A2B00D199E123
:1036600058460EA900F0D8FA37E6431C4B4500DA5D
:10367000F9E04B461B1A5B019946B6488144002A83
:1036800000D1F5E04B46586900F036FB4B4601216E
:1036900058465B690EAA98479AE7AF4A5B011568DE
:1036A000ED18002DC1D182E7A37999466B78994531
:1036B000D6D06B78002B00D035E14B466B70002BD9
:1036C00000D12DE148460138C0B2FFF799FA002831
:1036D00000D17EE143780793022B00D079E10122EB
:1036E000C179B1468B11491113400A4030211201B2
:1036F0005B0113432A78A8468A4313432B7009239E
:103700009A4682445646BA46C37882781B021343CF
:10371000C31805938E4B04938E4B08938E4B0993DD
:103720008E4B0A93059BB34200D855E17378012272
:103730000B2B03D13378F278F6187378042B00D072
:1037400044E1059B00279B1B9BB20693049B0B92B5
:103750001D78002303931BE0099A7B011568ED187F
:10376000002D00D132E1310058462B69069A984766
:103770008446082803D9069A824200D313E1049BA9
:1037800001371D78FFB26B1C03979F4200DD1DE1DE
:10379000BD42E1D8039B5D1B089B6D015D19E2E70B
:1037A0006B780CAA02321370584601230EA900F060
:1037B00049FA92E5E088030AC0B20F2B00D9F6E679
:1037C00067499A008A5897460EA800F09BFA584617
:1037D000A179FFF799FB02222B7813432B707CE52C
:1037E000E388012B00D0E2E608222B785846934369
:1037F0000EA92B7000F010FA6FE5022029780CABAF
:103800009A1C8B068908DB0F01400B431380584636
:1038100002230EA900F016FA5FE5E388012B00D021
:10382000C5E608222B7813432B7019E7237A2289E7
:103830000F2B00D9BBE6FF231340EB181D79444B37
:103840001B789D4228D2444B6D011B685D19002DE9
:1038500000D1ACE6686900F04FFA012158466B6967
:103860000EAA9847B4E6002A00D0A0E600239946A5
:1038700062790220130003928343012B15D0002AA2
:1038800000D094E62B004344534430331B790CAAF8
:103890009B07DB0F0232B9E75A1CAA4200DA86E620
:1038A000ED1A2C4B6D01ED18D4E7E388002B12D1F3
:1038B000029B1878039B012B23D0FFF7EBFB4346B9
:1038C0000221EB18534430331A790A4301211A714B
:1038D0001A790A431A714B46002B00D1FDE458694E
:1038E00000F00AFA4B4601215B690EAA5846984738
:1038F000002000F001FA3523EB5CDB0700D5ECE497
:10390000AEE6FFF7E5FB43460221EB1853443033A4
:103910001A798A431A711A7903998A431A71DAE774
:10392000FFF738FC9CE600215846FFF7F7FA5846A7
:10393000FFF79AFBAB7807490393054B0491984630
:103940001A7800230449AA4605911D001BE0C046D1
:10395000E163002090540020505A00204C5B00206E
:1039600034540020059B6A011B689B18002B4CD027
:10397000DB685846984743461A780135EDB2511C2A
:103980002B008D422DDC9542ECD39B1A049A5B01EF
:10399000D318EDE70CAB9A1C584601230EA91570FD
:1039A00000F050F999E40B9A012A4ED0002A3CD03D
:1039B0000023B07804E00133DBB20F71934234D2BC
:1039C000C118C9B241440D79FF2DF4D04E46454689
:1039D000574600236B70EAE54E465746FFF7D8FB83
:1039E0003EE65546542200212800FEF7EBFC10224B
:1039F000FF21281DFEF7E6FC28002022FF211430BD
:103A0000FEF7E0FC039BAB7057E65546FAE7FEF77E
:103A1000B7FE021E00D1CAE5D37891781B020B4392
:103A200058460EA900F00EF9D2E565463B002A0083
:103A300031000A9800F06AFE049B039A1B787619FD
:103A40000133934200DB6DE6C0E7174B29699942C9
:103A5000AED1079AACE7FFF797FB021E00D1A6E5AF
:103A6000584613780EA900F0EDF8B1E52189FFF76B
:103A7000CBF8021EF4D19AE5022B0FD0FFF786FB9C
:103A8000021EC9D193E5FFF7B7F8021E00D18EE5FB
:103A9000122358460EA900F0D5F899E5FFF7B0F8C3
:103AA000021EB9D183E5C046F1400020F0B54F4673
:103AB0004646D646C0B50C0016001F0082B0002A4C
:103AC0003AD0702398461D4B002599461C4B9A46C8
:103AD0001AE04B461B78200001935346997800F07A
:103AE000DBFD00281CD021000198FFF733FA0028E5
:103AF00016D0A378DA09012A19D00A9A0135137071
:103B0000B54219DA2378E4186378052B08D1E378F5
:103B10009B079B0FBB4203D14246A3781A42D8D0E1
:103B2000002002B0E0BCBA46B146A846F0BD0B9AF0
:103B300001351370B542E5DB0120F2E7B4550020F2
:103B4000385B0020702270B58B780C001A4201D0CF
:103B5000002070BD064B20001D78064B997800F0C0
:103B60009BFD0028F4D021002800FFF7F3F9F0E7CF
:103B7000B4550020385B00207F20074B10B51A6831
:103B80000840CB0934334000C018044B1100C01862
:103B900000F03EFD10BDC0468C5B0020385B00206D
:103BA0007F20074B10B51A680840CB09343340001A
:103BB000C018044B1100C01800F052FD10BDC046E3
:103BC0008C5B0020385B002070B57F24C8098446D8
:103BD0000C400F4864000419644430342079C00755
:103BE00001D5002070BD0B4801250078844620795E
:103BF000284320716046FFF73BFA0028F2D10122EA
:103C00002379934323712379033293432371E8E7A4
:103C1000385B0020B455002070B5094C060008221E
:103C200020000D00FEF7D4FB00238021E360A36099
:103C30002B783000994300220023FFF7C5FF70BDA9
:103C4000185B0020F0B5C646244C170080460822B9
:103C5000200000B50D001E00FEF7BAFB0023A76090
:103C6000E381EB79AA791B0213431A1CB34200D9F2
:103C7000321C96B2A281002B0CD0002E15D0002F42
:103C80002AD0402E1AD8237896B27F2B1BD8002139
:103C9000134A0EE080212B780022994340460023EE
:103CA000FFF792FF80BCB846F0BD7F230022217849
:103CB000994333004046FFF787FFF3E7402223781C
:103CC00096B27F2BE3D9064C320039002000FEF774
:103CD0007FFB80212200ECE70020E3E7185B002057
:103CE000D85A002010B5142200210248FEF76AFBC2
:103CF00010BDC046185B0020014B18617047C046DC
:103D0000185B002010B5054C010008222000FEF7CA
:103D10005FFB0023A360E36010BDC046185B00207A
:103D200070B5374C1D0023780600DA09C9098A42AC
:103D300010D00020002D00D070BD21003000FFF712
:103D4000FBF82369002B03D02200032130009847A1
:103D50000120F1E77F2B06D8A0680028ECD02A00CC
:103D60002849FEF735FBE289A1685219E38892B22F
:103D70004919E281A160934214D03F2D12D9A38941
:103D8000981A051C80B2402828D82078ADB27F2828
:103D900026D800219A4230D01A4A2B003000FFF773
:103DA00013FFC9E72369002B05D022000221300050
:103DB0009847002808D080212378002299433000BA
:103DC0000023FFF701FFB7E700213000FFF762F99A
:103DD00030008021FFF75EF90120ADE74025D4E7F0
:103DE0009A4207D0074C2A002000FEF7F1FA802102
:103DF0002200D2E780210022CFE70022CDE7C04693
:103E0000185B0020D85A002070B50400FFF7C8F9ED
:103E1000002800D170BDFFF7CBF90028FAD1C823E4
:103E20006343124A2500D418E1780029F2D01033F8
:103E30009E18300000F0E2FD3F28EBD90020E17829
:103E4000FFF79AFE0028E5D0300000F0D7FDE178BA
:103E50003F2807D9064BEA01D21800204023FFF77C
:103E6000B3FED7E70020FFF79BFED3E70056002004
:103E7000545A002010B50400FFF792F9002801D130
:103E8000002010BDFFF794F90028F9D1C822624341
:103E9000024B01309B181B791840F2E700560020B6
:103EA000C82310B543430248181800F089FD10BD1F
:103EB00010560020F8B5C82343431D4D1033EE18AB
:103EC000802304005B029A4200D31A4A300092B267
:103ED00000F0F8FD0700FFF763F9002801D1380072
:103EE000F8BDFFF765F90028F9D1C8236343ED1841
:103EF000EB78002BF3D0300000F080FD3F28EED9A6
:103F00000020E978FFF738FE0028E8D0300000F004
:103F100075FDE9783F2807D9074BE201D218002048
:103F20004023FFF751FEDAE70020FFF739FED6E71E
:103F300000560020FFFF0000545A0020F8B504008E
:103F4000FFF72EF9002801D10020F8BDFFF730F966
:103F50000028F9D1C82325005D432B00134E2433DC
:103F6000F718380000F02CFD0028EDD0751900205E
:103F7000A978FFF701FE0028E6D00D4AE3019C185E
:103F800021004022380000F09DFDA9780300051EA5
:103F900007D022000020FFF717FE0028D4D0280009
:103FA000D3E70020FFF7FCFDCEE7C0460056002017
:103FB000945A002070B5C82444430C4B0500E41803
:103FC00080235B029A4200D3094A200092B200F09B
:103FD00041FE0600200000F0F3FC3F2801D830002D
:103FE00070BD2800FFF7AAFFF9E7C046245600205D
:103FF000FFFF0000C82310B543430248181800F023
:10400000FDFC10BD24560020F0B50025184C83B0EF
:10401000C82200212000FEF7D5F9164B21001D70A3
:10402000FF236371E1235B02A36020000823402289
:10403000A37338310095073B103000F08BFC27004C
:104040000123210020002600402278310093B83758
:10405000243000F07FFCC0363800FDF731FA300024
:10406000FDF72EFAE56127622663656303B0F0BDB4
:1040700000560020D45A00200A4B196B1A6A0029F6
:104080000CD0002A07D00022DA615A631A6300229A
:104090001A62012070475A631A63FAE7002AF8D0BF
:1040A000D961F4E70056002070B5052200210D48C3
:1040B000FEF788F90C4D2B78DA0707D50B4C9B07D8
:1040C0000CD50121200000F099FE70BD054810308C
:1040D00000F074FE2B78054C9B07F2D4200000F012
:1040E0006DFEEEE700560020D45A00202456002032
:1040F000F0B54B79070083B0022B02D18B79022BEC
:1041000003D00024200003B0F0BD214B1E009B789B
:10411000002BF6D18B78092433700D784D196B780C
:10412000242B07D00CE02B78ED181C196B78A4B267
:10413000242B05D1A242F6D20020FFF765FEE1E76D
:104140001A00052B15D0042AF6D16B790A2BF3D16E
:10415000104B2E7801930133009338000223A919E4
:10416000023AFFF7A3FC0028CBD00E34A419A4B266
:10417000E2E729003800FFF7E5FC0028C1D0AB7862
:1041800073702B781C19ED186A78A4B2DBE7C0466F
:10419000005600200256002060238C461100127841
:1041A00070B513400022202B08D1324C4B792600E9
:1041B0000D7924781B022B439C4201D0100070BD66
:1041C0004B78222B1CD008D8202B39D0212BF5D1AD
:1041D0006346012B43D00122F0E7232BEED1634647
:1041E000012B42D0032BF6D1234B002BF3D08B783D
:1041F000C97800200902194300E000BF0122DDE771
:104200006346012B31D0032BE5D10125CB788A7889
:104210001B0213431C001D403300012124331800EE
:104220006940347100F0EAFD144B002BD3D0012318
:1042300062081A402900002000E000BF0122BDE70B
:104240006346012B0BD0032BC5D10D4B002BC2D0E5
:10425000310000200831FEF7B9FA0122AEE7094A21
:104260000723FFF7EFFC0122A8E7FFF7D5FC0122A7
:10427000A4E7C04600560020000000000000000037
:10428000CD27002008560020F8B54746CE4680B519
:10429000344C1F00E37880460D008B423BD0A3785E
:1042A00000208B4211D0C0BCB946B046F8BD2E4BA1
:1042B000002B04D02D4800F099FB00284FD000209F
:1042C000FFF7A2FDA378AB420AD1294B002B02D005
:1042D000002000E000BF0020FFF730FE002801D0E2
:1042E0000120E0E7234C200000F06AFB0028F7D112
:1042F000002FF5D0BB06F3D1243C4046A178FFF750
:104300003BFC0028ECD0002300224046A178FFF7B8
:104310005BFC0120C7E7184E14483100BAB200F028
:1043200099FC164B002BC2D06379FF2BBFD0002F16
:10433000BDD0BC46B444E14603E001364E45B6D09C
:10434000637932789A42F8D1084800F04FFB002890
:10435000F3D1064B103B597900E000BFEDE700E0D8
:1043600000BFACE7005600200000000010560020FF
:104370000000000024560020545A002000000000D5
:104380009322F0B5134C85B0002120009200FEF777
:1043900019F823002000802640270F4D4D3376006A
:1043A000FF33293002950093002200230021039758
:1043B0000196FF3000F0C4F94035201D2834002359
:1043C00001220021039702950196009400F0B8F9AC
:1043D00005B0F0BDDC5C00205C5C002010B5054C35
:1043E000200000F0E1F920002538FF3800F0DCF96A
:1043F000012010BD045E002070B5084C002520008F
:104400003130FF30257000F0D9FC20000C3000F076
:10441000D5FC2A23FF33E554657170BDDC5C0020B8
:10442000F8B5CE46474680B54B7980468946FF2B86
:1044300006D12A23374FFF337E79FB5C1E4304D01D
:104440000020C0BCB946B046F8BD8B780C783B70F4
:104450000B790C19002B3CD0A51803E0AC4238D2E4
:104460002378E4186378052BF8D1AC4231D22100CF
:104470004046FFF767FB0028E2D0A378DB09012B59
:104480002BD0254800F09AFC2A23A278FF33FA5457
:10449000637922791B0213439421204A5B055B0D4B
:1044A0009B185A425341022049007A5C5B008243C8
:1044B00013437B5418494046083900F0DFF90028BF
:1044C000BED023780136E4184B461B79F6B2B342CE
:1044D000C8D84B46E01A80B2B3E7114800F06EFC32
:1044E0000F4AA3780C3A5371637921791B020B436D
:1044F0005B050A495B0D5B1859424B41022011795B
:104500005B0081430B43064900200839137100F01A
:104510007FF9D6E7DC5C00200C5E002000FEFFFF88
:10452000E85C002070B51D002A2304001F48FF33FB
:10453000C35C8B4216D04079884201D0002070BD08
:104540001B4B002B04D029040020090C00E000BF05
:10455000184B200019001E0000F05AF900281DD049
:104560000120ECE79A235B00C35A002B0DD1124BBC
:10457000002B04D000201149AAB200E000BF2000A7
:104580000F4900F07BF90120D9E796235B00C15861
:104590003130AAB2FF3000F05DFBE8E72A003100BD
:1045A000200000F003F90120C9E7C046DC5C0020D0
:1045B00000000000E05C0020000000005C5C0020C7
:1045C000045E002000B5030083B0002910D0002055
:1045D000012B07D80A78002A04D00C48C2540120C5
:1045E000012A01D003B000BD1800FEF7E9FDF9E78C
:1045F00001236A46002001A99380FEF7E1FD00280F
:10460000F0D00122014B1A70ECE7C0462C5B002071
:1046100070B5040023780800DB070E00DD0F002BC7
:1046200016D123785B0701D5280070BD01214942CE
:10463000FBF73CFE2378DB07DD0F002B0AD1237844
:104640005B0708D40422237801251343237002E07A
:104650000025E9E700253000FBF76EFEE4E7C046E1
:1046600070B50D000121040049422800FBF71EFE31
:1046700023785B07DE0F002B04DB2800FBF75CFED2
:10468000300070BD2378DB0704D4042223789343E1
:104690002370F2E70026F0E7437902791B02134307
:1046A000C2785B0592075B0D920F022A1AD0032A8B
:1046B0000BD00020012A07D102394A425141104A49
:1046C000891899424041C0B2704702394A1E91414F
:1046D0000C4A4942114080220020D2008918994298
:1046E0004041F1E7022904D0002040229A42404193
:1046F000EAE7054A981843425841C0B2E4E7C04689
:10470000FF03000040FCFFFF00FEFFFF8446881807
:1047100030B51C00814206D24A78052A04D00A78B6
:1047200089188842F8D830BD7F228B781A40520011
:104730006244DB09D4540A7889188842ECD8F2E73D
:10474000F0B5C64600B582B0904608AA20CA04005B
:1047500016886A460120978D0A002178024081431D
:1047600020001143217032000093290001230830FA
:1047700000F0F0F8002D01D0002E07D101200A9B97
:104780006780636002B080BCB846F0BD25001C3570
:104790002800FCF795FE42460023002A01D02B009A
:1047A00000256361A561E9E701207047F8B502249F
:1047B0000B7807001C4063425C410800124B6442C6
:1047C0001C40124B08300D001600E41800F0F8F8F9
:1047D000002807D1002E05D0344203D101242B78C4
:1047E0001C4201D00020F8BD38006978FFF7C4F9F9
:1047F0000028F7D02B781C42F4D100230022380087
:104800006978FFF7E1F9EEE740FEFFFFFF010000E6
:1048100008239C468C4470B5050060460C00664633
:1048200000F0CEF8002803D0012223781A4201D0EC
:10483000002070BD28006178FFF79EF90028F7D0AE
:1048400062883000616800F03DF90122237813404E
:1048500000280CD0002BEBD10300626861780400C3
:104860002800FFF7B1F90028E2D02000E1E7002B93
:10487000DED128006178FFF793F9D9E7F0B5C64695
:1048800000B58A8906000C000B78002A06D1013297
:104890001A4240D0002080BCB846F0BD9B0734D4FB
:1048A0002B4B4025984608239C46A4446046674607
:1048B00000F0A4F88542EDD8012223781A42E9D10C
:1048C00030006178FFF758F90028E3D0380000F095
:1048D00095F8012223781340854232D8002BD9D194
:1048E000414662880140131C8A4200D90B1C9BB2CE
:1048F00000226178002B00D0626830001C00FFF7B6
:1049000063F90028C6D02000C5E7FE2380251B02DE
:104910009846AD00C7E74978FFF72EF90028B9D0CF
:10492000012223781A42B5D1638800226178002BD6
:1049300000D062683000FFF747F90028AAD06088ED
:10494000A9E7002BA6D130006178FFF729F9A1E78C
:10495000C0FF0000F0B5C64600B598466B461E7E07
:10496000802304000F0015001B029A4226D8C0685D
:10497000002803D001214942FBF798FC2069002858
:1049800003D001214942FBF791FC42465204F30354
:10499000520C1343E3800023E06863812760A58005
:1049A0002381002801D0FBF7C7FC2069002801D033
:1049B000FBF7C2FC012080BCB846F0BD0020FAE73E
:1049C000038941899C4682889BB288B28C4507D373
:1049D0001B1A9BB2101C9A4200D9181C80B2704757
:1049E0005100091A5B189BB2F4E7C046038940895D
:1049F000181A43425841C0B27047C04603894189E2
:104A00009C4682889BB288B28C4507D31B1A9BB206
:104A100000209A4201D9D21A90B270475100091A67
:104A20005B189BB2F4E7C04670B5040000690D0046
:104A3000002803D001214942FBF738FC2389628911
:104A40009C4698B291B2A388944532D3421A92B24E
:104A5000002A27D0934208D298422FD3C01A81B29D
:104A600061818B4203D8C91A89B28B42FBD9E28893
:104A700023685204520C514328005918FDF7A8FC32
:104A8000618901254A1C92B2A38891420DD9002266
:104A90005B00D21A20696281002801D0FBF74CFC30
:104AA000280070BD0025628992B25B009A42F1DB5A
:104AB000EFE75A00521A821892B2C9E7C01881B2C1
:104AC0006181CEE7F0B54646D6464F46C0B50600F2
:104AD00000698A46904682B0002803D001214942ED
:104AE000FBF7E4FB31897289B5888BB294B29142AD
:104AF00055D31F1BBFB2002F4BD0BD4205D2AB42D6
:104B000052D25B199CB22F0074814346B8453ED8FF
:104B10009FB2A54203D8641BA4B2A542FBD9F28878
:104B200031685204500C020062432B1B9BB289185F
:104B3000019002009F4225D943439BB21A00504680
:104B40009946FDF745FC5046019A7D1B6419544374
:104B500031684844A2B2FDF73BFC7189B588CB1996
:104B60009BB26A00994216D99B1A3069738100285A
:104B700001D0FBF7E1FB380002B0E0BCBA46B14619
:104B8000A846F0BD50467A43FDF722FCE5E73B1C02
:104B9000BEE773899BB26A009342E6DBE4E76F00ED
:104BA0003F1BDF19BFB2A6E75B1B9CB2ABE7C04659
:104BB000F8B50400C0680F00002803D00121494265
:104BC000FBF774FB258920896189A288ADB283B285
:104BD0008EB2884228D39B1B9BB29A4209D8E679B1
:104BE000F60906D1E068002801D0FBF7A5FB3000EC
:104BF000F8BD2B0095421CD39B1A9BB29342FBD26B
:104C0000E28820685204520C53433900C018FDF763
:104C1000DFFB6B1C9BB2A2889D4216D90023520079
:104C20009B1A01262381DDE75100891B5B189BB28B
:104C3000D3E7E28820685204520C53433900C0186D
:104C4000FDF7C6FB0135A288ABB252009342E8DB08
:104C5000E6E7C046F0B54E464546DE465746E0B567
:104C600089460500160083B0002A6BD0C068002872
:104C700003D001214942FBF719FB2F89EA79BBB226
:104C800098466B89AF889BB2D2093DD1984562D2D4
:104C90007A00D31A43449BB2BB4261D2FB1A1A1C5E
:104CA0009BB2B34200D9321C96B2F31B0193434628
:104CB000F3189BB29B46EA884446B84503D3E41BED
:104CC000A4B2BC42FBD252043B1B570C3A006243D5
:104CD00028689BB28018B34256D33A0049467243C3
:104CE000FDF776FBAB885B00D84501D89B4502DB1E
:104CF0005A46D31A9B465B4637002B81E86800284A
:104D000021D0FBF719FB1EE0BE422BD298454CD3B5
:104D10004246D21A92B27900F01B921901908A424F
:104D2000C5DBDA1992B29346921B92B29046934237
:104D300040D94346591A8BB29846F3189BB29B460A
:104D4000EA88B9E70027380003B0F0BCBB46B2469A
:104D5000A946A046F0BD4246D31A9BB2BB429DD3A2
:104D60000027CBE7002FC9D0CC46EA88F61B5104B8
:104D7000490C714398468C44D919002389B2E14605
:104D80008B463E00019397E77B439BB21A0049464E
:104D90009A46FDF71DFB4946019B2868E2187A43B5
:104DA000514492B2FDF714FB9CE77900CA1A4244C1
:104DB00092B2B1E79142BCDDC2E7C04610B5040033
:104DC000C068002803D001214942FBF76FFA20692F
:104DD000002803D001214942FBF768FA0023E0686C
:104DE00063812381002801D0FBF7A6FA20690028FF
:104DF00001D0FBF7A1FA012010BDC04670B5040038
:104E0000C0680D00002803D001214942FBF74EFA8B
:104E10002069002803D001214942FBF747FA7F218E
:104E2000E279EB011140E0681943E171002801D0FB
:104E3000FBF782FA2069002801D0FBF77DFA0120F8
:104E400070BDC046F0B5DE4657464E464546E0B515
:104E50000C0083B080468B460525FCF77DF80122C7
:104E600027792600BA4065572024324B3249434403
:104E70001B0D9B009A468146CB58013AE41B002D3E
:104E80003EDBAC422FDB1000A84003422BD1B079AF
:104E900000284BD12C003068AA40160000921A401E
:104EA0001E4240D18026B601B446002F16D0A3463C
:104EB00001911C0041463B002E00070010004200FB
:104EC000BD5A654500D2AD19321812329200013038
:104ED00055509842F3D323005C460199009A13433E
:104EE00052468B5001E0012464424846FCF740F8EA
:104EF000200003B0F0BCBB46B246A946A046F0BDB8
:104F0000202F10DC464601E0013C0CD31000A040ED
:104F100025000342F8D158468079B046002805D1D3
:104F200058460068B8E709246442DEE71424644266
:104F3000DBE7C0460000E0AF545C0020F0B54E4611
:104F4000DE4657464546E0B583B00C0089460CA9BD
:104F5000844608781F2A42D86100019109196446E5
:104F6000C90064182500DC352E68B2462600CC3610
:104F70003668B3461B4EA1198026B6020E60411E4C
:104F8000884141421F20084017494018052B0CD981
:104F9000A0271F267F05D834510139430532053B30
:104FA000296032402060052BF6D852019B0613433E
:104FB000019A4A44D20062441100DC310B601300B4
:104FC000D833186053460B605B460020CC32136028
:104FD00003B0F0BCBB46B246A946A046F0BD0520D2
:104FE0004042F5E7CC30000080E00000944601220A
:104FF0008A4070B5C6461C00036800B59343036041
:10500000002C30D04A005318DB00C3181D0026685E
:10501000C8352E60A66804356E606668E468DC33C7
:105020002E601C605318DB00184CC2181219802423
:10503000240614601460164A0C1D8A408260012206
:105040001500A540802408318A40A4010419256078
:10505000614622601F22C0180A40D830026000203A
:1050600040BCB04670BD4A005318DB00C3181D0099
:105070008026C83576022E60C0263603AE60F8263C
:1050800004357602DC332E601C60CBE7D0100000C4
:10509000010101017047C046030084469B070BD005
:1050A0000300032102E001330B4206D01A78002AE4
:1050B000F9D16246981A7047030019680C4A0D48E6
:1050C0008A188A4302420FD15968094A04338A1860
:1050D0008A43024208D15968054A04338A188A4330
:1050E0000242F1D000E001331A78002AFBD1E0E758
:0850F000FFFEFEFE80808080BF
:1050F8000051002008FF0000A08047A001E022A086
:10510800440000E022A047000A2A2A2A2050414EE3
:105118004943202A2A2A0A000A0000004E6F2073F9
:1051280070696E6C6F636B73206172652061766164
:10513800696C61626C6500004E6F20757365722042
:10514800495251732061726520617661696C6162B0
:105158006C650000486172647761726520616C61FA
:10516800726D20256420616C726561647920636CBE
:1051780061696D6564000000486172642061737341
:105188006572740052656C6561736500322E322E4B
:10519800300000007069636F00000000746573746C
:1051A800310000004A756C20203920323032360038
:1051B80055534220737464696E202F207374646F92
:1051C800757400005261737062657272792050695B
:1051D800000000005069636F00000000426F6172B8
:1051E8006420434443000000526573657400000066
:1051F800556E68616E646C65642049525120307840
:1052080025780A0065702025303258207761732090
:10521800616C726561647920617661696C61626C48
:105228006500000043616E277420636F6E74696EB9
:1052380075652078666572206F6E20696E6163748B
:105248006976652065702025303258000600525076
:10525800D3F075428C51002006005250BBFF3CB67B
:105268009C5100200D0A000000000000F1260020DB
:1052780000000000F5260020012700202D2700202F
:1052880029270020000000000A0000000000030693
:10529800A6000800020002009C0014000300574901
:1052A8004E5553420000000000000000000080003E
:1052B80004000100280044006500760069006300CE
:1052C800650049006E0074006500720066006100A8
:1052D80063006500470055004900440000004E0087
:1052E8007B00620063003700330039003800630038
:1052F80031002D0037003300630064002D003400B6
:105308006300620037002D00390038006200380061
:105318002D00390031003300610038006600630059
:10532800610037006200660036007D000000000062
:10533800050F2100011C100500DF60DDD88945C775
:105348004C9CD2659D9E648A9F00000306A60001BE
:10535800000000000600525053B4F4A1B8510020D8
:1053680000000000CC510020DC510020D063002058
:10537800E4510020F051002009025400030100808C
:105388007D080B000202020000090400000102026D
:10539800000405240020010524010001042402065C
:1053A800052406000107058103080010090401000F
:1053B800020A0000000705020240000007058202F9
:1053C8004000000904020000FF000105120110025C
:1053D800EF0201408A2E0A000001010203010000C9
:1053E800DA320020403400209034002018340020A5
:1053F8002A340020083400207A3300202633002085
:105408001A330020FA370020E0370020AE3500209C
:105418001A380020AE350020C8370020B4370020E5
:10542800AE350020A0370020A8360020AE35002079
:10543800863A0020783A00206C3A0020AE350020E9
:10544800AE350020563A0020783A0020AE350020CC
:10545800AE350020AE350020AE350020AE35002038
:10546800AE350020AE3500200E3A0020980C002002
:10547800980C0020E20C0020020D0020480D0020AE
:105488005A0D0020900C0020000000000940002068
:1054980079400020A9400020F140002099410020D7
:1054A8008942002000000000000000008143002025
:1054B800DD430020F94300202144002089270020F3
:0854C800254500200000000052
:1054D00054520020880000206052002094000020D8
:0854E000A00000205C53002035
:1054F000100000000000000000000100000000009B
:105500000000000000000200000000000000000099
:105510000000030000000000000000000000FF0089
:105520000000000001B5486801318E460047704612
:1055300009380149884701BD85130020000000009B
:10554000000000000000000000000000000000005B
:10555000C85600200000000000000000000000000D
:10556000503300004C33000054330000523300002D
:105570004D5300004D4300005334000043340000FD
:10558000592900200D29002081280020F92700201A
:105590000000000000010000945B002010000C00DF
:1055A00000000000000000000000000000000000FB
:1055B00000000000FF0000000000000000000000EC
:1055C0006520002091200020C1210020B52300206B
:1055D0001D22002021230020E9200020AD200020F2
:1055E000CD200020E120002071140020311800207F
:0C55F0002D200020B1100020792C00209C
:0400000520000001D6
:00000001FF
