:020000042000DA
:1000000018481949086006C881F30888104717483E
:100010000068002801D01648F3E71649164A002068
:1000200000E001C19142FCD1144988471449884736
:100030001449884700BEFDE7107F0020107F002094
:100040001C80002000000420000004200000042088
:100050000010042000100420001004200000000004
:10006000704700000001002008ED00E0000000D013
:10007000000000001C800020048E00204943002066
:10008000290B00200943002006005250ABB36053F7
:100090000C78002006005250861C03021C780020B9
:1000A000060052505422A29D20780020F2EB887165
:1000B000EC7E0020047F00203800002090A31AE787
:1000C0000000000000000000000000000000000030
:1000D0000000000000000000000000000000000020
:1000E0000000000000000000000000000000000010
:1000F0000000000000000000000000000000000000
:10010000002004200F000020CB010020CD010020A2
:10011000C9010020C9010020C9010020C901002037
:10012000C9010020C9010020C9010020CF01002021
:10013000C9010020C9010020D1010020D301002005
:10014000C1010020C1010020C1010020C101002027
:10015000C1010020C1010020C1010020C101002017
:10016000C1010020C1010020C1010020C101002007
:10017000C1010020C1010020C1010020C1010020F7
:10018000C1010020C1010020C1010020C1010020E7
:10019000C1010020C1010020C1010020C1010020D7
:1001A000C1010020C1010020C1010020C1010020C7
:1001B000C1010020C1010020C1010020C1010020B7
:1001C000EFF30580103800BE00BE00BE00BE00BECA
:1001D00000BE00BE030002689446EFF3108272B6C0
:1001E000604600680028FBD0BFF35F8F04201856DC
:1001F00000280BDB002910D0086000201B68BFF32B
:100200005F8F0021196082F310887047D0210906A2
:10021000097849B219710120F0E70020EEE70000EB
:10022000F8B5040015001E000368002B20D0D02371
:100230001B061B785BB21F002368EFF3108172B6B8
:1002400018680028FCD0BFF35F8F0423E356002B0F
:1002500014DB2368BFF35F8F00221A6081F31088DC
:100260002800310001F0B2FB0028E5D000200EE0AC
:10027000074B084A0848A62104F04AF8277123686A
:10028000BFF35F8F00221A6081F310880120F8BD50
:1002900070740020A47B00202874002070B582B008
:1002A000060015001C0001A9FFF794FF002807D1E4
:1002B000019B5BB2D0221206127852B2934201D156
:1002C00002B070BD2A0023003000FFF7A9FFF7E756
:1002D000F8B507000C0001F063FC05000E00FA22DF
:1002E000920000232000002102F052FE2A00330079
:1002F00012184B41002B03DB3800FFF791FFF8BDCC
:1003000001225242004BF7E7FFFFFF7F10B5016863
:10031000EFF3108372B60A68002AFCD0BFF35F8F38
:1003200004228256002A0ADBFF2202710268BFF310
:100330005F8F0021116083F3108840BF10BD034B15
:10034000034A0448D52103F0E3FFC046847400202B
:10035000987B00202874002010B5002308E00133AA
:10036000DA00002108481150844662445160DBB233
:100370000E2BF4D90548F0229200002102F0C2FEB3
:10038000034B044A1A6010BD00001050EC87002097
:10039000B08B002080011050F0B5CE46474680B5A6
:1003A00085B0214B9F6D0024012603E0B743760002
:1003B0000134E4B2002F31D01F2C2FD83E42F6D0AA
:1003C0001A4B9E656308994601232340012253403E
:1003D000DBB298464B465D0045446D01144BED1869
:1003E000280000F043FA0028E0D0114A4B465B0099
:1003F00043445B01D3189978DA8A01A80023984610
:1004000003700733437001718260434643710121D9
:1004100000F04CFA280000F0BFF9C7E705B0C0BCF7
:10042000B946B046F0BDC046000011500030115032
:10043000AC870020F0B5CE46474680B585B0734AFC
:100440009823D55880239B022F001F401D4245D082
:100450006F4B9A6A6F4B1A600024002109E06E4BC3
:100460005B183C3300221A7000F0C2F931000134ED
:10047000E4B20F2C18D8A60130002030664BC0180B
:100480009B193B331B78022BF1D1634B9B193A33F9
:100490001E78002EEBD0604BA1015B183C331B781B
:1004A000002BDCD13100E2E7002908D15B4B1B783F
:1004B000002B04D15A4A903380218902D150534BEA
:1004C0009B6C5B055B0D01A8002202700332427039
:1004D0004360012100F0EAF98027BF02EB0606D451
:1004E000EB034DD580235B021F43002416E010234D
:1004F0001F43FFF751FFF3E702261CE0494B1E663E
:10050000424B5B6E33409E42FAD118E0424B4A4662
:1005100052019B180122DA700134E4B2012C1FD879
:10052000A14666013C4BF31898469B7E002BEDD00C
:10053000002CE1D0012600F065FB0128DED8C022A6
:1005400092010021404600F02DF9404600F024F9C8
:1005500000F058FB0128D9D9314B5E661E66D5E7FD
:1005600001A800230370063343702F4A02AB12CA5E
:1005700012C3012100F09AF9294B802292021A65D8
:10058000EB040AD46B041DD42B042AD4AF4238D117
:1005900005B0C0BCB946B046F0BD80235B011F4327
:1005A00000241A4B1C60FFF7D7FE01A8047001233A
:1005B00043700471012100F079F9194B8022120374
:1005C0001A65DFE78023DB011F4301A800230370C6
:1005D00004334370012100F069F9114B10221A65B0
:1005E000D2E780231B021F4301A8002303700533B9
:1005F0004370012100F05AF9094B802212011A655B
:10060000C4E739006940094800F026FB000011509A
:1006100000400540A4870020AC870020FA8D002010
:10062000003011500020115000001050147A0020AA
:10063000F8B504000F00838A028B1E1C934200D978
:10064000161CB6B29B1BA3828022D2003243E378F1
:10065000002B13D08025AD01154301225340E370D8
:100660006378002B0CD0A38A002B02D18023DB01FE
:100670001D43002F00D02D042800F8BD0025EBE716
:10068000E068BB01C0182169320004F0C3FC236993
:100690009B19236180231B021D43E4E7094B1B6C5C
:1006A0009B070CD48378DB09012B01D0002007E0E5
:1006B000C37E022B01D0002002E0012000E00020D8
:1006C0007047C0460000115010B5FFF7E7FF002843
:1006D00009D0064B9B6A064A12689B1A054A944643
:1006E0006344C62B00D810BD0020FCE70040054045
:1006F000A4870020E0FCFFFF70B5040083681B683E
:10070000002900D01B0C9D05AD0D6278002A11D187
:100710001B0409D4E38A5B19E382238BAB4201D922
:100720000023A382280070BD0D4B0E4A0E48E8211D
:1007300003F0EEFD1B040DD52069E368890159180B
:100740002A0004F067FCE38A5B19E38223695B19E2
:100750002361E2E7054B034A0348EE2103F0D8FD8D
:10076000347A00209C7E0020547A0020B07A002049
:1007700010B5040083681B680021FFF7BDFF6368A4
:100780001B685B0002D5238B834200D010BD012182
:100790002000FFF7B1FFF9E7002383768382C3824D
:1007A0000361704710B5002902D083681B681940A7
:1007B000002A10D0114352050DD5826813685B05DD
:1007C0000CD4084B0B401360074B1B6C9B0702D4E7
:1007D0000C23033BFDD28368196010BD8178034868
:1007E00000F03AFAFFFBFFFF00001150D07A002022
:1007F00070B5040043681E680021FFF719FF8025CB
:100800006D010543164B1B6C9B0715D5A3785B0642
:1008100017D10023A28A002A01D0002B15D0114B3A
:100820001E4080239B053343626813602A00002129
:100830002000FFF7B7FF70BDA378DB0903D10133B8
:10084000E8E70123E6E70023E4E701212000FFF7C2
:10085000EFFE0543044A3240A023DB051343E3E7E0
:1008600000001150FFFFFFAFFFFFFFDF70B5040076
:10087000857E002D06D0FFF77BFFA38A002B05D1D4
:10088000280070BD8178084800F0E6F92000FFF7E5
:100890001BFF051E03D0012323770025F0E720006E
:1008A000FFF7A6FFECE7C046F07A002070B584B0F1
:1008B00005000E004378042B3CD009D9052B43D00A
:1008C000062B1AD1674A13780133DBB2137014E098
:1008D000022B03D0032B10D100244BE0624B1A787B
:1008E00001218A431A701A7801318A431A70002252
:1008F0005A701A7802318A431A705C4B1C6862691C
:10090000EFF3108172B61368002BFCD0BFF35F8F3A
:10091000A1612900200006F063FB6269A369BFF3AF
:100920005F8F0021116083F31088002800D092E0CF
:1009300004B070BD4C4B1B78DB07F9D54A4A1378DD
:1009400004210B431370D8E7474B1B78DB07EFD527
:10095000454A137804218B431370CEE79B1A5B0141
:10096000434A9B18DB69002B02D0287869689847B6
:100970000134E4B23F4B1A782300511CA14208DB3A
:10098000A242EBD93C4B1B6862019B18002BE9D1BA
:10099000EEE7354B1B785B0728D5334A13780421E3
:1009A0008B43137001AC0C220021200002F0AAFB43
:1009B0002B782370052363702C4B1C686269EFF35E
:1009C000108172B61368002BFCD0BFF35F8FA1615A
:1009D00001A9200006F004FB6269A369BFF35F8FE1
:1009E0000021116083F3108800282DD11E4BDB7885
:1009F000DB0700D49CE72A7801AB1A7003225A70F7
:100A00006A680292194B1C686269EFF3108172B632
:100A10001368002BFCD0BFF35F8FA16101A92000F8
:100A200006F0DEFA6269A369BFF35F8F00211160EF
:100A300083F31088002800D17AE701AB1878597841
:100A4000320004F037FC73E701AB187859783200B4
:100A500004F030FCCAE728786978320004F02AFCF8
:100A600066E7C046FB8D002058830020B08300203D
:100A7000AC7E0020F98D0020A881002082B08C4639
:100A8000144BC3185A425341134A5B009B5E8B427E
:100A900005D06B46DA1D63461370002115E06B46E6
:100AA000DA1D0D23137000210029F2D183699B0602
:100AB000FCD41378036001310132F5E783699B06AA
:100AC000FCD413780360013101320029F6D002B062
:100AD0007047C0460080FCBFE48D002030B583B075
:100AE00004000D00002313E06B46DA1D1170002096
:100AF00006E0A3699B06FCD4137823600130013221
:100B00000028F6D02B780D3B5A425341DBB2013519
:100B10002978002905D0002BE6D12000FFF7AEFF91
:100B2000F0E703B030BD000070B503F02BFDFA20F4
:100B3000800000F041FF192000F058F8D0231B0678
:100B4000802292045A62E12464022100164801F0D6
:100B5000D3F80221002000F02FF80221012000F03C
:100B60002BF82100114801F0C7F80221082000F0FD
:100B700023F80221092000F01FF8D0252D06802639
:100B8000B6046E61FA24A400200000F015FF0849A5
:100B90000648FFF7A3FF074803F0F8FCAE6120000A
:100BA00000F00AFFE9E7C046004003400080034030
:100BB000387100205071002010B58300084A9A183F
:100BC000126840245440C0222240064CA44663448C
:100BD0001A60C000044B9C466044416010BDC04692
:100BE00004C0014004D001400040014010B5012381
:100BF0008340D0221206936293610521FFF7DCFF48
:100C000010BD000010B58023DB05186803051B0D1F
:100C10000B4A934207D10B4B03408022920193422F
:100C200007D1000F10BD084B084A0948132103F0F3
:100C30006FFB084B054A0648142103F069FBC046C8
:100C40002709000000F0FF0F64710020187B0020CE
:100C500088710020D07100200FB400B583B008481F
:100C600003F094FC049B002B07D005A90191180008
:100C700003F09CFC034803F089FC012003F042FBD5
:100C8000E4710020F4710020EFF3108072B6034B82
:100C90001B68002BFBD0BFF35F8F70472C0100D087
:100CA000BFF35F8F024B00221A6080F310887047F9
:100CB0002C0100D070B505000C001600FFF7E4FF12
:100CC000E308EA189446E95C072222400123934096
:100CD0000B4206D1DBB20B4362461370FFF7E0FF15
:100CE00070BD21003000FFF7B7FFF0B583B00500FD
:100CF000019114001E00FFF7C7FF00E00134B44269
:100D00000CD8E308EF18EB5C0721214001228A4050
:100D10001A42F3D1D2B21A433A7001E0012464427C
:100D2000FFF7BEFF002C02DB200003B0F0BD019BEB
:100D3000002BF9D00898FFF78FFF0000054A1078C4
:100D4000431CDBB21370172B02D9130010221A7048
:100D50007047C046107F002000B583B001000448F2
:100D6000044B00931F231822FFF7BFFF03B000BD01
:100D700048870020F8710020002307E0054A9A18F0
:100D80009200BFF35F8F0021116001331F2BF5D953
:100D90007047C04640000034074B9B68103080000D
:100DA0001950BFF35F8FBFF35F8F044B00211960B1
:100DB00082F310887047C04600ED00E0240100D0A7
:100DC0000048704700E400E010B5FFF7F9FF00238A
:100DD00002E0034A04C00133072BFAD910BDC04614
:100DE0008080808010B50388DA0A1C2A05D15B0553
:100DF0005B1502335B00C01810BD034B034A8E2104
:100E00000348490003F084FA14720020547B002048
:100E10002C72002010B5091A0B1F0A4A88180A4ABA
:100E2000904208D8C90706D45B105B055B0D0748E4
:100E3000184380B210BD064B064A87210648490078
:100E400003F066FAFC070000FE0F000000E0FFFF61
:100E500074720020487B00202C7200200123834004
:100E6000034A10681840431E9841C0B27047C046FC
:100E700000E100E0002A05D0044BC0225200995046
:100E800019607047014A8023D150FAE700E100E081
:100E900010B50A001F230340012199404009FFF7C4
:100EA000E9FF10BD01238340014A13607047C0462B
:100EB00000E200E0024B9B6810308000C058704791
:100EC00000ED00E010B5FFF7F5FF044BC31A00205A
:100ED0002F229A424041C0B210BDC046147F00206C
:100EE00070B505000E00EFF3108472B60C4B1B6852
:100EF000002BFBD0BFF35F8F2800FFF7DBFF094B10
:100F0000984201D0B04205D1220031002800FFF7FD
:100F100043FF70BD044B054A0548ED2103F0F8F985
:100F2000240100D0C1010020A47200207C7B00209D
:100F30002C720020F0B5DE4657464E464546E0B5D9
:100F400089B0814601911500EFF3108372B69A467D
:100F50006E4B1B68002BFBD0BFF35F8F6C4B0026E2
:100F60009E57002E40DB7400A419A4006948231882
:100F70009B4606229A56664B1A70674B9A684B46F8
:100F800010339B00D7583B1A2F2B3BD9634B9F4202
:100F900031D105AF624B3B806249730002939819CF
:100FA00080005C4C00190230FFF734FF78805E4B04
:100FB000BB80FF23BB71FD71019A0792029B9B19B5
:100FC0009B00E31807CF07C301275B463B431F0085
:100FD000524639004846FFF7DFFE09B0F0BCBB4679
:100FE000B246A946A046F0BD504B514ABE215148D9
:100FF000490003F08DF9504B4D4A84214D48FF3193
:1010000003F086F901233A009A439046101A0C2106
:1010100001F082F900290FD143460024DA79AA426F
:1010200012D90621595600290DDB4A0052189200A8
:1010300038491C008B18F1E7404B3D4ACA213D4816
:10104000490003F065F91C00002C2DD005AB3C4A8B
:101050001A80813A5A800623E3569846002B16DA06
:10106000384804AB188142469A72DD72019B07939F
:10107000201D5946FFF7CEFEA080A671254B7200B9
:10108000921992009B1805AA13CA13C3A0E7201D4A
:10109000FFF7A8FE01007000801980001D4BC018EA
:1010A0000430FFF7B7FEDCE705AF1D4B3B801D4961
:1010B000730002939B199B00164C1800A4466044D1
:1010C00003900230FFF7A6FE7880039A101D414678
:1010D000FFF7A0FEB8801C4B4246121B52415343FF
:1010E0001B0DBB71FD7101990791029B9B199B0020
:1010F000A446634407CF07C3114B42461380813B8C
:10110000538001275B463B431F0061E7240100D069
:10111000FC8D0020147F002000ED00E0C1010020C4
:1011200000A1FFFF447F002001BDFFFFDC72002013
:10113000647B00202C720020047300202C7300209C
:101140000148000001BD0000AAAA000070B50122FC
:1011500002432D4BD31A2F2B29D8EFF30583002BF5
:101160002BD0EFF3108172B68C462849096800290C
:10117000FBD0BFF35F8F244C254905002D1B6D412B
:101180006943090D4CB2234989689B00C9589142B3
:1011900019D00021032930D81B4B4A005218920065
:1011A0009B189B795BB2A3421DD00131F2E71A4B29
:1011B0001A4A1B481B4903F0ABF81B4B174A184847
:1011C0001A4903F0A5F8134A92681949D150194BEE
:1011D0001A7882711C70BFF35F8F0C4B00221A606B
:1011E0008CF3108870BD084B4A005518AD005D198E
:1011F000FF26AE71104AAA80E9E7104B074A08485B
:101200000F4903F085F8C046147F0020240100D068
:10121000AAAA000000ED00E0B07300202C7B0020A3
:101220002C7200207F020000D87300208202000090
:10123000C1010020FC8D002001BDFFFFE4730020F0
:101240009302000000B583B001000648064B0093EE
:1012500005230022FFF749FD002801DB1F23181A90
:1012600003B000BD008E0020EC730020024B9C46B2
:1012700061448900016070474000003410B50400EB
:10128000FFF75CFD01002000FFF7F0FFFF23237153
:10129000BFF35F8F10BD10B50400FFF74FFD0100D5
:1012A0002000FFF7E3FFFF23237100236371BFF3E7
:1012B0005F8F10BD10B50D4C09E00D4B0D4A0E4867
:1012C0001A2103F025F82000FFF7D8FF08340B4B54
:1012D0009C4209D22368002BF5D0012BEDD12000D0
:1012E000FFF7D9FF0834F2E710BDC046D87F0020D1
:1012F00008740020BC7B002028740020E07F0020C0
:10130000034B9C46614489000160BFF35F8F7047C7
:101310004000003410B504000120FFF71DFD01005E
:101320002000FFF7EDFF10BD30B5836A9C46D41A4C
:101330000B1D9B001B5865465B1B9C4204D3046A33
:1013400001238B40234202D1043189000A5030BD71
:1013500000040843704700000A4B1968EFF310833C
:1013600072B60A68002AFCD0BFF35F8F054A126884
:10137000BFF35F8F0021116083F3108840BF00200E
:1013800000217047D88D0020F0B5DE4657464E4606
:101390004546E0B583B0EFF3058303221A40110000
:1013A0000192AF4B9200D35898461B788B4207D1DD
:1013B0000123019A93400093AA4B009A1A601FE1FF
:1013C000A94BAA4AAA48922102F0A2FF43465A69B1
:1013D0004B465B004B44DB0093469B445B469E6858
:1013E000DF68A44800F0ACFB801BB941002900DA9B
:1013F00010E1002F61DB5B461C699F4B9C4247D08C
:1014000043460820185E5B46598889B2FFF7A0FF63
:101410005B465969A04704000D0023002B434CD0C4
:10142000002D3EDA30003900001BA9415B46986070
:10143000D96000241C5F002C00DAEBE043465A69B7
:10144000924663001B19DB0053449A68DB68050071
:101450000E00AD1A9E41002E00DADBE043461C81EF
:1014600047460837BC46002C21DB634600229B5EC2
:101470005D00ED18ED005544AA68EB6806000F000A
:10148000B61A9F41002F12DBAC460023EC5EEAE760
:101490005B465C6923692000984700280DD030CC5A
:1014A000BBE7744800F04CFB00196941BEE75B469E
:1014B0001C804B4662461380ACE05B4600229B5E7C
:1014C000424613811269EFF3108372B61168002946
:1014D000FCD0BFF35F8F42460221525E59460A801C
:1014E0004246494651801269BFF35F8F0021116067
:1014F00083F310888EE043461969EFF3108372B6C8
:101500000A68002AFCD0BFF35F8F4246928812B26D
:1015100091460122524241468A800A69BFF35F8F99
:101520000021116083F310881CE09B4600229A5E24
:10153000002A0EDB5B460021595E4B005B18DB0086
:1015400053449868D96826002F00361A8F41002F1F
:10155000EBDA4B4659460B80634600215B5E9946A9
:1015600063461A804B46002B5ADB43465A69924623
:101570004B465B004B44DB009C46D44463469C686E
:10158000DD6846460836B346434608229A5ECFE7F2
:101590000023424693714146083143460820185EB5
:1015A00011E001225242D317A260E36043460822B1
:1015B0009B5E834206D00D80434608229B5E2380BB
:1015C000434618812800431C2ED043465A694300E5
:1015D0001B18DB00D418D55E63881BB2002BE0DB40
:1015E0002100EFE722002B0001992248FFF79CFE23
:1015F000204800F0A5FA241A8D41002D28DC25D0C2
:101600001C4B009A5A63434608229B5E9946002B66
:1016100000DBDBE643469B881BB2002B00DB6AE75E
:1016200043469B79002BB3D1434608229A5E002A99
:101630000EDB4346596953009B18DB00CB189C68AE
:10164000DD68631CCED16B1CD2D0CBE7002CD7D089
:1016500040BF03B0F0BCBB46B246A946A046F0BDB1
:10166000BC8B00203C700540BC740020E87B00204F
:10167000E8740020004005408913002070B5040084
:101680000D0011000126AE4006622800FFF728FC7D
:1016900001212800FFF7FCFB024B9C4664442660B6
:1016A00070BDC04638200000F8B504000F001600D9
:1016B0001D00C160FFF742FB124B9C466044800056
:1016C00020612670ABB26381D0221206127862705C
:1016D000012252422281A2809B186380002306E0EF
:1016E000581E61695A00D218D20088520133AB42A9
:1016F000F6D3054BB200D450044A31003800FFF74E
:10170000BDFFF8BD40000034BC8B002089130020D1
:1017100010B5064B1B69002B01D0044810BD044BCB
:10172000044A0548652102F0F3FDC0465C7F0020B5
:1017300028750020D07B0020E8740020F8B5040054
:101740000569EFF3108072B629680029FCD0BFF359
:101750005F8F0221665E656971008919C9006D1885
:10176000002E02DB0027E95F61802169BFF35F8FF4
:1017700000270F6080F31088002E2CDB069929616A
:1017800007996961AA60EB606B8801335B04590CAF
:10179000002B00D1012169803000FFF7D9FD2169BC
:1017A000EFF3108372B60A68002AFCD0BFF35F8F94
:1017B000A2882A80A6802269BFF35F8F0021116072
:1017C00083F31088E368217801228A4003498C461C
:1017D00063441A60F8BD01204042FBE73C20000052
:1017E00070B582B0060014001D0008AB1B78002BFA
:1017F00007D100F0D5F922002B00121A8B41002BE3
:101800000ADB079B0193069B009322002B0030000C
:10181000FFF794FF02B070BD0020FBE7F0B5C646AD
:1018200000B584B080460F0016001D000AAB1C787E
:10183000FFF76EFF02940195009642463B00FFF7CA
:10184000CFFF04B080BCB846F0BD000030B5040046
:101850000A1443899A4230DA406953009B18DB002E
:10186000C31822699446EFF3108272B6604600688E
:101870000028FBD0BFF35F8F588885B20904090C9C
:10188000884212D000202369BFF35F8F00211960C6
:1018900082F31088002811D0E368217801228A4061
:1018A00007498C4663441A6008E00649294389B217
:1018B00059800123A3710120E5E7002030BDC04617
:1018C0003C2000000080FFFF10B50400FFF720FF60
:1018D0002100FFF7BBFF10BD40787047F0B583B023
:1018E00006000F00EFF30583002B1AD10624644293
:1018F000E517A4197D418D4202D803D1844201D954
:101900000024002500F04CF922002B00121A8B4114
:10191000002B0BDC08D03000390000F053F903B085
:10192000F0BD1648FFF798F9002AF4D0144A0023B6
:10193000009320002900FFF771FF002813DAEAE77F
:10194000104B1968EFF3108372B60A68002AFCD0B6
:10195000BFF35F8F0B4A1268BFF35F8F00211160E6
:1019600083F3108820BF084B5B6A9D42E8D8064984
:10197000896AA142CFD29D42CDD1E1E74C750020CA
:1019800059130020D88D00200040054070B5040098
:101990000D0000F005F922002B0012184B41100039
:1019A000191E02DBFFF79AFF70BD0120404201497A
:1019B000F8E7C046FFFFFF7F10B5FA229200002330
:1019C000002101F0E5FAFFF7E1FF10BDF0B585B0A9
:1019D00003900291EFF30583002B13D00B00414AD3
:1019E000526A8A4209D33F49896A814208D29A429F
:1019F00001D0012002E0002000E0002005B0F0BD91
:101A00000120FBE7FFF784FEC3681F000678039AF6
:101A10001400029A1500180000F092F802000B0062
:101A2000A41A9D412200311D8900C959091A0020BC
:101A3000A84211DC0ED020BF029A2A4B5B6A9A4260
:101A400034D82849896A0398814231D29A422BD0EE
:101A50000120D3E79142EED9234A00230093039D4E
:101A60002800029C2100FFF7D9FE002822DD029900
:101A70000D001C4B5B6A994206D81A4A926A039C75
:101A8000A24202D2994200D120BFFFF71DFF154BA1
:101A90005B6A9D4222D8134A926A039882421FD2FF
:101AA0009D4219D00120A9E70020A7E70020A5E763
:101AB0000120A3E70B4B5B6A9C4209D80949896A5C
:101AC000A94207D29C4201D0012097E7002095E768
:101AD000002093E7012091E700208FE700208DE7A9
:101AE00001208BE700400540591300200048704753
:101AF0000040054010B50B4B1B69002B04D00A4871
:101B00000A21FFF7B3FB10BDFFF7F0FF040003212C
:101B100000F00CF80348102303222100FFF7C4FD56
:101B2000EDE7C0465C7F0020D88D002010B5024A4A
:101B30000248FFF7BFF810BD9C7500204C870020BD
:101B40000200436A906A1900536A9942FAD17047B9
:101B5000416A00E0416A9942FCD300E0416A99423F
:101B600002D1816A9142F9D3704770B50600140022
:101B70001D00FFF7E5FF02000B0010001900220016
:101B80002B0012184B41994202D804D1904202D93D
:101B900001225242D3173000FFF7DAFF70BD000078
:101BA00010B50248FFF7CCFF10BDC046004005400D
:101BB00010B502000B000248FFF7D7FF10BDC0466A
:101BC0000040054010B502000B000248FFF7C0FFBF
:101BD00010BDC04600400540074B98420AD016236E
:101BE00001229A40054B1A60054B1B68110099436E
:101BF000FAD170471723F3E70080034000F000405C
:101C000008C0004070B5046BE30701D4200070BD2C
:101C10000B4BC3180B4A1A60436A826A9B019B18DC
:101C20009D02062000F018F9074900F075FB01003D
:101C3000280000F071FB0021FFF7BAFFE6E7C0467D
:101C400030300000010300004E0E000070B50400AB
:101C50000E001500FFF7D6FFE16A33004B40190074
:101C60002B000B401900024BE3181960206370BD74
:101C70002C10000070B505000C00062000F0ECF8F8
:101C8000C000210000F048FB0130C60907D00E4B10
:101C90009E4215D8400834003F26064000E001244B
:101CA0006C62AE62002200212800FFF7CFFF062001
:101CB00000F0D2F88000A101891900F02DFB70BD61
:101CC0000026024CECE7C046FEFF0000FFFF0000CC
:101CD000002909D00A22064B9C46604443425841E1
:101CE000044B4000C252704780225200F3E7C046C6
:101CF0000080FCBFE48D002070B504000D000620BC
:101D000000F0AAF800281ED0104B9C421CD01622CE
:101D1000012393400E4A13602000FFF75DFF00216E
:101D20002000FFF7D5FF29002000FFF7A3FFE26A9C
:101D300070235A400E331340064AA2181360064B14
:101D400023630323A36470BD1722E1E700800340EF
:101D500000E000402C10000001030000F8B5CE4662
:101D6000474680B505000E00904699464400241869
:101D7000A400284B9C4664446368089A934200D2AE
:101D800062602F1FFFB2012F2ED980221201C023C3
:101D90009B01E3181A60204BAA00D158002907D0F4
:101DA000586900F0B9FA013043001B18033BFDD21B
:101DB00043465B0122685340E022134080225201D7
:101DC000A2181360012F1AD980239B01E3188022E7
:101DD00012011A60089B63600F4BAD004A46EA503F
:101DE000C0BCB946B046F8BD012ECED10322C023F7
:101DF0009B01E3181A60A368DB07FCD5D8E72168CC
:101E0000714003230B401360A3680122B2401A42C1
:101E1000FAD0D9E7008000405087002070B582B02A
:101E200006000D0014001800069900F075FA030072
:101E3000069A11020091220029003000FFF78EFF60
:101E400002B070BD10B582B0802464000094FFF72A
:101E500085FF02B010BD0000014B8000C0587047E4
:101E600050870020F0B5C64600B504000E001700EC
:101E70001D00374800F050FA8046364BFA18364BB2
:101E80009A4239D80100380000F046FA0200103AB0
:101E900098235B009A4235D86B1E062B38D8069BD8
:101EA000013B062B34D83F09474537D32D04069B09
:101EB0001B031D432368002B36DB284B9C4244D078
:101EC0000C2201239340264A1360264A1360264AB7
:101ED0001268190091430A1EF9D12660A060234BB5
:101EE000E31821321A602268002AFCDAE560082231
:101EF0001A6080BCB846F0BD1D4B1E4A1E48112119
:101F000002F006FA1D4B1B4A1B48192102F000FA89
:101F10001B4B184A18481C2102F0FAF9194B154AB4
:101F20001548232102F0F4F922683F231340B342FD
:101F3000C3D1A3681B051B0D8342BED1E368EE220B
:101F4000D2021340AB42B8D1D3E70D22B9E7C04665
:101F5000001BB70080E84BD380F8A93200C00240D4
:101F600000E0004000F0004008C0004004300000E5
:101F7000C0750020007C00201076002058760020DC
:101F800074760020C0760020024B1A68024B5A601B
:101F90007047C046AC8B00200080054010B5174B41
:101FA0008022D2051A60164B164A1A6000290AD000
:101FB000154BE022D2041A60002809D1124B80226E
:101FC00012061A6010BD0D4BE022D2041A60F3E72E
:101FD00043011B1A9B00181800010C4B186080234A
:101FE0005B04984202D3094B094A1A60FFF7CCFF01
:101FF000054B8022D2051A60E4E7C04600B00540D8
:1020000008200140FCFF010000A00540AC8B00202F
:10201000FFFFFF0010B503000C0010000B4A8021E9
:10202000C9051160002B0DD001221343084A09494C
:10203000D161094959401162546293620021FFF74E
:10204000ADFF10BD024B0022DA61F7E700B005409A
:1020500000800540D3C007B02D3FF84F80239B0080
:102060000B43014AD36270470080054010B5010060
:1020700018231B8814221088984710BD10B5010042
:1020800018231B8816221088984710BDF0B5C64645
:1020900000B507000E0000250123984600E0013539
:1020A000B5420AD2AC003C192068FFF7DFFF206080
:1020B0000028F4D100239846F1E7404680BCB8469A
:1020C000F0BD000070B504000D000648FFF7CEFF1C
:1020D0000300002C03DB0120A040290098470020CA
:1020E000FBE7C04655420000074BAA2212011A60C6
:1020F0008D225200DA60054B054A1A60024B5B687C
:10210000002BFBDA7047C0460040024000600240EE
:1021100000B0FA0010B5040001E008CC9847024B6B
:102120009C42FAD310BDC0461880002070470000C2
:1021300010B50248FFF7EEFF10BDC046E07F00205B
:10214000054B064A1A60064B064A1A60064B1A6887
:10215000044B9343FAD1704700E00040BFCDFBFE33
:1021600000F00040FE7F3C0008C00040044BDB6CE8
:10217000002B03D1034B8022D2021A607047C04665
:10218000000011504C201150044B054A1A60054BB9
:102190001B68DB43DB01FAD17047C04600F000400A
:1021A000FFFFFF0108C00040034B40229A675A67B7
:1021B0001A67DA667047C04600F0014010B5FEF7B6
:1021C000DBFD10BD70B50420FFF746FE064900F0A8
:1021D000A3F805000024002C00DD70BDE0B229004A
:1021E000FFF73CFF0134F6E740420F0030B583B003
:1021F000274B00229A67FFF777FF264B01221A60D0
:10220000234B5B6C012BFBD1234B03221A60204B29
:102210009B6B012BFBD10133009304331F4A012137
:102220001F48FFF71FFE052300931E4A01211E4889
:10223000FFF718FE1D4B002202210420FFF702FECB
:102240001B4D2B00002201210520FFF7FBFD194C3F
:102250002300002200210720FFF7F4FD23000022C5
:1022600000210820FFF7EEFD8023DB000093230010
:10227000002200210920FFF7D1FD2B0000220021C0
:102280000620FFF7DFFDFFF79DFF03B030BDC0461E
:10229000008000403CB0004030B00040002F685942
:1022A00000800240008C864700C00240001BB7003F
:1022B00040597307006CDC0201480421014B1847A8
:1022C000807F00208D200020124A936F9B0815D23A
:1022D0009066D166002905D0FFE7FFE7FFE7516F61
:1022E000106F704704B580210906C21751400028BD
:1022F00000D0C84304F0EEFE002104BDF0B5146E1A
:10230000556E576F166FFFF7E3FF146655665767F4
:102310001667F0BD000000D0114A936F9B0813D2DE
:1023200010665166002905D0FFE7FFE7FFE7516F10
:10233000106F704704B5002801D00020C04304F09E
:10234000C9FE002104BDC046F0B5146E556E576F2E
:10235000166FFFF7E5FF1466556657671667F0BD01
:10236000000000D094464A4A926F9208624601D219
:1023700028E0C046F0B5464E346E756E776F366F06
:1023800000F020F89446424A14665566576716676F
:102390006246F0BD94463E4A926F9208624601D270
:1023A00054E0C046F0B53A4E346E756E776F366FB6
:1023B00000F04CF89446364A14665566576716671F
:1023C0006246F0BD002B24DB11D000293EDA00B5B7
:1023D000C943404200D1013100F038F8C9434042BE
:1023E00000D10131DB43524200D1013300BD002A4C
:1023F000EBD1002801D1002905D00020C90FC90761
:1024000001D1C043410800B504F064FE002200235E
:1024100000BD00B500290ADBDB43524200D1013385
:1024200000F014F8C943404200D1013100BDC94356
:10243000404200D10131DB43524200D1013300F070
:1024400005F8DB43524200D1013300BD002923D1FE
:10245000002B18D1002A0CD0BC460D4F38667A6686
:1024600000210023FFE7FFE7FFE77A6F386F674639
:102470007047002801D00748010000B504F02AFE8B
:102480000022002300BD02000B0000200021704745
:10249000000000D0FFFFFFFF002B00D0BFE0130CB7
:1024A00028D1002AE7D080B4114F39667A66FFE759
:1024B000FFE730B4040C7B6F396F1B0423433B668A
:1024C0007A66FFE7FFE7FFE7C04684B27B6F3D6FA8
:1024D0001B0423433B667A66FFE7FFE7C046002301
:1024E0002C042D0C7A6F386F00196941B0BC70470D
:1024F000000000D0F0B594460025140E01D1120260
:102500000835140F01D112010435940F01D1920046
:102510000235D40F01D152000135D40B0134254FBF
:102520007C66254C3C660E0C93B2FFE7FFE7FFE7A5
:102530003C6F6643360C7703BE467343DF0B5B0488
:10254000C01AB941130C7343DB18C91ACE0866438D
:10255000360CB64493B273431F0F1B01C01AB94126
:10256000130C73431F0B1B05C01AB941860D8F0254
:102570003E436643360C092D24DB520A7243801A0F
:102580007703460A6643360C16235B1BDE40DF40AA
:10259000BF1964466643821B70460435063301004A
:1025A000D940A840C01900D30131A24206D200236D
:1025B000F0BD0000000000D0FFFFFFFF121B013044
:1025C000F3D3F1E709277F1BFE406446A2B27243B2
:1025D000801A00D20139220C7243130C1204821AA1
:1025E00099410B007046043513370100F940A840AB
:1025F000801900D30131002B02D1A2420AD2F0BDD2
:10260000013000D30131121BFAD2013BF8D1A242B2
:1026100000D2F0BD013000D30131121BF7E7F0B555
:102620001C0C00D080E00CB400251C0A04D11B0255
:10263000160E3343120208351C0B04D11B01160F72
:102640003343120104359C0B04D19B00960F334396
:1026500092000235DC0B02D192185B4101351C005F
:10266000971864410134464F7C66464C3C660E0C1C
:10267000FFE7FFE7FFE7C0463C6F6643360C770392
:10268000BE4697B27743C01B00D20139C01B00D2AF
:1026900001399FB27743C91BC91B170C77437E04CE
:1026A000FF0B801BB941CE086643360C0C2D33DB83
:1026B000B644120B1F053A431B0B97B27743C01B5E
:1026C00000D201399FB27743C91B170C77433E04F0
:1026D0003F0C801BB941860D8F023E43664329277C
:1026E0007F1BFE400C3D7746AF40BF1930BCA2B205
:1026F000ABB272437343801A9941220C7243130C9C
:102700001204801A994102000B000137001BA941F5
:10271000F9D2781E0021F0BD0C277F1BFE407746C2
:102720007F0BAF40FF19E0E700245D1C07D0144F7A
:102730007D663966FFE7FFE7FFE7FFE73C6F95B28D
:102740009EB265436643401BB141150C1E0C6543A8
:10275000664336042F0C3E432D04401BB141994281
:1027600004D202000B0020000021F0BD01D19042F4
:10277000F7D3801A994101349942F2D3F6E7000069
:10278000000000D0FFFFFFFF48404140484018B420
:102790001B4B5B68FC46019308BD04DF632A0020E5
:1027A00018B4174B1B68FC46019308BD00DF6D2A67
:1027B00000209446134A926F920809D2624618B4D8
:1027C0000F4BDB68FC46019308BD0CDF252D002074
:1027D0000C4AF0B5146E556E576F166F6246FFF7D0
:1027E000EEFF084A1466556657671667F0BD18B4C1
:1027F000034B9B68FC46019308BD08DFC92B0020F2
:10280000D48B0020000000D0FFB550404240504023
:1028100059404B40594000E0FFB5154F4C00640D46
:1028200003D0BC4204D10C0314D80020090D0905C3
:102830005C00640D03D0BC4204D11C030AD8002202
:102840001B0D1B0501264B4009D44B4003D58B4281
:1028500000D18242FFBD9942FCD19042FFBD0B43A3
:10286000DB1803431343F5D0C9434918FFBD0000EB
:10287000FF07000000B5FFF7CFFF804100BDC04655
:1028800000B5FFF7C9FF01D9002000BD012000BD40
:1028900000B5FFF7B9FF01D9002000BD012000BD40
:1028A00000B5FFF7B1FF804100BD012040054A009F
:1028B000121804D85A00121801D8002070470120BD
:1028C000704700000021002805D17047C11748401B
:1028D000401AFAD0C90713B5064B1B6898470CBCC1
:1028E000441CA2401005120B0349091B090519439A
:1028F000114310BDD48C00201F04000010B54C0003
:10290000620D8023D218DB00D21A5B057E2A10DD0F
:102910009E3A13DACC170903490819435242D140B1
:10292000640001341532202A05DAD04008436043A0
:1029300010BD002010BD0846604310BDC80FC01870
:10294000013810BD18B4044B5B6AFC46019308BD06
:1029500024DFD52E00200000D48B002070B5132377
:102960001C78012C12D0012C12DC214B214A9364DB
:102970002148FFF77BFB214B186070BD1C491D4AA5
:102980009800815001331F2BF8D9ECE70023FAE7B8
:102990001B48FFF773FB05001A48FFF76FFB02386F
:1029A00003789B007F2B09DD12488022290000F06C
:1029B000AFFB022C08D0022CDADCD6E7124B134A0C
:1029C0001348332101F0A4FC124B1A88B5231B02D3
:1029D0009A4209D1104B1A88104B9A4204D1104BDD
:1029E0001A88104B9A42E6D00020FEF735F9C0460F
:1029F000292A0020D48B00204C330000D48C0020E6
:102A00005344000053460000DC7600200C7C00207C
:102A10002077002054380000D838000049460000D4
:102A20009C3800005946000007B56046002800D1D8
:102A300000BE01880A0A0230DF2AFAD1C9B2820830
:102A400004D3028840880004104300E00068024A72
:102A50005050039007BD0000D48B00200FB403BC7E
:102A60000CBCF0B50124E407634000E0F0B50C0DA8
:102A7000CF0F661E3605891B640503D3C943404248
:102A800000D30131640D03D0661CF60A07D0E41BA5
:102A900000207F00791C89078912803C24031D0DCA
:102AA000DF0F6E1E36059B1B6D0503D3DB435242C1
:102AB00000D301336D0D03D06E1CF60A07D0ED1B59
:102AC00000227F007B1C9B079B12803D2D032F1B48
:102AD000661B58D4A446202E46DA20371400BC408A
:102AE0001D00BD40F24033412A4380185941CB0FAD
:102AF00005D0C943C043002264425041514162465F
:102B00004D0D28D10D0D07D100281FD024194041AB
:102B10004941013A0D0DF9D0640006D3013000D3CC
:102B20000131002C01D140084000013A0BD4941C23
:102B3000E40A04D112051144DB071944F0BDD9079A
:102B4000204B194300E0D9070020F0BD0029DDD15A
:102B5000002CDBD1F0BD0132C6074008CD07284369
:102B60004908002EE1D0D9E73C2E29DA203E403733
:102B70001400BC4000D00124F24014431A00BB40B2
:102B80001C43D317ACE7AC46202F08DA20360400EC
:102B9000B4400D00B540F84039412843A5E73C2F2B
:102BA0000CDA203F40360400B44000D00124F84045
:102BB00004430800B1400C43C117EAE710001900B4
:102BC000002494E70000F07FF0B50C0D661E36057A
:102BD000891BE60A6405640D02D0651CED0A04D069
:102BE000002001210905803C2403A4461C0D671E1A
:102BF0003F05DB1BE70A6405640D02D0651CED0A86
:102C000004D0002201231B05803C24037740644448
:102C100097B484B296B27443070C7E43150C6F438D
:102C200080B26843361802D3012000043F183004F4
:102C3000350C00197D41844688B29AB250430C0C81
:102C400062431F0C7C438EB27E43921902D301264D
:102C50003604A4191604170C3618674101BC81B25A
:102C60009AB25143040C62431B0C5C4380B258433C
:102C7000121802D30120000424181004130C401869
:102C800063412D185E410020474106BC88B293B2D3
:102C900058430C0C6343120C544389B251435B18E4
:102CA00002D301210904641819041A0C091862419D
:102CB0006D1856410020474118BCF902720D1143AE
:102CC000F0026A0D1043ED020A0D03D16D19404167
:102CD0004941013B124E9B1B7600B3420ED26D0060
:102CE00007D30130002671416646354301D14008C3
:102CF00040001B05C918E4072144F0BD0BDA01337D
:102D000006D1013004D101314F0D01D04908F2E75D
:102D1000E1070020F0BD013631050020EBE700009F
:102D2000FF030000F0B51C0D671E3F05DB1BE70A23
:102D30006405640D02D0661CF60A04D0002201234B
:102D40001B05803C2403D0252D060026F6432E6665
:102D50001E096E66CE0FF619B44649004F0D02D01B
:102D60007E1CF60A03D000200021403F3F033E1B9B
:102D7000B600B444013F7F05C91B49082E6F0136D8
:102D800076089C02950D25437543ED137543AD13ED
:102D900001356D10F603761B0CB4CC02450D2C43A7
:102DA000A2B2B3B25A43270C7B43350C6F43A4B293
:102DB0006C431B1902D3012424043F191C041D0C6D
:102DC000A4187D4124196D41009A91B2ACB26143BF
:102DD000170C7C432B0C5F4392B25A43A41802D3C6
:102DE00001221204BF182204230C52187B41019CBB
:102DF0006C431B19520ED9010A434401A01A81B237
:102E0000B2B2514303145A43360C734387B277432B
:102E1000D617D21900277E4136049B191704160CC9
:102E20007F185E417316ED18F3010026803375415B
:102E3000A90F06D16400690AE8055B0A184309D2A4
:102E40002FE00422944480337541A90AA8059B0A07
:102E5000184326D3404149412404009A019B0D00A8
:102E60005543641B4343E41A95B286B27543170C6D
:102E70007E43030C5F4392B25A43B61802D3012239
:102E80001204BF183204330C52197B4152429C4148
:102E9000002C02D40022013051414008CA071043DF
:102EA000490802B06246D7079210084BD218084B67
:102EB0009A4203D212058918C919F0BD0020002AD0
:102EC00001DC3900F0BD01331905F5E7FD03000011
:102ED000FE070000002200B5203200F004F80800D0
:102EE00000BD000000220B150AD410B5944600F076
:102EF00031F81414013400DA0021CB17144C2047A8
:102F00000020002170476244343A0CD40C2A07DABE
:102F100004009140904052422032D440214310BDE1
:102F2000D843D94310BD203207D40C4694405242B6
:102F300020321141D040204310BD0800C917203273
:102F400003D452422032104110BD1800190010BDA8
:102F5000072F00200A0DCC0F531E1B05C91A52055E
:102F600003D3C943404200D30131520D03D0531C57
:102F7000DB0A07D0121B00206400611C890789123C
:102F8000803A1203014BD21A70470000FF03000081
:102F900051434343C9188C46110C83B24B4310B4C0
:102FA000040C614392B280B2504362431C041B0C78
:102FB000001910BC59411304120CC018514161444E
:102FC0007047000070B513231C782A48FFF756F8A5
:102FD0000500012C12D0012C0ADD2B00023B1B78CE
:102FE0009B007F2B40DD24488022290000F090F8D0
:102FF0002248FFF73BF8224B186070BD1E48542250
:10300000290000F085F81F4B1A881F4B9A421CD1EB
:10301000A7239B011A881D4B9A4216D11C4B1A8874
:103020001C4B9A4211D11C4B1A8894239B019A4243
:103030000BD11A4B1A881A4B9A4206D1194B1A68AF
:10304000194B9A4201D1152307E01848FDF704FEF9
:103050001749094A9800815001331F2BF8D9144BA6
:10306000054A1362D361B6E7124B134A1348422153
:1030700001F04EF953460000D88C00204C3300007C
:10308000D48C0020EE290000C40F0000C20D000007
:10309000962B0000C0B50000182B0000CC2A0000C1
:1030A00010B50000FC2C000051ED87645078002022
:1030B000C130002078770020207C0020AC770020F1
:1030C00007B56046002800D100BE01880A0A023018
:1030D000DF2AFAD1C9B2820804D3028840880004EA
:1030E000104300E00068024A5050039007BD000002
:1030F000D88C002001480421014B1847907F002004
:103100008D200020014B1B6818470000907F002095
:10311000014B5B6818470000907F0020704710B596
:10312000002802D00B684968984710BD01000020B4
:1031300007E083001B185B00501C08601078C01863
:1031400030380A681378303BDBB2092BF1D970476D
:10315000F0B5D6464F464646C0B505000E001000F5
:1031600091461F00099C0B9B0222110019408A46C0
:103170001A4234D1DB0716D50200B84637002E00BC
:103180001FE0551C330041462020B84701342A0077
:103190000A9B9C42F5D33D0037004646099CB84641
:1031A00037002E000DE00200B0463E002F000994CB
:1031B000EEE7013C551C089B185D43463900B047BB
:1031C0002A00002CF5D135003E0047465346002B1F
:1031D00016D11000E0BCBA46B146A846F0BD0200C8
:1031E000B84637002E00ECE7541C3300290020209D
:1031F000B84722004B46D31A0A998B42F4D3E8E72A
:103200003B002F0035001E00F4E7F0B5CE464746E0
:1032100080B585B006000F00904699460C9A0D9B2C
:103220000EA909788C46109D119C129988071CD410
:10323000002C0CD0C8070AD56046002802D10C30FB
:10324000084204D0013C02E03020D0540133AB42AC
:1032500001D21F2BF8D9C80707D5A34205D21F2BCF
:1032600003D83020D0540133F5E7C80612D54805FD
:1032700005D4002B03D0AB4223D0A34221D00F981A
:10328000102831D00F98022838D01F2B0AD83020B0
:10329000D05401331F2B05D86046002834D02D2090
:1032A000D054013303910294019300924B4642465D
:1032B00039003000FFF74CFF05B0C0BCB946B0463E
:1032C000F0BD581E012B17D00F9D102D0BD0030001
:1032D0000F981028D6D18806D4D51F2BD2D85820C5
:1032E000D0540133D1E7023B8806F1D41F2BEFD82D
:1032F0007820D0540133C8E70300C0E71F2BD1D892
:103300006030D0540133C0E7480703D52B20D05498
:103310000133C7E70807C5D52020D0540133C1E7E2
:10332000F0B5DE4657464E464546E0B593B080467A
:10333000894692469B461CAB10CB1B7809931E9D79
:10334000002C03D11023219A9A4321928023DB0081
:10335000219E1E40219A1A4218D0002C22D000260D
:1033600014E0219A92061BD54121C918C9B20A3925
:10337000C9B2771C0AAB995529002000FEF7CCFF93
:10338000AC4210D31F2F0ED83E00040029002000AD
:10339000FEF7C2FFCBB2092BE3D83033D9B2E8E74E
:1033A0006121E2E72700219B0693209B05931F9B49
:1033B00004930395099B029301970AAB00935B4624
:1033C000524649464046FFF720FF13B0F0BCBB46CB
:1033D000B246A946A046F0BDF0B5DE4657464E4679
:1033E0004546E0B595B08346089109920A931E9B25
:1033F00099461F9F20AB1B780B93229B9846239CDA
:103400004B463B4303D11033269A9A43269280239E
:10341000DB00269D1D40269A1A4208D04B463B43AE
:1034200039D000254E4623002C001D001FE04E46DB
:1034300023002C001D001AE0269A920623D5412273
:10344000D218D2B20A3AD2B2631C9A460CAB1A55C1
:1034500042462B0030003900FEF79CFFBD421CD8CD
:1034600013D053461F2B14D8544606000F00424673
:103470002B0030003900FEF78DFFD3B2092BDBD8CB
:103480003033DAB2E0E76122DAE7B045E9D95646EF
:1034900004E0564602E0002600E05646269B0693CE
:1034A000259B0593249B0493434603930B9B029314
:1034B00001960CAB00930A9B099A08995846FFF7AE
:1034C000A4FE15B0F0BCBB46B246A946A046F0BD6E
:1034D000F0B5DE4657464E464546E0B595B0040089
:1034E0008A46934699461E9E1F9F32003B0030003D
:1034F0003900FFF7DAF9002800D0FBE00122524240
:10350000D64B30003900FFF7CBF9002800D0F1E0AE
:1035100001225242D24B30003900FFF7ABF90028AC
:1035200000D0E7E00022002330003900FFF7A2F9C5
:10353000002800D0F3E0069607978023DB00229A4C
:103540001A401192229A1A4201D10623209306981A
:10355000079902000B000A920B9303000A00024332
:1035600000D1E8E0080D4005400DBE4DAC4660447A
:10357000050007980203120B002000210890099112
:103580000893B94B134309932800FFF79FF9B74AF3
:10359000B74BFFF72CF9B74AB74BFFF701F90A9081
:1035A0000B910022B54B08980999FFF7F0F8B44A3F
:1035B000B44BFFF71CF902000B000A980B99FFF7B8
:1035C000EFF8FFF79BF980460890FFF77FF9AE4AC6
:1035D000AE4B0A900B91FFF70AF90022AC4BFFF7B4
:1035E000DFF8FFF78BF90500AA4AAB4B0A980B9955
:1035F000FFF7FDF80A900B912800FFF767F9A74A3B
:10360000A74BFFF7F4F802000B000A980B99FFF79D
:10361000BEF802000B000A900B91FFF7E8F80E903D
:103620000F912B009F4DAC466344002100220C916A
:103630000D921B050D9300230C930A980B99020021
:103640000B00FFF7ADF8129013910A9A0B9B002024
:103650008021C905FFF79BF80A900B910022924B3D
:103660000E980F99FFF7A5F80022904BFFF798F8F6
:1036700002000B000E980F99FFF79BF800228C4B6D
:10368000FFF78EF802000B000E980F99FFF791F8E4
:1036900002000B000A980B99FFF782F802000B005A
:1036A00012981399FFF785F800226F4BFFF778F80F
:1036B0000C9A0D9BFFF79BF802000B000A920B93EC
:1036C000069A079B0C900D91FFF7EAF800280AD0A4
:1036D0004346013B08930022744B0C980D99FFF769
:1036E00068F80A900B91089B6333C62B49D80423D2
:1036F0001D0024E0229B0493219B0393209B0293B3
:10370000009601974B465A465146200000F004F9B6
:1037100015B0F0BCBB46B246A946A046F0BD00219C
:10372000002206910792069680231B069C46BC4405
:103730006346079301E70023089304331D00229B8F
:103740001B052BD50A9A0B9B1900114311D0594A1E
:10375000594B06980799FFF79BF8002800D1B1E074
:103760000022564B06980799FFF784F8002800D1ED
:10377000A8E0209A089B9A4206DDD31A013B2093C9
:1037800004E005231D00DAE7002320938023DB00FB
:10379000229A1A43229200231D000893219A9542EF
:1037A00000D39BE0531B98460223229A1A400C92A6
:1037B000229A134203D0002D01D000239846089B83
:1037C000002B07D00A9A0B9B06980799FEF7F1FF8A
:1037D000069007910022002330003900FFF74AF8D5
:1037E000002800D07DE0364B229A134004934346D4
:1037F0000393209B0293069A079B009201934B46EA
:103800005A465146200000F087F8002D00D17FE78E
:10381000229B9B0671D54527461C4B46020051460C
:103820003800A0470898C317C2185A4005230593CB
:10383000013D0495002303930A330293C30F0193C0
:1038400000924B46320051462000FFF769FD0C9B69
:10385000002B00D15CE70200219F56E0FFFFEF7FC5
:10386000FFFFEFFF01FCFFFF0000F03FFB799F50DF
:103870001344D33FB3C8608B288AC63F0000F83F8B
:1038800061436F63A787D23F71A379094F930A40C1
:103890000000E03F1655B5BBB16B0240EF39FAFEB0
:1038A000422EE63FFF03000000002C4000002440B1
:1038B000000018402D431CEBE2361A3F80842E4155
:1038C000FFF7FFFF209B002B00D167E7119B002B28
:1038D00000D163E7209B013B20935FE700239846DC
:1038E00062E7069E079F320039008020000684466A
:1038F00061440B000692079375E765278CE7561C19
:103900004B4651462020A04732005B46D31ABB42AB
:10391000F5D31000FCE6C046F0B5DE4657464E46ED
:103920004546E0B595B081468A4693460A93209F66
:103930001E9A1F9B10001900FEF7B7FF002831D117
:1039400001225242BA4B1E981F99FEF793FF00289E
:1039500037D101225242B74B1E981F99FEF7A0FFA4
:1039600000283DD10022B44B1E981F99FEF798FF06
:1039700000284AD10022B14B1E981F99FEF77AFF0A
:10398000002842D1002200231E981F99FEF772FFE3
:1039900000284AD100230B93229B5B0500D4AFE0A3
:1039A000002452E0229B0393219B02930323019363
:1039B000A34B00930A9B5A4651464846FFF7C8FB63
:1039C0001FE1229B0393219B0293042301939D4BB0
:1039D00000930A9B5A4651464846FFF7B9FB10E14F
:1039E000229B5B070ED5984B0422229903912199C3
:1039F0000291019200930A9B5A4651464846FFF7AE
:103A0000A7FBFEE0914B0322EFE7229B0493219B4F
:103A1000039302971E9B1F9C009301940A9B5A4696
:103A200051464846FFF754FDEBE01E9A1F9B0020CD
:103A30000021FEF7ACFE1E901F9101230B93ABE714
:103A40000CAB30221A55013F01341F2C01D8092F2D
:103A5000F6D81E981F99FEF751FF0500FEF736FFB6
:103A600002000B001E981F99FEF791FE784BFA009A
:103A70009B180CCB08920993FEF7B9FE06900791AC
:103A8000FEF760FF0600FEF71DFF02000B00069820
:103A90000799FEF77CFE0690079100226D4BFEF71A
:103AA000FFFE00282ED001363000FEF70BFF02008B
:103AB0000B0008980999FEF7E3FE002801D00135B4
:103AC0000026002F2CD12800FEF700FF02000B007B
:103AD0001E981F99FEF75BFE06000F0000225D4B4B
:103AE000FEF7C8FE002846D100225A4B30003900AC
:103AF000FEF7D6FE00283ED1EB073CD501353AE073
:103B000006274DE70022534B06980799FEF7B2FEB1
:103B10000028D6D1002E01D0F307D2D50136D0E748
:103B2000A8461F2C11D8013F0A213000FEF7F4FBF4
:103B3000651C30310CAB19550A213000FEF7ECFB47
:103B4000092E0ED906002C00EBE745461F2C0CD899
:103B50007B1E002F09D00CAA302111551F00013403
:103B6000F4E72B0045461C00F0E71F2C03D80CABF4
:103B70002E221A5501341F2C10D80A212800FEF7D6
:103B8000A3FB661C30310CAB19550A212800FEF747
:103B90009BFB051E01D03400EDE73400229B9B0700
:103BA00019D4229BDB0716D5219B002B0ED00B9B33
:103BB000002B03D10C33229A134207D0219B013BE7
:103BC000219303E00CAB30221A550134219B9C4217
:103BD00001D21F2CF6D91F2C06D80B9B002B17D017
:103BE0000CAB2D221A550134229B0393219B029387
:103BF00001940CAB00930A9B5A4651464846FFF786
:103C0000A7FA15B0F0BCBB46B246A946A046F0BD27
:103C1000229B5B0704D50CAB2B221A550134E3E73A
:103C2000229B1B07E0D50CAB20221A550134DBE7A1
:103C3000FFFFEFFFFFFFEF7F65CDCD4165CDCDC12C
:103C4000387800203C7800202C7800203478002040
:103C5000507C00200000E03FF0B5DE4657464E465F
:103C60004546E0B593B083468A46904611930029B5
:103C700000D11AE300255E46119B1878002800D178
:103C800016E3252809D06C1C43462A005146B0474C
:103C9000119B013311932500EEE7013311930027A7
:103CA00012E0202A25D0232A05D110221743013300
:103CB0001193012406E0002404E00222174301339B
:103CC00011930124002C1CD0119B1A782B2A0AD0A6
:103CD000E7D92D2AF1D0302A11D12F3A17430133D9
:103CE00011930124EEE704221743013311930124B9
:103CF000E8E708221743013311930124E2E7002487
:103D0000E0E7119B1A781300303BDBB2092B15D981
:103D10002A2A18D00B94119B1A782E2A23D0119B93
:103D20001A786C2A47D03CD9742A62D07A2A65D195
:103D3000802252001743013311935FE011A8FFF76F
:103D4000F5F90B90E7E71C9B1A1D1C921B68002BD2
:103D500004DB0B93119B01331193DCE70222174321
:103D60005B420B93F6E78022D20017435A1C119254
:103D70005A781300303BDBB2092B0BD92A2ACED15B
:103D80001C9B1A1D1C921C68002C08DB119B013324
:103D90001193C4E711A8FFF7C9F90400BFE7002495
:103DA000F4E7682A17D06A2A28D1802292001743A4
:103DB0000133119322E0802252003A43591C1191A1
:103DC00059786C2901D0170018E0C02292001743DF
:103DD0000233119312E080223A43591C1191597811
:103DE000682901D0170009E0C0221743023311935C
:103DF00004E080225200174301331193119B18787D
:103E0000652840D077D8462800D18BE01BD963289D
:103E100031D102231A003A4091463B4200D1B0E131
:103E200001241C9B1A1D1C926F1C187843462A0003
:103E30005146B0474B46002B00D0A6E1119B013301
:103E400011933D0018E7252809D16C1C43462A0030
:103E50005146B047119B0133119325000CE74528CB
:103E600011D06C1C43462A005146B047119B0133C8
:103E70001193250000E763282BD858282BD06228FF
:103E800029D04728EDD1672801D0472802D18023C7
:103E90001B011F43452801D0472801D120231F4380
:103EA0001C9B0733072293431A0008321C92049785
:103EB0000B9A039202940CCB0092019343462A0082
:103EC00051463000FFF704FB0500119B01331193AD
:103ED000D2E66428C5D178284DD0582800D17CE09E
:103EE0006F2800D17CE0622800D17CE010239F4342
:103EF000063B9C4641E0702800D1BCE10DD97328F7
:103F000031D11C9B1A1D1C921B689B46002C00D0B3
:103F10006EE1012252425B464AE16728B3D01DD8C8
:103F200066289ED1462800D11CE11C9B073307223E
:103F300093431A0008321C9204970B9A039202943E
:103F40000CCB0092019343462A0051463000FFF704
:103F5000E3FC0500119B013311938DE66928BAD06B
:103F60006F28B8D07DE7732800D27AE77528B2D0E1
:103F70007828B0D075E710239C46582836D0692899
:103F800003D0642801D00C2297437A0501D5012281
:103F9000974369282DD064282BD0BA0500D5A3E01B
:103FA000FA0500D5BBE07A0600D4CDE01C9A111DBD
:103FB0001C911168FF220A4005970B9B0493039400
:103FC0006346029300230193009243462A00514620
:103FD0003000FFF7A5F905002AE010239C46CCE746
:103FE00008239C46C9E702239C46C6E720221743C4
:103FF000C5E7BA0520D4FA0551D47A0667D51C9ACC
:10400000111D1C911168FF220A40D0171118414060
:1040100005970B9B0493039463460293D20F01927E
:10402000009143462A0051463000FFF779F9050018
:10403000119B013311931FE61C9A073207218A4313
:10404000110008311C91116853689946DB170C93D5
:104050000D930C9A0D9B100048400E900D9B494605
:104060004B400F930E980F990C9A0D9B801A994113
:104070000E900F9108970B9B079306946346049349
:10408000002305934B46DA0F0292009001914346BC
:104090002A0051463000FFF79FF90500C8E71C9A37
:1040A000111D1C911268D0171118414005970B9BE8
:1040B0000493039463460293D20F01920091434606
:1040C0002A0051463000FFF72BF90500B0E73A0609
:1040D00005D51C9A111D1C910023D25E95E71C9AF0
:1040E000111D1C91126890E71C9A073207218A4320
:1040F000110008311C9108970B9B079306946346A7
:1041000004930023059302930CCA00920193434643
:104110002A0051463000FFF75FF9050088E71C9A36
:10412000111D1C9105970B9B049303946346029306
:10413000002301931368009343462A005146300040
:10414000FFF7EEF8050073E73A0606D51C9A111D35
:104150001C9112681204120C2EE71C9A111D1C915E
:10416000126829E720231F43DFE6571C43465146C8
:104170002020B04723003A005C1C9D42F5D8150072
:104180004FE601232A000B9DF6E73A00B1460B9E4D
:1041900006E0571C434651462020C8472C003A00F1
:1041A000651CA642F5D817004E4647E601330A00C3
:1041B0001978002902D0511E002AF7D15A469B1ABD
:1041C0008022D200390011408946174202D0A34212
:1041D00000D9230002221100394010913A4209D03F
:1041E0002A0025005F469B4633004E46994621E053
:1041F000220090E62A005546A24606E0541C43469B
:1042000029002020B0473B0022005F1C0B999942F7
:10421000F4D85446AA463B0025005F469B4633002F
:104220004E46994606E01D000137541C4346514650
:10423000C84722003878002804D0002EF4D06B1E26
:10424000002DF0D115005B464E46109A002A03D18E
:10425000119B013311930FE52A000B9F06E0551CBB
:10426000434651462020B04723002A005C1C9F4251
:10427000F5D81500ECE721233B431C9A111D1C9136
:1042800012680593082304930394083302930023D0
:104290000193009243462A0051463000FFF740F850
:1042A0000500119B01331193E6E40B4B9B46E1E4BF
:1042B000B34645450DD343465A1E4346514600205A
:1042C000D847280013B0F0BCBB46B246A946A0466A
:1042D000F0BD2A00F1E7C0461D31002000B585B0D1
:1042E0008C4602A90290604648600120844604483A
:1042F0000093130062465242FFF7AEFC05B000BDCA
:104300001F31002000BEFDE710B5FFF7FBFF0000E6
:1043100010B582B084460C001900002A0AD0074B61
:104320000748019200932300624600F05FF90120E4
:10433000FFF7E8FF034B1A00F2E7C046447800207D
:10434000547800205078002010B5EFF30583002B3F
:1043500000D000BEFDF7ECFE034C01E008CC98470E
:10436000024B9C42FAD310BD188000201C80002014
:1043700010B50300080011001B68984710BD00002D
:10438000F8B507000D001600437D002B02D0002475
:1043900000200CE003681100280098472BE03B7DCB
:1043A0000FE03B68144802219847601C0134B44276
:1043B00013DA002CF3DD631EEB5C0D3B5A425341D4
:1043C000DBB22A5D0A2AF1D1002BEFD1A042E8DA54
:1043D0003B68211A28189847E3E7B04203DA3B68A4
:1043E000311A28189847002E05DD013EAB5D0D3BC4
:1043F0005A4253413B75F8BDA07C002070B50500C2
:104400000368002B16D00C4B1C6805E0290004C97A
:104410002000FFF7B5FF2469002C09D02368002B8A
:10442000F9D0064B1B68002BF0D0A342F3D1EDE787
:1044300000232B6070BDC046A0870020A887002005
:1044400070B505000C000B68802B05D023685A1C42
:104450002260E418257170BD0800FFF7CFFFF5E773
:1044600010B5FDF79DFB074A002312184B41002BA6
:1044700003DB0548FBF712FF10BD01225242034B3C
:10448000F7E7C04640420F00D87F0020FFFFFF7FC4
:1044900010B50248FBF73AFF10BDC046D87F002098
:1044A000F0B5CE46474680B583B080460D00160075
:1044B0001C00FFF7D5FF81466B1C05D0002C08D0EF
:1044C000184F194B1C6807E0404602F005FE050036
:1044D000F4E7164FF5E72469002C16D02368002B6B
:1044E000F9D0134B1B68002B01D0A342F3D12A0053
:1044F00041462000B847002EEDD06B46D91D0A2357
:104500000B7001222000B847E5E74B46002B05D190
:10451000280003B0C0BCB946B046F0BDFFF7B8FFF5
:10452000F6E7C04681430020A087002071430020A9
:10453000A88700200A4A136802E01A0010321B699B
:10454000002B09D013688342F7D1002907D10369F2
:1045500013600023036102E0002900D0106070475F
:10456000A087002010B5064B1C6800E02469002CD1
:1045700004D06368002BF9D09847F7E710BDC04618
:10458000A087002010B500F0CFF910BD70B5050070
:1045900002F0A2FD04000123012201002800FFF720
:1045A0007FFFFFF7DFFF200070BD0000F0B5A3B074
:1045B00007000E00FFF754FF050001AC0023019334
:1045C000094833003A002100FFF788FE060020006A
:1045D000FFF714FFFFF7C6FF002D02D1300023B014
:1045E000F0BDFFF755FFF9E7414400200FB400B5D7
:1045F00083B004A901C90191FFF7D8FF03B008BC3B
:1046000004B0184770470000014B00221A70704731
:10461000FD8D00204B79FF2B0CD18B79002B0BD11A
:10462000CB79012B0AD1082A0AD98A78054B1A704E
:10463000092000E0002070470020FCE70020FAE796
:104640000020F8E7FD8D00200120704710B50129FA
:1046500027D1117953791B020B43134909788B42F7
:1046600001D000201EE05378012B03D0022B11D083
:10467000002017E09178D3781B021943DB0506D59B
:10468000480A8A05D20F7F231940FDF71BFD012040
:104690004042F6E7642200210020FDF7BBFC012028
:1046A00000E0012010BDC046FD8D0020004870478D
:1046B0006C7D002010B504001000012911D1537841
:1046C000012B10D1127943791B021343072B01D020
:1046D000002007E0054A9F330100200001F0C4FAE2
:1046E00000E0012010BD0020FCE7C046C47C002093
:1046F0000123037000487047A47C002010B50A789D
:104700004B781B0213438A7812041A43CB781B069A
:1047100013439622D200934200D010BD0120002204
:1047200011004042FDF7CEFC024B1860024B1960AD
:104730007047C046408700204487002010B5FDF731
:104740002FFA0E4A002312184B41002B12DB0C48A3
:10475000FBF7A4FD00280CD001200021404201F00D
:1047600051F9002001F0B6FB0028F5D10448FBF711
:10477000CDFD10BD01225242024BE8E740420F003E
:10478000DC8D0020FFFFFF7F10B5024B1878FCF78F
:1047900089FB10BDFE8D002070B51A4B1B68002BE5
:1047A00024D0EFF3108272B6100019680029FCD0F3
:1047B000BFF35F8F13494A60134B00221A700B68D6
:1047C000BFF35F8F1A6080F310880022002314006B
:1047D0001D000E4B1878FCF741FB00280CD100227D
:1047E000002314001D002000290070BDFA22920051
:1047F000002314001D00ECE7044B1878FCF752FB73
:10480000F1E7C046B48B0020FF8D0020FE8D002014
:10481000F0B585B0070015001E000CAB1C78FDF745
:10482000BFF92A00330012184B41002B09DB029418
:104830000B9901910A9900913800FCF7D1FF05B05E
:10484000F0BD01225242014BF1E7C046FFFFFF7F5E
:10485000F0B5C64600B584B080460F0016001D00B6
:104860000AAB1C78FCF754FF02940195009642466F
:104870003B00FFF7CDFF04B080BCB846F0BD0000A0
:1048800010B582B022480021FBF7A4FC00281ED1FD
:10489000204B1B68002B18D0EFF3108172B6080074
:1048A0001A68002AFCD0BFF35F8F1A4A51601A4978
:1048B0000B78DBB201240C701268BFF35F8F00210C
:1048C000116080F31088002B17D002B010BD0120BA
:1048D0000021404201F096F8002001F0D3FA0400D4
:1048E0000B48FBF713FD002CEFD00C4B1B68002B83
:1048F000EBD00B4A10689847E7E70A4A0133009368
:104900000023FA2080000021FFF7A2FFDDE7C04668
:10491000DC8D0020B48B0020FF8D0020408700201C
:10492000448700209947002010B582B0D0231B0691
:104930001C68FCF7EDFEFCF7CFFFA04230D1274BFF
:104940001B780021002001F043FF254B1B68002B42
:104950002CD00120FCF776FC224C20702249FF234A
:104960001840FCF7BDFA20780121FCF791FA0520E8
:10497000FCF7A8FA041E1DD00120FCF7EDF9010098
:104980001A4B1800FCF7BCFC194900220520FCF763
:10499000D1FA18480121FFF7CDFD200002B010BD6B
:1049A000154B164A1648C621FFF7B2FC0C48FCF717
:1049B00065FCCEE70D4808220021FEF7A3FB114A53
:1049C000012300930023FA2080000021FFF740FF1D
:1049D000C043C40F0028E0DADBE7C046007F0020B8
:1049E000DC8D0020FE8D002081480020B48B00204B
:1049F00089470020A07F0020847800209C7D002033
:104A00008C7800209947002010B5002001F020FA92
:104A100010BD000070B504000D00FFF7F5FF002881
:104A200036D0002001F02EFA002835D0FDF7B8F876
:104A30001D4A002312184B41002B1ADB1B48FBF7C1
:104A40002DFC00282CD0FFF7DFFF002804D0002029
:104A500001F018FA002810D101200021404200F096
:104A6000D1FF03235B421C001048FBF74FFC2000E2
:104A700070BD012252420E4BE0E72A0021000020C7
:104A800001F00CFA041EEFD103235B421C00EBE79C
:104A900003235B421C00EAE703235B421C00E6E7BA
:104AA00003235B421C00E2E740420F00DC8D002044
:104AB000FFFFFF7FF0B583B005000C00FDF770F835
:104AC000314A002312184B41002B06DB2F48FBF71D
:104AD000E5FB002805D103B0F0BD012252422C4B6A
:104AE000F4E7FFF791FF00284BD12A4B002000216B
:104AF000186059602548FBF709FCECE7012000210C
:104B0000404200F07FFF002001F0E4F9FFF77CFF56
:104B10000028EFD0002001F04BFA00281FD0A64259
:104B2000E8DAA71B002001F043FA0200874200DC0C
:104B30003A00002AE2D0A919002001F015FA070076
:104B400001200021404200F05DFF002001F0C2F989
:104B5000F619FDF725F80F4B18605960DFE7FDF7F0
:104B60001FF801900F000B4B186859680A4A002380
:104B700012184B419F42BDD8D1D101999142CED953
:104B8000B8E70026CBE7C04640420F00DC8D00208E
:104B9000FFFFFF7FA081002020A107000048704791
:104BA000187E002000487047C47D002010B5040026
:104BB000154B1B78002B0ED0002C11D1134B144A2F
:104BC0005A80012301335B009BB21048C02292003F
:104BD0001343038010BD0C48112100F029F8EBE7C6
:104BE000052C0ED80B4BA400E4580023122BE9D857
:104BF000E15C0029E6D00133044A58008152DBB25F
:104C0000F4E70020E6E7C046E88D00207887002022
:104C100009040000AC7D0020002303E0034AEE21DC
:104C2000D1540133072BF9DD7047C046CC8B0020EF
:104C300010B50C1E01D0002308E00F4B0F4A10489E
:104C40003B21FFF765FB3732C2540133621E9A42A3
:104C50000ED90F2B0CD85A080A49895C01229A43B5
:104C6000920011410F220A40092AECDC3032EBE7B6
:104C7000C0180023037010BD1C7900202C7E00207A
:104C800024790020CC8B002030B583B004000D00C7
:104C900094467F230340C2092948590089184901D5
:104CA000401884705142514141700021C170058308
:104CB0006146C176012A1ED0DC0022498C4664443C
:104CC0001F4958008018400109188C601C49580081
:104CD000801840010918896800200860002B15D150
:104CE00017495B009B185B01CB1800225A60164ADB
:104CF000DA6003B030BDDC0014498C4664441049CE
:104D000058008018400109188C60DFE7012A0BD099
:104D1000581EC0000E498C46604409495B009B1830
:104D20005B01C9184860E4E7581EC00009498C4679
:104D3000604403495B009B185B01C9184860D8E7D1
:104D4000AC870020840010500001105080001050EB
:104D50000C0010500800105010B5038B3F339B0916
:104D60009901C27E022A08D0084A1368C3605B1802
:104D70001360074A934202D810BDD901F4E7054BEE
:104D8000054A06485221FFF7C3FAC046B08B0020FF
:104D9000FF0F1050747900207C7E0020B87900202D
:104DA000F8B57F240440C50963005B195B010F4E11
:104DB000B44663441E00FFF767FF002C00D1F8BD26
:104DC0000A4B6400641964011C19218B3000FFF741
:104DD000C3FFE37E9B06E168054A4A4013438022F5
:104DE0001206134362681360E9E7C046AC870020EF
:104DF0000000105010B503007F201840DB099C46CE
:104E0000400060444001024BC01800F02FF910BD73
:104E1000AC87002010B5002804D101210520FCF743
:104E200037F810BD034B044A98210448FF31FFF7BF
:104E30006FFAC046287A00206C7E0020B8790020E6
:104E400010B5002805D1002200218020FFF7D2FFF5
:104E500010BD034B034AA2210348FF31FFF758FA64
:104E6000287A00205C7E0020B8790020024B802246
:104E70005202DA647047C0460020115070B5041E1B
:104E800027D100F0D1F8164D0C23AB671549FF224E
:104E90000520FCF74FF8144840220021FEF732F9B4
:104EA000002240210020FFF77BFF002240218020CC
:104EB000FFF776FFFBF750FA01232B6480239B0555
:104EC000EB649023094AEA502000FFF7CFFF01204E
:104ED00070BD074B074A64210748FF31FFF718FAF6
:104EE0000000115035040020AC87002010D00100D4
:104EF000287A0020907E0020B8790020044B197099
:104F0000002904D0034A902380218902D1507047A0
:104F1000FA8D0020002011500B78DA0605D16022AE
:104F20001A4202D14B78052B00D070478A78CB7893
:104F30001B021343FF221340014A1360F5E7C046EA
:104F40000000115010B5CA789207920F012A0AD0BA
:104F500088780B794979090219434905490DFFF70A
:104F60001FFF012010BD0020FCE710B5FBF7F4F98E
:104F700010BD000010B58446080011001A006346F9
:104F8000002B03D1FFF736FF012010BD034B044A6D
:104F9000812104488900FFF7BBF9C046287A002028
:104FA0004C7E0020B879002010B57F2318000840FF
:104FB0000B4205D1CB09012B0ED00222074B9A667A
:104FC000C909400040184001054BC0188022120159
:104FD0000021FBF7E7FB10BD0122EFE70020115095
:104FE000AC87002010B57F22100008400A4200D193
:104FF00010BDC909400040184001044BC0180023EF
:10500000C37000220249FBF7CDFBF1E7AC8700201B
:10501000FFF7FFFF04E00A780270013101301A0047
:10502000531E002AF7D1704710B580235B040A4A4B
:1050300013600A4A13600A4B1A6880235B04934387
:10504000F9D18022520100210648FEF75BF8064B99
:1050500009225A6710BDC04600E0004000F0004041
:1050600008C00040000010500000115070B504004E
:105070000D001600837E002B17D1A6820023E38249
:105080000133A37625612000FBF708FB002804D03C
:10509000094A902380218902D1502000FBF714FB9C
:1050A000002805D00123237770BDFBF775FBE4E7EB
:1050B0002000FBF79DFBF7E70020115070B50500BD
:1050C000002408E09B1A5B01134A9B18DB68280048
:1050D00098470134E4B2114B1A782300511CA142C5
:1050E00008DBA242EED90E4B1B6862019B18002B15
:1050F000ECD110E00B4C542200212000FEF702F806
:10510000201D1022FF21FDF7FDFF2000143020227A
:10511000FF21FDF7F7FF70BDAC7E0020F98D002068
:10512000A88100205883002010B5FFF7C7FF00F0CA
:10513000CDFD10BD70B506000C001500486900F0EB
:10514000CFFD63692A0001213000984770BD00003F
:10515000F0B5DE4657464E464546E0B583B082463A
:105160000139C8B2FFF71EFD002800D189E043785D
:105170009946022B00D083E0C5796C110122474B80
:105180001440240119781026B14321431970AD1140
:105190002A405201C9B22024A1430A431A700600D2
:1051A00009368278C3781B021343C3189B464B46CB
:1051B0000093370051E0FB7899463A78BF1853E0E6
:1051C000341B6401364BE41823693A0041465046CB
:1051D0009847082801D9874211D20135EDB2314BE9
:1051E0001C782E00621CAA4231DBAC42E8D92E4B5F
:1051F0001C686A01A418002CE6D1002041E0474653
:1052000001904B46012B11D000204946814214D910
:10521000BB781B18DBB2214AD2181279FF2A39D188
:105220001E4AD3181D710130C0B2EFE721691F4A31
:105230009142E9D1009B9946E6E71D482B00019C6D
:105240002200390001F074FBA446674400E04746A1
:10525000144B1B7801339E421EDC5F450ED27B78D7
:105260000B2BA8D0012399467A78042A10D15B46EB
:10527000DA1B93B20025B8461F00B0E7012000E01A
:10528000002003B0F0BCBB46B246A946A046F0BD24
:105290000020F6E70020F4E70020F2E75883002022
:1052A000AC7E0020F98D0020A8810020296100201B
:1052B0006C830020704770470020704700207047C3
:1052C00070B505000C008878CB781B021A0A130011
:1052D000062A48D011D8022A22D0032A35D0012A22
:1052E00009D1FFF75BFC021E47D0122321002800E2
:1052F00000F0BAFC22E0002020E0072A10D00F2A9C
:105300000CD1FFF7D3F9021E39D08178C3781B0284
:105310000B432100280000F0A7FC0FE000200DE067
:10532000022B0CD0FFF7CAFF021E2AD09178D37847
:105330001B020B432100280000F096FC70BDFFF714
:1053400031FC021EF2D10020F8E70B7949790902FD
:105350001943FFF72BFC021E15D00378210028000B
:1053600000F082FCEAE7FFF7A7FF021E0DD00378EA
:105370002100280000F078FCE0E70020DEE70020B4
:10538000DCE70020DAE70020D8E70020D6E7704706
:105390007047704770470000024B5878431E984191
:1053A000C0B2704758830020024B18784007C00FE6
:1053B0007047C04658830020034B1878FF38431EBF
:1053C0009841C0B27047C046D47F0020F8B50600AF
:1053D0000C000F00FFF7F0FF051E44D1002C42D057
:1053E000244854220021FDF78DFE234B00221A7021
:1053F000224C2000FBF742FF214B1C60214C200077
:10540000FBF788FF143C200001F022FE1E4B1C60BD
:105410001E4B002B04D01E48FFF76AF91D4B186085
:10542000002409E09B1A5B011B4A9B185B68002B58
:1054300019D098470134E4B2154B1A782300511C57
:10544000A14208DBA242EDD9124B1B6862019B18F6
:10545000002BEBD107E0114B1E7039003000FFF735
:105460000DFD051E01D12800F8BD3000FFF7D2FC6C
:10547000F9E7C04658830020FB8D002050830020B0
:10548000AC830020CC7F0020B0830020F1460020B8
:10549000F98D0020A8810020AC7E0020D47F002060
:1054A00070B50800094B1C780D008B7870221A42E9
:1054B00001D0002070BD064B997801F0FDF900285D
:1054C000F8D029002000FFF73DFDF3E7D47F00204E
:1054D00058830020F0B5C64600B580460C00160083
:1054E0001F00002504E0079A13702378E4180135A3
:1054F000AE4214DD6378052B15D1E1788907890F59
:10550000B94212D121004046FFF7CAFF002807D058
:10551000A378DA09012AE6D0069A1370E5E701209C
:1055200080BCB846F0BD0020FAE70020F8E7000094
:1055300010B57F200840C909400040183030044BA6
:10554000C0180430034B196801F06AF910BDC04659
:1055500058830020AC83002010B57F200840C90983
:10556000400040183030044BC0180430034B196819
:1055700001F081F910BDC04658830020AC830020A3
:10558000F8B5CE46474680B51F001A4B18787F24E1
:105590000C40CD09184B66009B195B1930331B7901
:1055A000DB0704D50020C0BCB946B046F8BD124B9D
:1055B0009B195B193026B14699444B461B7901264D
:1055C000B446664633431E004B461E713B00FFF750
:1055D000D1FC0028E7D1084B64001B195B1930335C
:1055E0001A7901218A431A711A7903318A431A718F
:1055F000D9E7C046D47F00205883002070B50A4BFD
:1056000018787F240C40CD09FFF7CEFC074A6400D0
:1056100013195B1930331A7902210A431A711A7966
:1056200001210A431A7170BDD47F002058830020E5
:1056300070B50A4B18787F240C40CD09FFF7D2FCD7
:10564000074A640013195B1930331A7902218A431F
:105650001A711A7901398A431A7170BDD47F0020FA
:10566000588300207F220A40C909044B52009B182E
:105670005B18303318798007C00F704758830020BB
:10568000F0B5C64600B584B001900C00002000F0D3
:1056900027FB227860231340602B00D18DE1402B43
:1056A0002FD02278D206D20E012A00D1D8E0022AC9
:1056B00000D11CE1002A00D084E1202B2AD0002B4D
:1056C00000D085E16378052B58D04AD8012B00D152
:1056D000B3E0032B00D19DE0002B40D1C34B1A78DF
:1056E000510992080223134001220A40134302AADF
:1056F0000632138002232100019800F0B5FA012040
:105700005CE1BB4800F0ECFA220001210198FEF7B1
:10571000D1FF53E1227963791B0213430F2A00D989
:1057200052E1B24AFF210B40D2181379B14A1278E4
:10573000934207D2B04A11685B01C918002909D108
:1057400000203BE1511C994200DA3FE19B1A5B01CA
:10575000AA49591822000198FFF7ECFC2EE100201D
:105760002CE1082B18D0092B22D0062B04D12100C4
:105770000198FFF7A5FD21E100201FE1200000F0C6
:10578000B5FAA1780198FFF75BFB984A13780221DC
:105790000B431370012011E1944B5B7802AA06328F
:1057A000137001232100019800F05EFA012005E149
:1057B000A27890468D4B5B78934225D08B4B5B78DB
:1057C000002B0DD1894B4146597000291AD0019800
:1057D000FFF7BEFC002812D1844B00225A70EDE086
:1057E0000021019D2800FFF789FB2800FFF7BDFB82
:1057F0007E4EB7782800FFF761FCB770E2E7FFF74D
:10580000C6FD01E0FFF7C4FD2100019800F018FA81
:105810000120D3E0A278E3781B021343012B01D0CF
:105820000020CBE0714A137808210B43137021004C
:10583000019800F005FA0120C0E0A278E3781B028D
:105840001343012B01D00020B8E0684A13780821E7
:105850008B4313702100019800F0F2F90120ADE0B4
:10586000227963791B0213430F2A00D9B2E05F4A01
:10587000FF210B40D21813795E4A1278934222D24C
:105880005D4A11685B01C918002900D1A4E022001B
:105890000198FFF74FFC002800D08FE023786022AA
:1058A0001A4200D08AE063780A3B012B00D985E0D8
:1058B00000F016FA63780A2B0ED02100019800F050
:1058C000BFF901207AE0511C994200DA86E09B1A68
:1058D0005B014A495918DAE702AB9A1D002313709D
:1058E00001332100019800F0BFF9012066E0217921
:1058F0007F200840CA09944670220A4200D06FE017
:105900003A4A400012186244127D3A4800788242B6
:105910000DD239480068520182181500002B12D0B0
:10592000291E5FD022000198FFF704FC46E0451CC9
:10593000954205DB121A5201304812181500EDE7A6
:1059400000221500EAE76378012B11D0032B0FD05A
:10595000002B49D1019D2800FFF784FE02AB9A1D60
:10596000108002232100280000F07EF9012025E0AC
:10597000A078E2781202024304D1012B19D00198D9
:10598000FFF73CFE002D3BD0220029000198FFF7D5
:10599000D1FB002000F0A4F9144B35229B5CDB07FF
:1059A000D80F002B0AD12100019800F049F90120FD
:1059B00004E00198FFF73CFEE4E7002004B080BC5F
:1059C000B846F0BD0020F9E70020F7E70020F5E732
:1059D0000020F3E70020F1E70020EFE70020EDE7EB
:1059E0000020EBE70020E9E70020E7E758830020EC
:1059F000B5460020F98D0020A8810020AC7E002053
:105A00000120DBE730B585B0FFF7D6FC00284ED18A
:105A100005B030BD042B4AD1644B1B78DB0746D55B
:105A2000624B18780007C00FFFF7B3FC3FE0072B6D
:105A30006BD0082B00D1AAE0062B38D15C4B1B7829
:105A4000002BE5D05A4A1378013BDBB21370137870
:105A5000002B2CD1554B1A78012401210A431A70CE
:105A60003422995CA1439954995C04208143995450
:105A70000132995CA1439954995C8143995401ABDB
:105A8000187802A9FFF7FCFD002810D101AC20789E
:105A90000021FFF789FA20788021FFF785FA06E0D8
:105AA00001AC2078FFF740FB2279404B9A70414BC4
:105AB0001C686269EFF3108172B61368002BFCD08A
:105AC000BFF35F8FA16101A9200001F063FA626951
:105AD000A369BFF35F8F0021116083F31088002852
