:020000042000DA
:1000000018481949086006C881F30888104717483E
:100010000068002801D01648F3E71649164A002068
:1000200000E001C19142FCD1144988471449884736
:100030001449884700BEFDE7109B0020109B00205C
:10004000449C002000000420000004200000042044
:100050000010042000100420001004200000000004
:10006000704700000001002008ED00E0000000D013
:1000700000000000449C00203CAA0020354F0020D6
:10008000AD140020F54E002006005250ABB3605373
:100090006C90002006005250861C03027C900020C9
:1000A000060052505422A29D88900020F2EB8871E5
:1000B000E09A0020049B00203800002090A31AE75B
:1000C0000000000000000000000000000000000030
:1000D0000000000000000000000000000000000020
:1000E0000000000000000000000000000000000010
:1000F0000000000000000000000000000000000000
:10010000002004200F000020CB010020CD010020A2
:10011000C9010020C9010020C9010020C901002037
:10012000C9010020C9010020C9010020CF01002021
:10013000C9010020C9010020D1010020D301002005
:10014000C1010020C1010020C1010020C101002027
:10015000C1010020C1010020C1010020C101002017
:10016000C1010020C1010020C1010020C101002007
:10017000C1010020C1010020C1010020C1010020F7
:10018000C1010020C1010020C1010020C1010020E7
:10019000C1010020C1010020C1010020C1010020D7
:1001A000C1010020C1010020C1010020C1010020C7
:1001B000C1010020C1010020C1010020C1010020B7
:1001C000EFF30580103800BE00BE00BE00BE00BECA
:1001D00000BE00BE030002689446EFF3108272B6C0
:1001E000604600680028FBD0BFF35F8F04201856DC
:1001F00000280BDB002910D0086000201B68BFF32B
:100200005F8F0021196082F310887047D0210906A2
:10021000097849B219710120F0E70020EEE70000EB
:10022000F8B5040015001E000368002B20D0D02371
:100230001B061B785BB21F002368EFF3108172B6B8
:1002400018680028FCD0BFF35F8F0423E356002B0F
:1002500014DB2368BFF35F8F00221A6081F31088DC
:100260002800310002F0A8F90028E5D000200EE0B7
:10027000074B084A0848A62104F040FE277123686E
:10028000BFF35F8F00221A6081F310880120F8BD50
:10029000D08C002030970020888C002070B582B070
:1002A000060015001C0001A9FFF794FF002807D1E4
:1002B000019B5BB2D0221206127852B2934201D156
:1002C00002B070BD2A0023003000FFF7A9FFF7E756
:1002D000F8B507000C0002F059FA05000E00FA22EA
:1002E000920000232000002103F048FC2A00330084
:1002F00012184B41002B03DB3800FFF791FFF8BDCC
:1003000001225242004BF7E7FFFFFF7F10B5016863
:10031000EFF3108372B60A68002AFCD0BFF35F8F38
:1003200004228256002A0ADBFF2202710268BFF310
:100330005F8F0021116083F3108840BF10BD034B15
:10034000034A0448D52104F0D9FDC046E48C0020BE
:1003500024970020888C002010B50C00110000228A
:1003600005E0C3689B07FCD5A35C836001328A4229
:10037000F7D300E08368C3685B07FBD4C368DB0680
:10038000FCD400E08368C3685B07FBD401230362ED
:10039000080010BD10B5002308E00133DA00002189
:1003A00008481150844662445160DBB20E2BF4D9E8
:1003B0000548F0229200002103F09AFC034B044A06
:1003C0001A6010BD000010501CA40020E4A70020FB
:1003D00080011050F0B5CE46474680B585B0214B20
:1003E0009F6D0024012603E0B74376000134E4B298
:1003F000002F31D01F2C2FD83E42F6D01A4B9E65CD
:10040000630899460123234001225340DBB29846FA
:100410004B465D0045446D01144BED18280000F07B
:1004200043FA0028E0D0114A4B465B0043445B018D
:10043000D3189978DA8A01A8002398460370073305
:1004400043700171826043464371012100F04CFA10
:10045000280000F0BFF9C7E705B0C0BCB946B046F8
:10046000F0BDC0460000115000301150DCA3002048
:10047000F0B5CE46474680B585B0734A9823D55827
:1004800080239B022F001F401D4245D06F4B9A6A6C
:100490006F4B1A600024002109E06E4B5B183C335F
:1004A00000221A7000F0C2F931000134E4B20F2CBE
:1004B00018D8A60130002030664BC0189B193B337A
:1004C0001B78022BF1D1634B9B193A331E78002E17
:1004D000EBD0604BA1015B183C331B78002BDCD1C7
:1004E0003100E2E7002908D15B4B1B78002B04D1D7
:1004F0005A4A903380218902D150534B9B6C5B0543
:100500005B0D01A80022027003324270436001219A
:1005100000F0EAF98027BF02EB0606D4EB034DD5C5
:1005200080235B021F43002416E010231F43FFF7C4
:1005300051FFF3E702261CE0494B1E66424B5B6EFF
:1005400033409E42FAD118E0424B4A4652019B1872
:100550000122DA700134E4B2012C1FD8A1466601F1
:100560003C4BF31898469B7E002BEDD0002CE1D03D
:10057000012601F057F80128DED8C022920100219F
:10058000404600F02DF9404600F024F901F04AF809
:100590000128D9D9314B5E661E66D5E701A8002334
:1005A0000370063343702F4A02AB12CA12C30121F3
:1005B00000F09AF9294B802292021A65EB040AD4C2
:1005C0006B041DD42B042AD4AF4238D105B0C0BC73
:1005D000B946B046F0BD80235B011F4300241A4B8F
:1005E0001C60FFF7D7FE01A804700123437004715B
:1005F000012100F079F9194B802212031A65DFE717
:100600008023DB011F4301A80023037004334370E0
:10061000012100F069F9114B10221A65D2E78023FD
:100620001B021F4301A800230370053343700121FF
:1006300000F05AF9094B802212011A65C4E739000B
:100640006940094801F018F80000115000400540C9
:10065000D4A30020DCA3002032AA002000301150D7
:10066000002011500000105060930020F8B50400E5
:100670000F00838A028B1E1C934200D9161CB6B24F
:100680009B1BA3828022D2003243E378002B13D03D
:100690008025AD01154301225340E3706378002BA0
:1006A0000CD0A38A002B02D18023DB011D43002F35
:1006B00000D02D042800F8BD0025EBE7E068BB0161
:1006C000C0182169320005F0E5FE23699B192361FA
:1006D00080231B021D43E4E7094B1B6C9B070CD4D2
:1006E0008378DB09012B01D0002007E0C37E022BB9
:1006F00001D0002002E0012000E000207047C04649
:100700000000115010B5FFF7E7FF002809D0064B95
:100710009B6A064A12689B1A054A94466344C62B94
:1007200000D810BD0020FCE700400540D4A3002005
:10073000E0FCFFFF70B5040083681B68002900D04F
:100740001B0C9D05AD0D6278002A11D11B0409D444
:10075000E38A5B19E382238BAB4201D90023A38296
:10076000280070BD0D4B0E4A0E48E82104F0C6FB70
:100770001B040DD52069E368890159182A0005F08A
:1007800089FEE38A5B19E38223695B192361E2E74F
:10079000054B034A0348EE2104F0B0FB8093002090
:1007A000909A0020A0930020FC93002010B5040034
:1007B00083681B680021FFF7BDFF63681B685B004F
:1007C00002D5238B834200D010BD01212000FFF70A
:1007D000B1FFF9E7002383768382C3820361704708
:1007E00010B5002902D083681B681940002A10D078
:1007F000114352050DD5826813685B050CD4084B74
:100800000B401360074B1B6C9B0702D40C23033B6C
:10081000FDD28368196010BD8178034800F02CFF79
:10082000FFFBFFFF000011501C94002070B5040076
:1008300043681E680021FFF719FF80256D010543FD
:10084000164B1B6C9B0715D5A3785B0617D10023AD
:10085000A28A002A01D0002B15D0114B1E40802304
:100860009B053343626813602A0000212000FFF7D4
:10087000B7FF70BDA378DB0903D10133E8E701239B
:10088000E6E70023E4E701212000FFF7EFFE054340
:10089000044A3240A023DB051343E3E70000115074
:1008A000FFFFFFAFFFFFFFDF70B50400857E002D67
:1008B00006D0FFF77BFFA38A002B05D1280070BD6F
:1008C0008178084800F0D8FE2000FFF71BFF051EC6
:1008D00003D0012323770025F0E72000FFF7A6FFD0
:1008E000ECE7C0463C94002070B584B005000E00D3
:1008F0004378042B3CD009D9052B43D0062B1AD1C1
:10090000674A13780133DBB2137014E0022B03D073
:10091000032B10D100244BE0624B1A7801218A434B
:100920001A701A7801318A431A7000225A701A78A4
:1009300002318A431A705C4B1C686269EFF31081C4
:1009400072B61368002BFCD0BFF35F8FA161290042
:10095000200007F085FD6269A369BFF35F8F002166
:10096000116083F31088002800D092E004B070BDBD
:100970004C4B1B78DB07F9D54A4A137804210B430B
:100980001370D8E7474B1B78DB07EFD5454A137840
:1009900004218B431370CEE79B1A5B01434A9B18DB
:1009A000DB69002B02D02878696898470134E4B2EB
:1009B0003F4B1A782300511CA14208DBA242EBD91D
:1009C0003C4B1B6862019B18002BE9D1EEE7354BCD
:1009D0001B785B0728D5334A137804218B431370A7
:1009E00001AC0C220021200003F082F92B78237047
:1009F000052363702C4B1C686269EFF3108172B69B
:100A00001368002BFCD0BFF35F8FA16101A9200008
:100A100007F026FD6269A369BFF35F8F00211160B3
:100A200083F3108800282DD11E4BDB78DB0700D420
:100A30009CE72A7801AB1A7003225A706A68029206
:100A4000194B1C686269EFF3108172B61368002BB2
:100A5000FCD0BFF35F8FA16101A9200007F000FD6A
:100A60006269A369BFF35F8F0021116083F310886F
:100A7000002800D17AE701AB18785978320005F0E8
:100A800059FE73E701AB18785978320005F052FE31
:100A9000CAE728786978320005F04CFE66E7C04660
:100AA00033AA0020809F0020D89F0020A09A002019
:100AB00031AA0020D09D002000B585B00F226A44E5
:100AC000082318431070054B186800230093013366
:100AD000272104F013FF05B000BDC046DCA70020AD
:100AE00010B5040004202043C0B2FFF7E5FF012049
:100AF000002101F041FD042320009843FFF7DCFFB3
:100B00003220002101F038FD10BD10B50F239843AD
:100B10000843FFF7E5FF10BD70B504000D000F237B
:100B20009843FFF7F2FF2001C0B22900FFF7EDFF65
:100B300070BD10B504000021FFF7EEFF013CE4B2E8
:100B4000012C00D910BD022001F02CFDFAE710B5F0
:100B50000121FFF7E1FF10BD10B50120FFF7E9FF0C
:100B600010BD000010B5054B5B5C1B18DBB280208C
:100B700040421843C0B2FFF7DCFF10BDB88500202B
:100B800010B5040002E00134FFF7E1FF20780028EF
:100B9000F9D110BD10B51B4B1860322001F002FDD9
:100BA00000213020FFF7B1FF052001F0FBFC002100
:100BB0003020FFF7AAFF9620002101F0DDFC002184
:100BC0003020FFF7A2FF9620002101F0D5FC002184
:100BD0002020FFF79AFF9620002101F0CDFC28206D
:100BE000FFF7A7FF0820FFF7A4FF0120FFF7A1FFF1
:100BF000022001F0D7FC0620FFF79BFF0C20FFF737
:100C000098FF10BDDCA7002082B08C46144BC3189F
:100C10005A425341134A5B009B5E8B4205D06B46A0
:100C2000DA1D63461370002115E06B46DA1D0D23B3
:100C3000137000210029F2D183699B06FCD413783C
:100C4000036001310132F5E783699B06FCD4137818
:100C50000360013101320029F6D002B07047C0466E
:100C60000080FCBF18AA002030B583B004000D003E
:100C7000002313E06B46DA1D1170002006E0A36923
:100C80009B06FCD413782360013001320028F6D093
:100C90002B780D3B5A425341DBB2013529780029AC
:100CA00005D0002BE6D12000FFF7AEFFF0E703B040
:100CB00030BD82B000226B46D91D06E08369DB0699
:100CC000FCD403680B7001320131002AF6D06B4668
:100CD000D87902B07047000010B584B0104804F015
:100CE000D3FA082404E0642001F05CFC0134E4B28F
:100CF000772C0FD80B480023009301330F226A444E
:100D0000210004F007FE0028EDDB0748210004F075
:100D1000EBFAE8E7054804F0B7FA04B010BDC046A6
:100D2000BC850020B89B0020D0850020E8850020ED
:100D300030B583B06B46D91D0870D02424064023FB
:100D400063612025A56101220248FFF705FB65616B
:100D500003B030BD00C0034030B583B06B46D91D31
:100D60000870D02424064023A3612025A561012218
:100D70000248FFF7F1FA656103B030BD00C00340DF
:100D800010B504F02DFAC82001F00CFC174B1849DF
:100D90001C00180004F088FD03210E2000F002FC66
:100DA00003210F2000F0FEFB002201210E2000F0A5
:100DB00013FC002201210F2000F00EFC0D480F2231
:100DC0000E2104F091FAFFF787FF2000FFF7E2FE03
:100DD000FFF7C2FE00210020FFF7C4FE0648FFF720
:100DE000CFFE064804F050FA10BDC046B89B002064
:100DF000A0860100F48500201C86002028860020A3
:100E000030B58BB001A9294B0A0031CB31C213CBCD
:100E100013C213CB13C200240BE0A20001ABD558C0
:100E2000280000F0F3FB0123AB40D02212065362EE
:100E30000134082CF1DD1E4804F026FA002427E0D6
:100E4000990001AA895801228A40D02109064A61E5
:100E50000133082BF4DDFA20800001F0A3FB00230E
:100E600008E0990001AA895801228A40D021090688
:100E70008A610133082BF4DDFA20800001F092FB37
:100E8000002004F0B5F9712806D0512804D00134AF
:100E9000042C05DC0023DCE7064804F0F5F902E049
:100EA000054804F0F1F90BB030BDC0465C96002057
:100EB000448600208C860020A8860020F8B51920E2
:100EC00000F0A4FBD02636068027BF0477622D4DA4
:100ED000E1214902280001F005FD0221002000F077
:100EE00061FB0221012000F05DFB274CE12149025A
:100EF000200001F0F7FC0221082000F053FB022142
:100F0000092000F04FFB776120492800FFF7ACFE75
:100F10001F492000FFF7A8FE1E4804F0B5F9194B41
:100F20009B69DB0622D41748FFF7C3FE01001A4B6A
:100F3000180004F0D9F9144B9B69DB061AD4124847
:100F4000FFF7B7FE0100154B180004F0CDF900249F
:100F5000092CE1DC002004F04BF971280ED0512857
:100F60000CD0642001F01EFB0134F1E70C4804F0C2
:100F70008BF9E0E70B4804F087F9E8E70A4804F04A
:100F800083F9F8BD0040034000800340BC86002088
:100F9000D4860020EC8600200087002028870020CF
:100FA000148700203C8700208C86002070B5002428
:100FB0000BE0104BA200D558280000F027FB0123BE
:100FC000AB40D022120693620134032CF1DD0024E1
:100FD0000BE0094BA200D558280000F017FB0123B5
:100FE000AB40D022120693620134032CF1DD0020C5
:100FF00070BDC0464C9600203C960020F8B50025F8
:101000004BE02A4BA200D658300000F0FFFA012333
:10101000B340D022120693620134032CF1DD234B3E
:10102000AA00D25801239340D02212065362936142
:1010300000261CE0052001F0B5FAD0231B065B68F2
:101040002342F7D01A4BB2009B185B5D1F00194872
:101050002A00310004F048F902E0052001F0A2FA6C
:10106000D0231B065B682342F7D01CE00136032E19
:1010700012DC114BB200D258D0231B065B6801244E
:1010800094401C42F2D1142001F08CFAD0231B06AC
:101090005B682342EAD1D0E70135032D01DC00244F
:1010A000BBE700231F003800F8BDC0463C96002077
:1010B0002C960020508700204C96002010B5192057
:1010C00000F0A4FAD0231B06802292045A625A61CF
:1010D000FFF76CFF094804F0D7F801E0452C08D071
:1010E000FFF78CFF0100041EF8D0054804F0FCF85F
:1010F000F4E7044804F0C8F810BDC0467487002027
:1011000090870020A4870020F8B504000E00150089
:101110001F002A20FFF720FE200AFFF709FEE0B299
:10112000FFF706FE280AFFF703FEE8B2FFF700FE0E
:101130002B20FFF711FE300AFFF7FAFDF0B2FFF7A0
:10114000F7FD380AFFF7F4FDF8B2FFF7F1FD2C20A8
:10115000FFF702FEF8BD000070B51B4CA544060069
:101160000D001400E0234022FF33FF320021002055
:10117000FFF7CAFF002208E053009B186946CE54CF
:10118000581C0D540233CC540132A0235B009A4208
:10119000F2DBD0231B0640225A61203A9A610024D8
:1011A00006E0F022920069460848FFF7D5F80134BE
:1011B000F0235B009C42F4DBD0231B0620225A6103
:1011C000F0239B009D4470BD40FCFFFF00C0034026
:1011D00070B582B015001E0006AB1C78A0235B0022
:1011E000984202D2A033994201D302B070BD0B00E5
:1011F0000200FFF789FF01A90D704E708C70D0249A
:10120000240640236361203B1D00A36103220248A2
:10121000FFF7A2F86561E8E700C00340F0B5DE46DD
:1012200057464E464546E0B589B003900491059374
:1012300012AB1B789B4613AB1B789A4614AB1D78F8
:101240001300203BDBB25A2B57D8203A93009B184F
:101250002D4FDF1900239946079745E00499414433
:1012600089B20398484480B2534600935B46059A7E
:10127000FFF7AEFF25E030006843039B9C466044C7
:1012800080B241466943049B9C46614489B2091976
:1012900089B2484480B2534600935B46059AFFF7F3
:1012A00097FF0134A742E6DC4B46B1461E000136EB
:1012B0002F00B54204DD002433004E469946F1E785
:1012C000069C01239C46E0444346062B09DC230090
:1012D00042461341DB07F4D5012DBFD0002606940A
:1012E000E6E701239C46E1444B46042B05DC079BC3
:1012F0004A469C5C00239846E6E709B0F0BCBB4632
:10130000B246A946A046F0BD64940020F0B5D6468A
:101310004F464646C0B584B006000F0014009A46FA
:101320000CAB1B7899460DAB1B7898460EAB1D781D
:101330000FE00295434601934B4600935346390014
:101340003000FFF76BFF6800281840003618B6B26F
:1013500001342278002AECD104B0E0BCBA46B14690
:10136000A846F0BDF0B585B003F03AFF424F4349BF
:10137000380004F04DFB7B6802263340404A16607B
:10138000396807225140C8320A403E490A603E4A45
:1013900013600121022000F005F90121032000F073
:1013A00001F90121042000F0FDF8052000F02EF9DC
:1013B000D0242406202363626361062000F026F90E
:1013C000402363626361072000F020F98025656295
:1013D00065616561142001F0E5F8A561142001F054
:1013E000E1F86561962001F0DDF80120FFF7B4FC1B
:1013F000962001F0D7F81120FFF7AEFC962001F0FF
:10140000D1F83A20FFF7A8FC6620FFF791FC3620C0
:10141000FFF7A2FC4820FFF78BFC2920FFF79CFC7C
:10142000322001F0BFF81949380004F095FA002283
:1014300000210020FFF790FE154A0296FF24019438
:101440000094FF230A210A20FFF760FF114A029649
:10145000002501950095FF2328210A20FFF756FF5C
:101460000D4A0123029301950094002346210A208E
:10147000FFF74CFFFEE7C04600C0034040420F00AC
:1014800004F0034000D0034004E00340002D31018C
:10149000D0870020DC870020EC87002010B50248B0
:1014A00003F0F2FE10BDC046F487002010B503F033
:1014B00097FE192000F0AAF8D0231B068022920480
:1014C0005A6202E0642001F06DF804F0DDFC0028AF
:1014D000F8D0284803F0D8FED0231B0680229204BF
:1014E0005A61254803F000FF244803F0CDFE03F0C5
:1014F000ABFEFF24044022482200210003F0F4FE4A
:10150000342C22D00BDC322C15D0332C17D0312CBC
:101510002CD11C4803F0B8FEFFF732FCDCE7362C78
:1015200018D0372C1CD0352C20D1174803F0ACFE36
:10153000FFF7C4FCD0E7154803F0A6FECCE714483B
:1015400003F0A2FEFFF75CFCC6E7124803F09CFE26
:10155000FFF708FF104803F097FEFFF79FFFBBE778
:101560000E4803F091FEFFF7A9FDB5E70C4803F024
:101570008BFEB1E70888002024880020A88800207E
:10158000C4880020DC88002024890020F088002006
:10159000048900201489002034890020508900200B
:1015A0006489002010B58300084A9A181268402404
:1015B0005440C0222240064CA44663441A60C00036
:1015C000044B9C466044416010BDC04604C00140CD
:1015D00004D001400040014080000B4B9C46604419
:1015E00000290ED00823002A00D0042213430268E9
:1015F00053400C2213408022520194466044036001
:1016000070470023EFE7C04604C0014010B5012336
:101610008340D0221206936293610521FFF7C2FF37
:1016200010BD000010B58023DB05186803051B0DF5
:101630000B4A934207D10B4B034080229201934205
:1016400007D1000F10BD084B084A0948132103F0C9
:1016500055FC084B054A0648142103F04FFCC046D0
:101660002709000000F0FF0F7C89002080960020F1
:10167000A0890020E88900200FB400B583B0084895
:1016800003F002FE049B002B07D005A9019118006E
:1016900003F00AFE034803F0F7FD012003F028FCE5
:1016A000FC89002070870020EFF3108072B6034B96
:1016B0001B68002BFBD0BFF35F8F70472C0100D05D
:1016C000BFF35F8F024B00221A6080F310887047CF
:1016D0002C0100D070B505000C001600FFF7E4FFE8
:1016E000E308EA189446E95C07222240012393406C
:1016F0000B4206D1DBB20B4362461370FFF7E0FFEB
:1017000070BD21003000FFF7B7FFF0B583B00500D2
:10171000019114001E00FFF7C7FF00E00134B4423E
:101720000CD8E308EF18EB5C0721214001228A4026
:101730001A42F3D1D2B21A433A7001E00124644252
:10174000FFF7BEFF002C02DB200003B0F0BD019BC1
:10175000002BF9D00898FFF78FFF0000054A10789A
:10176000431CDBB21370172B02D9130010221A701E
:101770007047C046109B002000B583B001000448AC
:10178000044B00931F231822FFF7BFFF03B000BDD7
:1017900078A300200C8A0020002307E0054A9A184D
:1017A0009200BFF35F8F0021116001331F2BF5D929
:1017B0007047C04640000034074B9B6810308000E3
:1017C0001950BFF35F8FBFF35F8F044B0021196087
:1017D00082F310887047C04600ED00E0240100D07D
:1017E0000048704700E400E010B5FFF7F9FF002360
:1017F00002E0034A04C00133072BFAD910BDC046EA
:101800008080808010B50388DA0A1C2A05D15B0528
:101810005B1502335B00C01810BD034B034A8E21D9
:101820000348490003F06AFB288A0020E096002064
:10183000408A002010B5091A0B1F0A4A88180A4A64
:10184000904208D8C90706D45B105B055B0D0748BA
:10185000184380B210BD064B064A8721064849004E
:1018600003F04CFBFC070000FE0F000000E0FFFF50
:10187000888A0020D4960020408A002010B5091ADA
:1018800004394A08090B08D14905490D064B0B4399
:101890000380064B1343438010BD054B054A8B2143
:1018A0000548490003F02AFB00F0FFFF00F8FFFFA6
:1018B000B88A0020B0960020408A0020012383408F
:1018C000034A10681840431E9841C0B27047C04692
:1018D00000E100E0002A05D0044BC02252009950DC
:1018E00019607047014A8023D150FAE700E100E017
:1018F00010B50A001F230340012199404009FFF75A
:10190000E9FF10BD01238340014A13607047C046C0
:1019100000E200E0024B9B6810308000C058704726
:1019200000ED00E010B5FFF7F5FF044BC31A0020EF
:101930002F229A424041C0B210BDC046149B0020E5
:1019400070B505000E00EFF3108472B60C4B1B68E7
:10195000002BFBD0BFF35F8F2800FFF7DBFF094BA5
:10196000984201D0B04205D1220031002800FFF793
:1019700023FF70BD044B054A0548ED2103F0BEFA74
:10198000240100D0C1010020C88A0020089700204F
:10199000408A0020F0B5DE4657464E464546E0B543
:1019A00089B0814601911500EFF3108372B69A4613
:1019B0006E4B1B68002BFBD0BFF35F8F6C4B002678
:1019C0009E57002E40DB7400A419A4006948231818
:1019D0009B4606229A56664B1A70674B9A684B468E
:1019E00010339B00D7583B1A2F2B3BD9634B9F4298
:1019F00031D105AF624B3B80624973000293981965
:101A000080005C4C00190230FFF714FF78805E4BB9
:101A1000BB80FF23BB71FD71019A0792029B9B194A
:101A20009B00E31807CF07C301275B463B431F001A
:101A3000524639004846FFF7BFFE09B0F0BCBB462E
:101A4000B246A946A046F0BD504B514ABE2151486E
:101A5000490003F053FA504B4D4A84214D48FF3161
:101A600003F04CFA01233A009A439046101A0C21D5
:101A700001F048FA00290FD143460024DA79AA423E
:101A800012D90621595600290DDB4A00521892003E
:101A900038491C008B18F1E7404B3D4ACA213D48AC
:101AA000490003F02BFA1C00002C2DD005AB3C4A5A
:101AB0001A80813A5A800623E3569846002B16DA9C
:101AC000384804AB188142469A72DD72019B079335
:101AD000201D5946FFF7AEFEA080A671254B72006F
:101AE000921992009B1805AA13CA13C3A0E7201DE0
:101AF000FFF788FE01007000801980001D4BC018A0
:101B00000430FFF797FEDCE705AF1D4B3B801D4916
:101B1000730002939B199B00164C1800A446604466
:101B200003900230FFF786FE7880039A101D41462D
:101B3000FFF780FEB8801C4B4246121B52415343B4
:101B40001B0DBB71FD7101990791029B9B199B00B5
:101B5000A446634407CF07C3114B42461380813B21
:101B6000538001275B463B431F0061E7240100D0FF
:101B700034AA0020149B002000ED00E0C1010020E9
:101B800000A1FFFF449B002001BDFFFF008B002050
:101B9000F0960020408A0020288B0020508B0020E7
:101BA0000148000001BD0000AAAA0000F0B5CE4621
:101BB000474680B583B080460C00EFF3108772B6BD
:101BC0004F4B1B68002BFBD0BFF35F8F4D4B9A68C8
:101BD00045461035AB00D6584B4B9E4207D0A64227
:101BE00000D18AE00196494BF31A2F2B09D93A000C
:101BF00031004046FFF7E0FD03B0C0BCB946B04637
:101C0000F0BD4046FFF75AFE814600214046FFF7EF
:101C10006FFEBFF35F8FEFF30581002901D08D4286
:101C200011D10123019D9D430020AB689C4211D03E
:101C30000622AA56002A0CDB53009B189B00334A4D
:101C40002800D518F1E7324B324A3348334903F0C4
:101C500055F928009C4249D106242C57002C2BDB37
:101C60002A4B6200121992009B189A68AA60DA79CE
:101C7000EA719B795BB2AB71002B0FDA2848A88020
:101C8000224B6200121992009B18264A1178997112
:101C9000147049464046FFF72BFEA8E76000001984
:101CA00080001A4BC0180430FFF7ACFD01002B1D5B
:101CB0001800FFF7BFFDE2E7002912D100280ED07F
:101CC000FF238371184B838016490B78AB710F4A41
:101CD000164BAD1A6D416B431B0D0B70D9E70A4EC5
:101CE000F2E71349281DFFF7C9FDD2E7114B094A56
:101CF00091210948890003F001F9034E77E7C046B6
:101D0000240100D000ED00E0C1010020149B002060
:101D1000D48B0020C0960020408A002002020000E0
:101D200001BD000034AA002001BDFFFFAAAA0000E7
:101D30004E9B0020088C002070B5012202432D4BE1
:101D4000D31A2F2B29D8EFF30583002B2BD0EFF3D9
:101D5000108172B68C46284909680029FBD0BFF370
:101D60005F8F244C254905002D1B6D416943090DEA
:101D70004CB2234989689B00C958914219D000216F
:101D8000032930D81B4B4A00521892009B189B79AC
:101D90005BB2A3421DD00131F2E71A4B1A4A1B482D
:101DA0001B4903F0ABF81B4B174A18481A4903F0BC
:101DB000A5F8134A92681949D150194B1A788271C3
:101DC0001C70BFF35F8F0C4B00221A608CF31088DD
:101DD00070BD084B4A005518AD005D19FF26AE7165
:101DE000104AAA80E9E7104B074A08480F4903F058
:101DF00085F8C046149B0020240100D0AAAA000048
:101E000000ED00E0108C002094960020408A002015
:101E10007F020000388C002082020000C1010020F7
:101E200034AA002001BDFFFF448C00209302000073
:101E300000B583B001000648064B0093052300223D
:101E4000FFF763FC002801DB1F23181A03B000BD55
:101E500038AA00204C8C0020024B9C46614489002B
:101E6000016070474000003410B50400FFF776FCB5
:101E700001002000FFF7F0FFFF232371BFF35F8F06
:101E800010BD10B50400FFF769FC01002000FFF74A
:101E9000E3FFFF23237100236371BFF35F8F10BD46
:101EA00010B50D4C09E00D4B0D4A0E481A2103F0F8
:101EB00025F82000FFF7D8FF08340B4B9C4209D2CD
:101EC0002368002BF5D0012BEDD12000FFF7D9FFBF
:101ED0000834F2E710BDC046009C0020688C00204A
:101EE00048970020888C0020089C0020034B9C46CB
:101EF000614489000160BFF35F8F70474000003488
:101F000010B504000120FFF737FC01002000FFF7A7
:101F1000EDFF10BD30B5836A9C46D41A0B1D9B00A3
:101F20001B5865465B1B9C4204D3046A01238B400B
:101F3000234202D1043189000A5030BD0004084315
:101F4000704700000A4B1968EFF3108372B60A68F5
:101F5000002AFCD0BFF35F8F054A1268BFF35F8F82
:101F60000021116083F3108840BF002000217047DA
:101F70000CAA0020F0B5DE4657464E464546E0B571
:101F800083B0EFF3058303221A4011000192AF4B97
:101F90009200D35898461B788B4207D10123019AAF
:101FA00093400093AA4B009A1A601FE1A94BAA4ADA
:101FB000AA48922102F0A2FF43465A694B465B00B1
:101FC0004B44DB0093469B445B469E68DF68A44815
:101FD00000F0ACFB801BB941002900DA10E1002FB2
:101FE00061DB5B461C699F4B9C4247D043460820FF
:101FF000185E5B46598889B2FFF7A0FF5B465969B6
:10200000A04704000D0023002B434CD0002D3EDAE6
:1020100030003900001BA9415B469860D96000245C
:102020001C5F002C00DAEBE043465A6992466300DD
:102030001B19DB0053449A68DB6805000E00AD1ADB
:102040009E41002E00DADBE043461C8147460837FC
:10205000BC46002C21DB634600229B5E5D00ED1830
:10206000ED005544AA68EB6806000F00B61A9F41C0
:10207000002F12DBAC460023EC5EEAE75B465C69AE
:1020800023692000984700280DD030CCBBE7744866
:1020900000F04CFB00196941BEE75B461C804B46D3
:1020A00062461380ACE05B4600229B5E4246138191
:1020B0001269EFF3108372B611680029FCD0BFF3E8
:1020C0005F8F42460221525E59460A804246494687
:1020D00051801269BFF35F8F0021116083F3108874
:1020E0008EE043461969EFF3108372B60A68002A3E
:1020F000FCD0BFF35F8F4246928812B29146012214
:10210000524241468A800A69BFF35F8F0021116005
:1021100083F310881CE09B4600229A5E002A0EDBA7
:102120005B460021595E4B005B18DB005344986806
:10213000D96826002F00361A8F41002FEBDA4B4664
:1021400059460B80634600215B5E994663461A80C0
:102150004B46002B5ADB43465A6992464B465B007E
:102160004B44DB009C46D44463469C68DD6846468D
:102170000836B346434608229A5ECFE7002342461C
:1021800093714146083143460820185E11E0012250
:102190005242D317A260E360434608229B5E83420B
:1021A00006D00D80434608229B5E2380434618815B
:1021B0002800431C2ED043465A6943001B18DB00FD
:1021C000D418D55E63881BB2002BE0DB2100EFE75B
:1021D00022002B0001992248FFF79CFE204800F0C6
:1021E000A5FA241A8D41002D28DC25D01C4B009A1D
:1021F0005A63434608229B5E9946002B00DBDBE6D0
:1022000043469B881BB2002B00DB6AE743469B7961
:10221000002BB3D1434608229A5E002A0EDB4346C8
:10222000596953009B18DB00CB189C68DD68631C60
:10223000CED16B1CD2D0CBE7002CD7D040BF03B09F
:10224000F0BCBB46B246A946A046F0BDF0A70020B0
:102250003C7005401C8D002074970020488D0020A4
:1022600000400540751F002070B504000D001100EE
:102270000126AE4006622800FFF762FB012128001C
:10228000FFF736FB024B9C466444266070BDC04697
:1022900038200000F8B504000F0016001D00C160D2
:1022A000FFF75CFA124B9C46604480002061267068
:1022B000ABB26381D02212061278627001225242C0
:1022C0002281A2809B186380002306E0581E61696A
:1022D0005A00D218D20088520133AB42F6D3054BD4
:1022E000B200D450044A31003800FFF7BDFFF8BDFA
:1022F00040000034F0A70020751F002010B5064BE9
:102300001B69002B01D0044810BD044B044A05484A
:10231000652102F0F3FDC0465C9B0020888D002003
:102320005C970020488D0020F8B504000569EFF3A4
:10233000108072B629680029FCD0BFF35F8F02219C
:10234000665E656971008919C9006D18002E02DB8F
:102350000027E95F61802169BFF35F8F00270F606D
:1023600080F31088002E2CDB06992961079969619A
:10237000AA60EB606B8801335B04590C002B00D121
:10238000012169803000FFF7D9FD2169EFF3108347
:1023900072B60A68002AFCD0BFF35F8FA2882A8039
:1023A000A6802269BFF35F8F0021116083F310883C
:1023B000E368217801228A4003498C4663441A600D
:1023C000F8BD01204042FBE73C20000070B582B020
:1023D000060014001D0008AB1B78002B07D100F08D
:1023E000D5F922002B00121A8B41002B0ADB079B28
:1023F0000193069B009322002B003000FFF794FF0F
:1024000002B070BD0020FBE7F0B5C64600B584B051
:1024100080460F0016001D000AAB1C78FFF76EFF08
:1024200002940195009642463B00FFF7CFFF04B0AF
:1024300080BCB846F0BD000030B504000A144389E2
:102440009A4230DA406953009B18DB00C3182269B6
:102450009446EFF3108272B6604600680028FBD005
:10246000BFF35F8F588885B20904090C884212D0E7
:1024700000202369BFF35F8F0021196082F3108869
:10248000002811D0E368217801228A4007498C4650
:1024900063441A6008E00649294389B25980012340
:1024A000A3710120E5E7002030BDC0463C200000BC
:1024B0000080FFFF10B50400FFF720FF2100FFF7A9
:1024C000BBFF10BD40787047F0B583B006000F0029
:1024D000EFF30583002B1AD106246442E517A419F3
:1024E0007D418D4202D803D1844201D900240025C8
:1024F00000F04CF922002B00121A8B41002B0BDC50
:1025000008D03000390000F053F903B0F0BD164890
:10251000FFF7B2F8002AF4D0144A002300932000F9
:102520002900FFF771FF002813DAEAE7104B19685A
:10253000EFF3108372B60A68002AFCD0BFF35F8FF6
:102540000B4A1268BFF35F8F0021116083F310887C
:1025500020BF084B5B6A9D42E8D80649896AA142C0
:10256000CFD29D42CDD1E1E7AC8D0020451F0020A8
:102570000CAA00200040054070B504000D0000F0DA
:1025800005F922002B0012184B411000191E02DB26
:10259000FFF79AFF70BD012040420149F8E7C046AD
:1025A000FFFFFF7F10B5FA2292000023002101F007
:1025B000E5FAFFF7E1FF10BDF0B585B00390029199
:1025C000EFF30583002B13D00B00414A526A8A4275
:1025D00009D33F49896A814208D29A4201D0012039
:1025E00002E0002000E0002005B0F0BD0120FBE784
:1025F000FFF784FEC3681F000678039A1400029A4E
:102600001500180000F092F802000B00A41A9D417A
:102610002200311D8900C959091A0020A84211DC85
:102620000ED020BF029A2A4B5B6A9A4234D82849BE
:10263000896A0398814231D29A422BD00120D3E794
:102640009142EED9234A00230093039D2800029C67
:102650002100FFF7D9FE002822DD02990D001C4B56
:102660005B6A994206D81A4A926A039CA24202D235
:10267000994200D120BFFFF71DFF154B5B6A9D42B9
:1026800022D8134A926A039882421FD29D4219D0DF
:102690000120A9E70020A7E70020A5E70120A3E784
:1026A0000B4B5B6A9C4209D80949896AA94207D247
:1026B0009C4201D0012097E7002095E7002093E796
:1026C000012091E700208FE700208DE701208BE7B4
:1026D00000400540451F002000487047004005406D
:1026E00010B50B4B1B69002B04D00A480A21FFF7D9
:1026F000B3FB10BDFFF7F0FF0400032100F00CF85E
:102700000348102303222100FFF7C4FDEDE7C04674
:102710005C9B00200CAA002010B5024A0248FEF77C
:10272000D9FF10BDFC8D00207CA300200200436A6D
:10273000906A1900536A9942FAD17047416A00E0E1
:10274000416A9942FCD300E0416A994202D1816A10
:102750009142F9D3704770B5060014001D00FFF7D1
:10276000E5FF02000B001000190022002B001218D8
:102770004B41994202D804D1904202D901225242DF
:10278000D3173000FFF7DAFF70BD000010B5024824
:10279000FFF7CCFF10BDC0460040054010B5020059
:1027A0000B000248FFF7D7FF10BDC04600400540B0
:1027B00010B502000B000248FFF7C0FF10BDC04675
:1027C00000400540074B98420AD0162301229A4048
:1027D000054B1A60054B1B6811009943FAD17047ED
:1027E0001723F3E70080034000F0004008C00040DA
:1027F00070B5046BE30701D4200070BD0B4BC31808
:102800000B4A1A60436A826A9B019B189D0206204C
:1028100000F018F9074900F075FB0100280000F0EE
:1028200071FB0021FFF7BAFFE6E7C0463030000039
:10283000010300004E0E000070B504000E001500EC
:10284000FFF7D6FFE16A33004B4019002B000B4025
:102850001900024BE3181960206370BD2C100000B2
:1028600070B505000C00062000F0ECF8C000210057
:1028700000F048FB0130C60907D00E4B9E4215D828
:10288000400834003F26064000E001246C62AE623E
:10289000002200212800FFF7CFFF062000F0D2F829
:1028A0008000A101891900F02DFB70BD0026024CAB
:1028B000ECE7C046FEFF0000FFFF0000002909D042
:1028C0000A22064B9C46604443425841044B400058
:1028D000C252704780225200F3E7C0460080FCBF1E
:1028E00018AA002070B504000D00062000F0AAF818
:1028F00000281ED0104B9C421CD01622012393406E
:102900000E4A13602000FFF75DFF00212000FFF753
:10291000D5FF29002000FFF7A3FFE26A70235A4089
:102920000E331340064AA2181360064B2363032399
:10293000A36470BD1722E1E70080034000E000407F
:102940002C10000001030000F8B5CE46474680B5C4
:1029500005000E009046994644002418A400284B18
:102960009C4664446368089A934200D262602F1FB9
:10297000FFB2012F2ED980221201C0239B01E31840
:102980001A60204BAA00D158002907D0586900F0DE
:10299000B9FA013043001B18033BFDD243465B01EB
:1029A00022685340E022134080225201A218136093
:1029B000012F1AD980239B01E318802212011A608B
:1029C000089B63600F4BAD004A46EA50C0BCB94655
:1029D000B046F8BD012ECED10322C0239B01E318DF
:1029E0001A60A368DB07FCD5D8E721687140032390
:1029F0000B401360A3680122B2401A42FAD0D9E713
:102A00000080004080A3002070B582B006000D0059
:102A100014001800069900F075FA0300069A1102D6
:102A20000091220029003000FFF78EFF02B070BD38
:102A300010B582B0802464000094FFF785FF02B0D7
:102A400010BD0000014B8000C058704780A30020DB
:102A5000F0B5C64600B504000E0017001D0037484B
:102A600000F050FA8046364BFA18364B9A4239D865
:102A70000100380000F046FA0200103A98235B008B
:102A80009A4235D86B1E062B38D8069B013B062B85
:102A900034D83F09474537D32D04069B1B031D43FC
:102AA0002368002B36DB284B9C4244D00C220123A8
:102AB0009340264A1360264A1360264A126819007A
:102AC00091430A1EF9D12660A060234BE3182132FE
:102AD0001A602268002AFCDAE56008221A6080BCCD
:102AE000B846F0BD1D4B1E4A1E48112102F006FAE1
:102AF0001D4B1B4A1B48192102F000FA1B4B184AB8
:102B000018481C2102F0FAF9194B154A15482321DF
:102B100002F0F4F922683F231340B342C3D1A36803
:102B20001B051B0D8342BED1E368EE22D202134087
:102B3000AB42B8D1D3E70D22B9E7C046001BB700BE
:102B400080E84BD380F8A93200C0024000E000408A
:102B500000F0004008C0004004300000208E00203B
:102B600098970020708E0020B88E0020D48E002010
:102B7000208F0020024B1A68024B5A607047C046F3
:102B8000E0A700200080054010B5174B8022D20539
:102B90001A60164B164A1A6000290AD0154BE0221B
:102BA000D2041A60002809D1124B802212061A6042
:102BB00010BD0D4BE022D2041A60F3E743011B1A4B
:102BC0009B00181800010C4B186080235B0498428E
:102BD00002D3094B094A1A60FFF7CCFF054B80224C
:102BE000D2051A60E4E7C04600B005400820014065
:102BF000FCFF010000A00540E0A70020FFFFFF0050
:102C000010B503000C0010000B4A8021C9051160AB
:102C1000002B0DD001221343084A0949D16109490B
:102C200059401162546293620021FFF7ADFF10BD5D
:102C3000024B0022DA61F7E700B005400080054052
:102C4000D3C007B02D3FF84F80239B000B43014AB0
:102C5000D36270470080054010B5010018231B881F
:102C600014221088984710BD10B5010018231B8846
:102C700016221088984710BDF0B5C64600B507006B
:102C80000E0000250123984600E00135B5420AD226
:102C9000AC003C192068FFF7DFFF20600028F4D16A
:102CA00000239846F1E7404680BCB846F0BD0000DE
:102CB00070B504000D000648FFF7CEFF0300002C9E
:102CC00003DB0120A040290098470020FBE7C04615
:102CD00055420000074BAA2212011A608D225200B1
:102CE000DA60054B054A1A60024B5B68002BFBDA81
:102CF0007047C046004002400060024000B0FA0049
:102D000010B5040001E008CC9847024B9C42FAD36E
:102D100010BDC046409C00207047000010B502481E
:102D2000FFF7EEFF10BDC046089C0020054B064A89
:102D30001A60064B064A1A60064B1A68044B934306
:102D4000FAD1704700E00040BFCDFBFE00F000402C
:102D5000FE7F3C0008C00040044BDB6C002B03D11D
:102D6000034B8022D2021A607047C0460000115007
:102D70004C201150044B054A1A60054B1B68DB437D
:102D8000DB01FAD17047C04600F00040FFFFFF01B1
:102D900008C00040034B40229A675A671A67DA66F8
:102DA0007047C04600F0014010B5FEF7F5FC10BDBD
:102DB00070B50420FFF746FE064900F0A3F80500B1
:102DC0000024002C00DD70BDE0B22900FFF73CFFBD
:102DD0000134F6E740420F0030B583B0274B0022A4
:102DE0009A67FFF777FF264B01221A60234B5B6C33
:102DF000012BFBD1234B03221A60204B9B6B012B31
:102E0000FBD10133009304331F4A01211F48FFF710
:102E10001FFE052300931E4A01211E48FFF718FEDE
:102E20001D4B002202210420FFF702FE1B4D2B0048
:102E3000002201210520FFF7FBFD194C2300002291
:102E400000210720FFF7F4FD2300002200210820C5
:102E5000FFF7EEFD8023DB0000932300002200211A
:102E60000920FFF7D1FD2B00002200210620FFF7EB
:102E7000DFFDFFF79DFF03B030BDC046008000407E
:102E80003CB0004030B00040002F68590080024044
:102E9000008C864700C00240001BB70040597307F2
:102EA000006CDC0201480421014B1847809B002084
:102EB000792C0020124A936F9B0815D29066D16638
:102EC000002905D0FFE7FFE7FFE7516F106F70475C
:102ED00004B580210906C2175140002800D0C8431C
:102EE00005F038FB002104BDF0B5146E556E576F28
:102EF000166FFFF7E3FF1466556657671667F0BD58
:102F0000000000D0114A936F9B0813D210665166DF
:102F1000002905D0FFE7FFE7FFE7516F106F70470B
:102F200004B5002801D00020C04305F013FB0021A8
:102F300004BDC046F0B5146E556E576F166FFFF79F
:102F4000E5FF1466556657671667F0BD000000D0B0
:102F500094464A4A926F9208624601D228E0C046DF
:102F6000F0B5464E346E756E776F366F00F020F810
:102F70009446424A14665566576716676246F0BD26
:102F800094463E4A926F9208624601D254E0C0468F
:102F9000F0B53A4E346E756E776F366F00F04CF8C0
:102FA0009446364A14665566576716676246F0BD02
:102FB000002B24DB11D000293EDA00B5C943404282
:102FC00000D1013100F038F8C943404200D101314D
:102FD000DB43524200D1013300BD002AEBD100286F
:102FE00001D1002905D00020C90FC90701D1C04374
:102FF000410800B505F0AEFA0022002300BD00B57F
:1030000000290ADBDB43524200D1013300F014F8FF
:10301000C943404200D1013100BDC943404200D103
:103020000131DB43524200D1013300F005F8DB43AC
:10303000524200D1013300BD002923D1002B18D109
:10304000002A0CD0BC460D4F38667A66002100235A
:10305000FFE7FFE7FFE77A6F386F674670470028A2
:1030600001D00748010000B505F074FA00220023E2
:1030700000BD02000B00002000217047000000D0BE
:10308000FFFFFFFF002B00D0BFE0130C28D1002A68
:10309000E7D080B4114F39667A66FFE7FFE730B4B6
:1030A000040C7B6F396F1B0423433B667A66FFE792
:1030B000FFE7FFE7C04684B27B6F3D6F1B042343ED
:1030C0003B667A66FFE7FFE7C04600232C042D0C21
:1030D0007A6F386F00196941B0BC7047000000D0AA
:1030E000F0B594460025140E01D112020835140FD4
:1030F00001D112010435940F01D192000235D40F91
:1031000001D152000135D40B0134254F7C66254C8A
:103110003C660E0C93B2FFE7FFE7FFE73C6F6643A8
:10312000360C7703BE467343DF0B5B04C01AB9410C
:10313000130C7343DB18C91ACE086643360CB64429
:1031400093B273431F0F1B01C01AB941130C734391
:103150001F0B1B05C01AB941860D8F023E43664303
:10316000360C092D24DB520A7243801A7703460A73
:103170006643360C16235B1BDE40DF40BF196446F6
:103180006643821B7046043506330100D940A840CF
:10319000C01900D30131A24206D20023F0BD0000C5
:1031A000000000D0FFFFFFFF121B0130F3D3F1E757
:1031B00009277F1BFE406446A2B27243801A00D2E8
:1031C0000139220C7243130C1204821A99410B002C
:1031D0007046043513370100F940A840801900D328
:1031E0000131002B02D1A2420AD2F0BD013000D33E
:1031F0000131121BFAD2013BF8D1A24200D2F0BD3C
:10320000013000D30131121BF7E7F0B51C0C00D0E0
:1032100080E00CB400251C0A04D11B02160E3343B7
:10322000120208351C0B04D11B01160F3343120187
:1032300004359C0B04D19B00960F3343920002355A
:10324000DC0B02D192185B4101351C0097186441D8
:103250000134464F7C66464C3C660E0CFFE7FFE7A8
:10326000FFE7C0463C6F6643360C7703BE4697B215
:103270007743C01B00D20139C01B00D201399FB275
:103280007743C91BC91B170C77437E04FF0B801BB8
:10329000B941CE086643360C0C2D33DBB644120B15
:1032A0001F053A431B0B97B27743C01B00D201396D
:1032B0009FB27743C91B170C77433E043F0C801B1A
:1032C000B941860D8F023E43664329277F1BFE408E
:1032D0000C3D7746AF40BF1930BCA2B2ABB27243CF
:1032E0007343801A9941220C7243130C1204801A02
:1032F000994102000B000137001BA941F9D2781E49
:103300000021F0BD0C277F1BFE4077467F0BAF40AE
:10331000FF19E0E700245D1C07D0144F7D66396675
:10332000FFE7FFE7FFE7FFE73C6F95B29EB265431B
:103330006643401BB141150C1E0C654366433604C1
:103340002F0C3E432D04401BB141994204D2020090
:103350000B0020000021F0BD01D19042F7D3801A6C
:10336000994101349942F2D3F6E70000000000D001
:10337000FFFFFFFF48404140484018B41B4B5B68CB
:10338000FC46019308BD04DF4F36002018B4174BEC
:103390001B68FC46019308BD00DF593600209446A7
:1033A000134A926F920809D2624618B40F4BDB6839
:1033B000FC46019308BD0CDF113900200C4AF0B522
:1033C000146E556E576F166F6246FFF7EEFF084A90
:1033D0001466556657671667F0BD18B4034B9B68B3
:1033E000FC46019308BD08DFB537002008A800207F
:1033F000000000D0FFB550404240504059404B4083
:10340000594000E0FFB5154F4C00640D03D0BC429D
:1034100004D10C0314D80020090D09055C00640DCB
:1034200003D0BC4204D11C030AD800221B0D1B058B
:1034300001264B4009D44B4003D58B4200D1824238
:10344000FFBD9942FCD19042FFBD0B43DB18034303
:103450001343F5D0C9434918FFBD0000FF07000022
:1034600000B5FFF7CFFF804100BDC04600B5FFF7B4
:10347000C9FF01D9002000BD012000BD00B5FFF744
:10348000B9FF01D9002000BD012000BD00B5FFF744
:10349000B1FF804100BD012040054A00121804D848
:1034A0005A00121801D80020704701207047000010
:1034B0000021002805D17047C1174840401AFAD0B2
:1034C000C90713B5064B1B6898470CBC441CA240A7
:1034D0001005120B0349091B09051943114310BDBF
:1034E00008A900201F04000010B54C00620D8023C5
:1034F000D218DB00D21A5B057E2A10DD9E3A13DA61
:10350000CC170903490819435242D14064000134E1
:103510001532202A05DAD0400843604310BD002050
:1035200010BD0846604310BDC80FC018013810BD5B
:1035300018B4044B5B6AFC46019308BD24DFC13A12
:103540000020000008A8002070B513231C78012C6F
:1035500012D0012C12DC214B214A93642148FFF741
:103560007BFB214B186070BD1C491D4A980081509F
:1035700001331F2BF8D9ECE70023FAE71B48FFF7CC
:1035800073FB05001A48FFF76FFB023803789B00B6
:103590007F2B09DD12488022290000F0AFFB022CAE
:1035A00008D0022CDADCD6E7124B134A1348332139
:1035B00001F0A4FC124B1A88B5231B029A4209D1D0
:1035C000104B1A88104B9A4204D1104B1A88104B9A
:1035D0009A42E6D00020FEF74FF8C046153600208C
:1035E00008A800204C33000008A900205344000024
:1035F000534600003C8F0020A4970020808F0020BD
:1036000054380000D8380000494600009C380000BB
:103610005946000007B56046002800D100BE018869
:103620000A0A0230DF2AFAD1C9B2820804D302881A
:1036300040880004104300E00068024A50500390A4
:1036400007BD000008A800200FB403BC0CBCF0B5F7
:103650000124E407634000E0F0B50C0DCF0F661EB7
:103660003605891B640503D3C943404200D30131A9
:10367000640D03D0661CF60A07D0E41B00207F000F
:10368000791C89078912803C24031D0DDF0F6E1EF3
:1036900036059B1B6D0503D3DB43524200D3013338
:1036A0006D0D03D06E1CF60A07D0ED1B00227F00C3
:1036B0007B1C9B079B12803D2D032F1B661B58D440
:1036C000A446202E46DA20371400BC401D00BD4021
:1036D000F24033412A4380185941CB0F05D0C943EA
:1036E000C043002264425041514162464D0D28D1F1
:1036F0000D0D07D100281FD0241940414941013A3E
:103700000D0DF9D0640006D3013000D30131002C37
:1037100001D140084000013A0BD4941CE40A04D1C2
:1037200012051144DB071944F0BDD907204B19439A
:1037300000E0D9070020F0BD0029DDD1002CDBD14D
:10374000F0BD0132C6074008CD0728434908002EC6
:10375000E1D0D9E73C2E29DA203E40371400BC40A6
:1037600000D00124F24014431A00BB401C43D3177D
:10377000ACE7AC46202F08DA20360400B4400D0038
:10378000B540F84039412843A5E73C2F0CDA203FEB
:1037900040360400B44000D00124F840044308003F
:1037A000B1400C43C117EAE710001900002494E768
:1037B0000000F07FF0B50C0D661E3605891BE60A89
:1037C0006405640D02D0651CED0A04D000200121BF
:1037D0000905803C2403A4461C0D671E3F05DB1B26
:1037E000E70A6405640D02D0651CED0A04D00022CE
:1037F00001231B05803C24037740644497B484B2C2
:1038000096B27443070C7E43150C6F4380B2684335
:10381000361802D3012000043F183004350C00197B
:103820007D41844688B29AB250430C0C62431F0C0F
:103830007C438EB27E43921902D301263604A4192A
:103840001604170C3618674101BC81B29AB2514375
:10385000040C62431B0C5C4380B25843121802D321
:103860000120000424181004130C401863412D1883
:103870005E410020474106BC88B293B258430C0C0D
:103880006343120C544389B251435B1802D30121A4
:103890000904641819041A0C091862416D1856417C
:1038A0000020474118BCF902720D1143F0026A0D65
:1038B0001043ED020A0D03D16D1940414941013B0E
:1038C000124E9B1B7600B3420ED26D0007D301301F
:1038D000002671416646354301D1400840001B0572
:1038E000C918E4072144F0BD0BDA013306D10130D9
:1038F00004D101314F0D01D04908F2E7E107002062
:10390000F0BD013631050020EBE70000FF030000A9
:10391000F0B51C0D671E3F05DB1BE70A6405640D4F
:1039200002D0661CF60A04D0002201231B05803C4D
:103930002403D0252D060026F6432E661E096E664A
:10394000CE0FF619B44649004F0D02D07E1CF60A80
:1039500003D000200021403F3F033E1BB600B4448B
:10396000013F7F05C91B49082E6F013676089C026E
:10397000950D25437543ED137543AD1301356D105A
:10398000F603761B0CB4CC02450D2C43A2B2B3B2A5
:103990005A43270C7B43350C6F43A4B26C431B196D
:1039A00002D3012424043F191C041D0CA4187D41DA
:1039B00024196D41009A91B2ACB26143170C7C435B
:1039C0002B0C5F4392B25A43A41802D30122120473
:1039D000BF182204230C52187B41019C6C431B1915
:1039E000520ED9010A434401A01A81B2B2B2514326
:1039F00003145A43360C734387B27743D617D21950
:103A000000277E4136049B191704160C7F185E416F
:103A10007316ED18F301002680337541A90F06D106
:103A20006400690AE8055B0A184309D22FE0042202
:103A3000944480337541A90AA8059B0A184326D3EC
:103A4000404149412404009A019B0D005543641BE9
:103A50004343E41A95B286B27543170C7E43030CB8
:103A60005F4392B25A43B61802D301221204BF1820
:103A70003204330C52197B4152429C41002C02D437
:103A80000022013051414008CA071043490802B0E2
:103A90006246D7079210084BD218084B9A4203D2BD
:103AA00012058918C919F0BD0020002A01DC39006F
:103AB000F0BD01331905F5E7FD030000FE07000026
:103AC000002200B5203200F004F8080000BD00001C
:103AD00000220B150AD410B5944600F031F81414E6
:103AE000013400DA0021CB17144C204700200021BC
:103AF00070476244343A0CD40C2A07DA040091402F
:103B0000904052422032D440214310BDD843D94383
:103B100010BD203207D40C4694405242203211414D
:103B2000D040204310BD0800C917203203D45242B0
:103B30002032104110BD1800190010BDF33A0020CA
:103B40000A0DCC0F531E1B05C91A520503D3C943D6
:103B5000404200D30131520D03D0531CDB0A07D081
:103B6000121B00206400611C89078912803A12032D
:103B7000014BD21A70470000FF030000514343433A
:103B8000C9188C46110C83B24B4310B4040C61432A
:103B900092B280B2504362431C041B0C001910BC4B
:103BA00059411304120CC018514161447047000080
:103BB00070B513231C782A48FFF756F80500012C2E
:103BC00012D0012C0ADD2B00023B1B789B007F2BBF
:103BD00040DD24488022290000F090F82248FFF7B9
:103BE0003BF8224B186070BD1E485422290000F09B
:103BF00085F81F4B1A881F4B9A421CD1A7239B01A3
:103C00001A881D4B9A4216D11C4B1A881C4B9A429B
:103C100011D11C4B1A8894239B019A420BD11A4B49
:103C20001A881A4B9A4206D1194B1A68194B9A42B4
:103C300001D1152307E01848FDF71EFD1749094A71
:103C40009800815001331F2BF8D9144B054A136299
:103C5000D361B6E7124B134A1348422101F04EF9E3
:103C6000534600000CA900204C33000008A9002096
:103C7000EE290000C40F0000C20D0000962B0000CA
:103C8000C0B50000182B0000CC2A000010B50000C1
:103C9000FC2C000051ED8764D8880020AD3C00204A
:103CA000D88F0020B89700200C90002007B5604600
:103CB000002800D100BE01880A0A0230DF2AFAD1AA
:103CC000C9B2820804D3028840880004104300E08F
:103CD0000068024A5050039007BD00000CA9002064
:103CE00001480421014B1847909B0020792C0020AB
:103CF000014B1B6818470000909B0020014B5B683C
:103D000018470000909B0020704710B5002802D093
:103D10000B684968984710BD0100002007E0830048
:103D20001B185B00501C08601078C01830380A68F7
:103D30001378303BDBB2092BF1D97047F0B5D6468A
:103D40004F464646C0B505000E00100091461F00C4
:103D5000099C0B9B0222110019408A461A4234D159
:103D6000DB0716D50200B84637002E001FE0551CB1
:103D7000330041462020B84701342A000A9B9C4268
:103D8000F5D33D0037004646099CB84637002E0063
:103D90000DE00200B0463E002F000994EEE7013C22
:103DA000551C089B185D43463900B0472A00002C7B
:103DB000F5D135003E0047465346002B16D1100082
:103DC000E0BCBA46B146A846F0BD0200B84637008E
:103DD0002E00ECE7541C330029002020B8472200B5
:103DE0004B46D31A0A998B42F4D3E8E73B002F00E5
:103DF00035001E00F4E7F0B5CE46474680B585B0E5
:103E000006000F00904699460C9A0D9B0EA9097862
:103E10008C46109D119C129988071CD4002C0CD044
:103E2000C8070AD56046002802D10C30084204D0E9
:103E3000013C02E03020D0540133AB4201D21F2BB1
:103E4000F8D9C80707D5A34205D21F2B03D83020C5
:103E5000D0540133F5E7C80612D5480505D4002B28
:103E600003D0AB4223D0A34221D00F98102831D0E9
:103E70000F98022838D01F2B0AD83020D054013395
:103E80001F2B05D86046002834D02D20D054013394
:103E900003910294019300924B4642463900300050
:103EA000FFF74CFF05B0C0BCB946B046F0BD581E88
:103EB000012B17D00F9D102D0BD003000F98102849
:103EC000D6D18806D4D51F2BD2D85820D054013350
:103ED000D1E7023B8806F1D41F2BEFD87820D054CD
:103EE0000133C8E70300C0E71F2BD1D86030D0549E
:103EF0000133C0E7480703D52B20D0540133C7E76F
:103F00000807C5D52020D0540133C1E7F0B5DE46FF
:103F100057464E464546E0B593B0804689469246A0
:103F20009B461CAB10CB1B7809931E9D002C03D124
:103F30001023219A9A4321928023DB00219E1E4068
:103F4000219A1A4218D0002C22D0002614E0219A7F
:103F500092061BD54121C918C9B20A39C9B2771CCA
:103F60000AAB995529002000FEF7CCFFAC4210D3D4
:103F70001F2F0ED83E00040029002000FEF7C2FFCC
:103F8000CBB2092BE3D83033D9B2E8E76121E2E7BD
:103F90002700219B0693209B05931F9B0493039569
:103FA000099B029301970AAB00935B465246494630
:103FB0004046FFF720FF13B0F0BCBB46B246A9460F
:103FC000A046F0BDF0B5DE4657464E464546E0B544
:103FD00095B08346089109920A931E9B99461F9FAC
:103FE00020AB1B780B93229B9846239C4B463B436C
:103FF00003D11033269A9A4326928023DB00269D14
:104000001D40269A1A4208D04B463B4339D0002522
:104010004E4623002C001D001FE04E4623002C00BE
:104020001D001AE0269A920623D54122D218D2B258
:104030000A3AD2B2631C9A460CAB1A5542462B0080
:1040400030003900FEF79CFFBD421CD813D0534608
:104050001F2B14D8544606000F0042462B00300098
:104060003900FEF78DFFD3B2092BDBD83033DAB23B
:10407000E0E76122DAE7B045E9D9564604E0564662
:1040800002E0002600E05646269B0693259B0593FA
:10409000249B0493434603930B9B029301960CAB22
:1040A00000930A9B099A08995846FFF7A4FE15B099
:1040B000F0BCBB46B246A946A046F0BDF0B5DE4610
:1040C00057464E464546E0B595B004008A469346AD
:1040D00099461E9E1F9F32003B0030003900FFF7BB
:1040E000DAF9002800D0FBE001225242D64B300022
:1040F0003900FFF7CBF9002800D0F1E0012252424D
:10410000D24B30003900FFF7ABF9002800D0E7E0D0
:104110000022002330003900FFF7A2F9002800D068
:10412000F3E0069607978023DB00229A1A4011924B
:10413000229A1A4201D10623209306980799020079
:104140000B000A920B9303000A00024300D1E8E03F
:10415000080D4005400DBE4DAC4660440500079873
:104160000203120B00200021089009910893B94B1B
:10417000134309932800FFF79FF9B74AB74BFFF79E
:104180002CF9B74AB74BFFF701F90A900B910022BF
:10419000B54B08980999FFF7F0F8B44AB44BFFF70C
:1041A0001CF902000B000A980B99FFF7EFF8FFF7D4
:1041B0009BF980460890FFF77FF9AE4AAE4B0A9014
:1041C0000B91FFF70AF90022AC4BFFF7DFF8FFF77E
:1041D0008BF90500AA4AAB4B0A980B99FFF7FDF83B
:1041E0000A900B912800FFF767F9A74AA74BFFF742
:1041F000F4F802000B000A980B99FFF7BEF80200D2
:104200000B000A900B91FFF7E8F80E900F912B002E
:104210009F4DAC466344002100220C910D921B057A
:104220000D9300230C930A980B9902000B00FFF7E3
:10423000ADF8129013910A9A0B9B00208021C905BA
:10424000FFF79BF80A900B910022924B0E980F9962
:10425000FFF7A5F80022904BFFF798F802000B003B
:104260000E980F99FFF79BF800228C4BFFF78EF802
:1042700002000B000E980F99FFF791F802000B0057
:104280000A980B99FFF782F802000B001298139915
:10429000FFF785F800226F4BFFF778F80C9A0D9B1B
:1042A000FFF79BF802000B000A920B93069A079BFC
:1042B0000C900D91FFF7EAF800280AD04346013B25
:1042C00008930022744B0C980D99FFF768F80A9038
:1042D0000B91089B6333C62B49D804231D0024E0AF
:1042E000229B0493219B0393209B029300960197AA
:1042F0004B465A465146200000F004F915B0F0BC78
:10430000BB46B246A946A046F0BD00210022069158
:104310000792069680231B069C46BC44634607937F
:1043200001E70023089304331D00229B1B052BD5B6
:104330000A9A0B9B1900114311D0594A594B069800
:104340000799FFF79BF8002800D1B1E00022564BF7
:1043500006980799FFF784F8002800D1A8E0209A72
:10436000089B9A4206DDD31A013B209304E0052303
:104370001D00DAE7002320938023DB00229A1A43F2
:10438000229200231D000893219A954200D39BE0BE
:10439000531B98460223229A1A400C92229A1342E7
:1043A00003D0002D01D000239846089B002B07D096
:1043B0000A9A0B9B06980799FEF7F1FF0690079162
:1043C0000022002330003900FFF74AF8002800D00F
:1043D0007DE0364B229A1340049343460393209B7F
:1043E0000293069A079B009201934B465A46514608
:1043F000200000F087F8002D00D17FE7229B9B066C
:1044000071D54527461C4B46020051463800A0474F
:104410000898C317C2185A4005230593013D049517
:10442000002303930A330293C30F019300924B4678
:10443000320051462000FFF769FD0C9B002B00D194
:104440005CE70200219F56E0FFFFEF7FFFFFEFFFD9
:1044500001FCFFFF0000F03FFB799F501344D33F66
:10446000B3C8608B288AC63F0000F83F61436F6382
:10447000A787D23F71A379094F930A400000E03F1C
:104480001655B5BBB16B0240EF39FAFE422EE63F3E
:10449000FF03000000002C400000244000001840F2
:1044A0002D431CEBE2361A3F80842E41FFF7FFFFBD
:1044B000209B002B00D167E7119B002B00D163E705
:1044C000209B013B20935FE70023984662E7069E0E
:1044D000079F3200390080200006844661440B00AB
:1044E0000692079375E765278CE7561C4B465146A5
:1044F0002020A04732005B46D31ABB42F5D3100000
:10450000FCE6C046F0B5DE4657464E464546E0B5A9
:1045100095B081468A4693460A93209F1E9A1F9B18
:1045200010001900FEF7B7FF002831D101225242D6
:10453000BA4B1E981F99FEF793FF002837D101222E
:104540005242B74B1E981F99FEF7A0FF00283DD19D
:104550000022B44B1E981F99FEF798FF00284AD1FD
:104560000022B14B1E981F99FEF77AFF002842D116
:10457000002200231E981F99FEF772FF00284AD1DF
:1045800000230B93229B5B0500D4AFE0002452E094
:10459000229B0393219B029303230193A34B00933C
:1045A0000A9B5A4651464846FFF7C8FB1FE1229B2B
:1045B0000393219B0293042301939D4B00930A9B39
:1045C0005A4651464846FFF7B9FB10E1229B5B076C
:1045D0000ED5984B042222990391219902910192C0
:1045E00000930A9B5A4651464846FFF7A7FBFEE058
:1045F000914B0322EFE7229B0493219B03930297A5
:104600001E9B1F9C009301940A9B5A4651464846A4
:10461000FFF754FDEBE01E9A1F9B00200021FEF7E0
:10462000ACFE1E901F9101230B93ABE70CAB302225
:104630001A55013F01341F2C01D8092FF6D81E98B6
:104640001F99FEF751FF0500FEF736FF02000B0031
:104650001E981F99FEF791FE784BFA009B180CCB21
:1046600008920993FEF7B9FE06900791FEF760FFE6
:104670000600FEF71DFF02000B0006980799FEF7E3
:104680007CFE0690079100226D4BFEF7FFFE00288E
:104690002ED001363000FEF70BFF02000B00089809
:1046A0000999FEF7E3FE002801D001350026002F0E
:1046B0002CD12800FEF700FF02000B001E981F9966
:1046C000FEF75BFE06000F0000225D4BFEF7C8FE02
:1046D000002846D100225A4B30003900FEF7D6FEA2
:1046E00000283ED1EB073CD501353AE006274DE7DF
:1046F0000022534B06980799FEF7B2FE0028D6D148
:10470000002E01D0F307D2D50136D0E7A8461F2CE2
:1047100011D8013F0A213000FEF7F4FB651C30314F
:104720000CAB19550A213000FEF7ECFB092E0ED90F
:1047300006002C00EBE745461F2C0CD87B1E002FF3
:1047400009D00CAA302111551F000134F4E72B00C9
:1047500045461C00F0E71F2C03D80CAB2E221A553F
:1047600001341F2C10D80A212800FEF7A3FB661C79
:1047700030310CAB19550A212800FEF79BFB051EB2
:1047800001D03400EDE73400229B9B0719D4229B13
:10479000DB0716D5219B002B0ED00B9B002B03D1E2
:1047A0000C33229A134207D0219B013B219303E053
:1047B0000CAB30221A550134219B9C4201D21F2C94
:1047C000F6D91F2C06D80B9B002B17D00CAB2D2233
:1047D0001A550134229B0393219B029301940CAB45
:1047E00000930A9B5A4651464846FFF7A7FA15B070
:1047F000F0BCBB46B246A946A046F0BD229B5B0773
:1048000004D50CAB2B221A550134E3E7229B1B077E
:10481000E0D50CAB20221A550134DBE7FFFFEFFF98
:10482000FFFFEF7F65CDCD4165CDCDC1A0900020CC
:10483000A4900020949000209C900020E8970020F5
:104840000000E03FF0B5DE4657464E464546E0B52F
:1048500093B083468A4690461193002900D11AE30B
:1048600000255E46119B1878002800D116E3252804
:1048700009D06C1C43462A005146B047119B0133B6
:1048800011932500EEE701331193002712E0202A4F
:1048900025D0232A05D11022174301331193012477
:1048A00006E0002404E0022217430133119301249F
:1048B000002C1CD0119B1A782B2A0AD0E7D92D2A5C
:1048C000F1D0302A11D12F3A17430133119301242B
:1048D000EEE704221743013311930124E8E708228D
:1048E0001743013311930124E2E70024E0E7119B11
:1048F0001A781300303BDBB2092B15D92A2A18D0BD
:104900000B94119B1A782E2A23D0119B1A786C2AAB
:1049100047D03CD9742A62D07A2A65D180225200CD
:104920001743013311935FE011A8FFF7F5F90B90DE
:10493000E7E71C9B1A1D1C921B68002B04DB0B93E2
:10494000119B01331193DCE7022217435B420B9367
:10495000F6E78022D20017435A1C11925A781300AE
:10496000303BDBB2092B0BD92A2ACED11C9B1A1D56
:104970001C921C68002C08DB119B01331193C4E7C7
:1049800011A8FFF7C9F90400BFE70024F4E7682A7B
:1049900017D06A2A28D1802292001743013311933D
:1049A00022E0802252003A43591C119159786C2917
:1049B00001D0170018E0C022920017430233119370
:1049C00012E080223A43591C11915978682901D08C
:1049D000170009E0C02217430233119304E080223C
:1049E0005200174301331193119B1878652840D06A
:1049F00077D8462800D18BE01BD9632831D1022318
:104A00001A003A4091463B4200D1B0E101241C9B80
:104A10001A1D1C926F1C187843462A005146B04755
:104A20004B46002B00D0A6E1119B013311933D00B2
:104A300018E7252809D16C1C43462A005146B04787
:104A4000119B0133119325000CE7452811D06C1CF4
:104A500043462A005146B047119B0133119325006C
:104A600000E763282BD858282BD0622829D0472864
:104A7000EDD1672801D0472802D180231B011F43B5
:104A8000452801D0472801D120231F431C9B073311
:104A9000072293431A0008321C9204970B9A039240
:104AA00002940CCB0092019343462A0051463000F9
:104AB000FFF704FB0500119B01331193D2E6642834
:104AC000C5D178284DD0582800D17CE06F2800D17E
:104AD0007CE0622800D17CE010239F43063B9C468B
:104AE00041E0702800D1BCE10DD9732831D11C9B65
:104AF0001A1D1C921B689B46002C00D06EE10122FF
:104B000052425B464AE16728B3D01DD866289ED141
:104B1000462800D11CE11C9B0733072293431A004F
:104B200008321C9204970B9A039202940CCB0092C9
:104B3000019343462A0051463000FFF7E3FC05008D
:104B4000119B013311938DE66928BAD06F28B8D034
:104B50007DE7732800D27AE77528B2D07828B0D0E4
:104B600075E710239C46582836D0692803D064285E
:104B700001D00C2297437A0501D501229743692879
:104B80002DD064282BD0BA0500D5A3E0FA0500D5B6
:104B9000BBE07A0600D4CDE01C9A111D1C9111686F
:104BA000FF220A4005970B9B0493039463460293EC
:104BB00000230193009243462A0051463000FFF73C
:104BC000A5F905002AE010239C46CCE708239C4663
:104BD000C9E702239C46C6E720221743C5E7BA056A
:104BE00020D4FA0551D47A0667D51C9A111D1C9160
:104BF0001168FF220A40D0171118414005970B9BFE
:104C00000493039463460293D20F019200914346AA
:104C10002A0051463000FFF779F90500119B013356
:104C200011931FE61C9A073207218A4311000831AD
:104C30001C91116853689946DB170C930D930C9ADD
:104C40000D9B100048400E900D9B49464B400F9322
:104C50000E980F990C9A0D9B801A99410E900F9106
:104C600008970B9B079306946346049300230593D0
:104C70004B46DA0F02920090019143462A005146BA
:104C80003000FFF79FF90500C8E71C9A111D1C9121
:104C90001268D0171118414005970B9B0493039499
:104CA00063460293D20F0192009143462A00514677
:104CB0003000FFF72BF90500B0E73A0605D51C9A3E
:104CC000111D1C910023D25E95E71C9A111D1C91A9
:104CD000126890E71C9A073207218A4311000831B5
:104CE0001C9108970B9B079306946346049300233B
:104CF000059302930CCA0092019343462A00514641
:104D00003000FFF75FF9050088E71C9A111D1C9120
:104D100005970B9B0493039463460293002301932E
:104D20001368009343462A0051463000FFF7EEF81F
:104D3000050073E73A0606D51C9A111D1C911268EE
:104D40001204120C2EE71C9A111D1C91126829E7FF
:104D500020231F43DFE6571C434651462020B0471F
:104D600023003A005C1C9D42F5D815004FE6012354
:104D70002A000B9DF6E73A00B1460B9E06E0571C51
:104D8000434651462020C8472C003A00651CA642E5
:104D9000F5D817004E4647E601330A001978002976
:104DA00002D0511E002AF7D15A469B1A8022D20007
:104DB000390011408946174202D0A34200D923008E
:104DC00002221100394010913A4209D02A002500F0
:104DD0005F469B4633004E46994621E0220090E60E
:104DE0002A005546A24606E0541C434629002020CE
:104DF000B0473B0022005F1C0B999942F4D85446FF
:104E0000AA463B0025005F469B4633004E46994626
:104E100006E01D000137541C43465146C847220096
:104E20003878002804D0002EF4D06B1E002DF0D16D
:104E300015005B464E46109A002A03D1119B0133A0
:104E400011930FE52A000B9F06E0551C434651467F
:104E50002020B04723002A005C1C9F42F5D8150093
:104E6000ECE721233B431C9A111D1C91126805930A
:104E700008230493039408330293002301930092C0
:104E800043462A0051463000FFF740F80500119BC9
:104E900001331193E6E40B4B9B46E1E4B3464545F1
:104EA0000DD343465A1E434651460020D84728009A
:104EB00013B0F0BCBB46B246A946A046F0BD2A00DE
:104EC000F1E7C046093D002000B585B08C4602A937
:104ED0000290604648600120844604480093130015
:104EE00062465242FFF7AEFC05B000BD0B3D00200C
:104EF00000BEFDE710B5FFF7FBFF000010B582B064
:104F000084460C001900002A0AD0074B074801927A
:104F100000932300624600F0E7F90120FFF7E8FF65
:104F2000034B1A00F2E7C046AC900020BC90002072
:104F3000D888002010B5EFF30583002B00D000BE09
:104F4000FDF7ECFE034C01E008CC9847024B9C4275
:104F5000FAD310BD409C0020449C002010B50300F3
:104F6000080011001B68984710BD0000F8B5070045
:104F70000D001600437D002B02D0002400200CE021
:104F800003681100280098472BE03B7D0FE03B6849
:104F9000144802219847601C0134B44213DA002CF3
:104FA000F3DD631EEB5C0D3B5A425341DBB22A5DDD
:104FB0000A2AF1D1002BEFD1A042E8DA3B68211A8E
:104FC00028189847E3E7B04203DA3B68311A2818FB
:104FD0009847002E05DD013EAB5D0D3B5A42534123
:104FE0003B75F8BD6498002070B505000368002B80
:104FF00016D00C4B1C6805E0290004C92000FFF7FF
:10500000B5FF2469002C09D02368002BF9D0064B8A
:105010001B68002BF0D0A342F3D1EDE700232B60F7
:1050200070BDC046D0A30020D8A3002070B50500F5
:105030000C000B68802B05D023685A1C2260E418F2
:10504000257170BD0800FFF7CFFFF5E710B5FDF73C
:105050009DFB074A002312184B41002B03DB054838
:10506000FBF71CF910BD01225242034BF7E7C04683
:1050700040420F00009C0020FFFFFF7F10B5024858
:10508000FBF744F910BDC046009C0020F0B5CE46A9
:10509000474680B583B080460D0016001C00FFF720
:1050A000D5FF81466B1C05D0002C08D0184F194B3A
:1050B0001C6807E0404603F04FFA0500F4E7164F7E
:1050C000F5E72469002C16D02368002BF9D0134B88
:1050D0001B68002B01D0A342F3D12A0041462000D7
:1050E000B847002EEDD06B46D91D0A230B70012264
:1050F0002000B847E5E74B46002B05D1280003B058
:10510000C0BCB946B046F0BDFFF7B8FFF6E7C046F1
:105110006D4F0020D0A300205D4F0020D8A30020B9
:10512000F0B583B006000D0001921F00154B1C68FE
:1051300008E0A368002B04D029003000984700281D
:105140001EDC2469002C06D00F4B1B68002BF0D00E
:10515000A342F6D1EDE70D4B5B6A9F4209D80B499C
:10516000896A0198814209D29F4202D002204042BE
:1051700006E001200021FDF711FBD7E702204042A5
:1051800003B0F0BDD0A30020D8A30020004005400C
:105190000A4A136802E01A0010321B69002B09D07A
:1051A00013688342F7D1002907D1036913600023F4
:1051B000036102E0002900D010607047D0A30020F6
:1051C00010B5064B1C6800E02469002C04D063680D
:1051D000002BF9D09847F7E710BDC046D0A30020B8
:1051E00010B500F095F900F0DFFD012010BD0000C2
:1051F00030B583B0040000231D00FDF7C7FA22007C
:105200002B0012184B41002B0ADB012101A8FFF7EC
:1052100087FF002802DB07D001AB187803B030BD50
:1052200001225242044BF0E7044B054A0421054891
:10523000FF31FFF763FEC046FFFFFF7FEC900020C9
:1052400048980020F090002000B583B00A4B0CCBAA
:10525000012101A8FFF764FF002803DB012803D127
:1052600001AB187803B000BD044B054A95210548F1
:105270004900FFF743FEC046909700203891002078
:1052800038980020F090002070B5050003F064F914
:1052900004000123012201002800FFF7F7FEFFF7B9
:1052A0008FFF200070BD0000F0B5A3B007000E0016
:1052B000FFF7CCFE050001AC002301930948330041
:1052C0003A002100FFF700FE06002000FFF78CFEE9
:1052D000FFF776FF002D02D1300023B0F0BDFFF7BD
:1052E000CDFEF9E72D5000200FB400B583B004A91E
:1052F00001C90191FFF7D8FF03B008BC04B01847FB
:1053000082B08C46144BC3185A425341134A5B0077
:105310009B5E8B4205D06B46DA1D634613700021FD
:1053200015E06B46DA1D0D23137000210029F2D120
:1053300083699B06FCD41378036001310132F5E7E1
:1053400083699B06FCD41378036001310132002984
:10535000F6D002B07047C0460080FCBF18AA0020FB
:1053600082B000226B46D91D06E08369DB06FCD4BF
:1053700003680B7001320131002AF6D06B46D879F0
:1053800002B0704770B506000D00002405E0315DE5
:10539000034B1868FFF7B4FF0134AC42F7DB70BD74
:1053A0001CAA0020F8B506000D00002705E07C1CB3
:1053B000F719FFF7D5FF38702700AF4204DA0D4A1E
:1053C00010688269D206F2D50B4A1268002A0AD008
:1053D000084A126850219163506B18390140074BFD
:1053E0009C4662441160002F01D03800F8BD033F95
:1053F000FBE7C0461CAA002068A300203410000070
:1054000010B5064B1B68002B06D0054A1268002118
:105410009163044A1068984710BDC04668A30020F5
:105420001CAA002070A30020024B1A6893691B0776
:10543000FCD470471CAA002070B51E4B1B681E4A86
:10544000934208D01422150000281FD01B4B1B6864
:10545000002B03D070BD15221500F5E7174B18601F
:10546000174B196017492800FCF76AFA0121280038
:10547000FCF73EFA0F4B1B6850229A63596B183A9F
:105480000A4011498C4663441A60E3E70B4A1268EC
:10549000002ADFD000249C6300212800FCF728FAB2
:1054A00008492800FCF782FB044B1C60044B1C607D
:1054B000D0E7C0461CAA00200080034068A300205B
:1054C00070A30020015400203410000070B50C00BF
:1054D0001D000D4B1860002A0BDA002D0EDA0A4B66
:1054E00018682100FDF7FEF908480121FFF750FE7A
:1054F00070BD02211000FCF755F8EEE702212800EC
:10550000FCF750F8EBE7C0461CAA0020A09B002047
:1055100010B5074B1B78074B1B78074B1B78E12115
:105520000123002249020548FFF7D0FF10BDC04605
:10553000FC9A0020F89A0020F49A002000400340D2
:10554000074B98420AD0042301229A40054B1A6067
:10555000054B1B6811009943FAD170470323F3E709
:10556000C09B002000F0004008C00040F0B5DE46BF
:1055700057464E464546E0B587B0070093461800AB
:10558000039310AB1A780592119D129A90463B68CE
:105590000022DA663B6859603B680132DA660290A5
:1055A000002399460493002600242DE03B79002B2C
:1055B00039D0012337E0059A002A01D0002236E0D5
:1055C000012234E0002E0CD13B685B6BDB0608D473
:1055D000002DF7D000214046A84706000443E4B25E
:1055E000F0E7002E09D13B6880229A580492002AE5
:1055F00028D1002C39D1CA4527D0002C3DD1012318
:105600009C46E144019B9B46029B994535DA039BEE
:10561000013B9A46002D02D001214046A8474B4647
:10562000002BC3D000239B02CA45C4D000225202E3
:1056300013435A46013201925A4611783A680B4395
:105640001361C5E75B6D01240FE0059B002BD4D1EE
:105650000BE000214046A84706000443E4B2002EB8
:1056600006D13B685B6B9B0502D4002DF1D1F6E7B8
:10567000002EC2D13B681B6EBFE7002C08D0002E65
:1056800010D1049A002A11D0D30713D4130715D5CB
:10569000059B3B71484607B0F0BCBB46B246A946E5
:1056A000A046F0BD02235B429946F1E701235B422D
:1056B0009946EDE701235B429946E9E701235B4206
:1056C0009946E5E7F0B5DE4657464E464546E0B515
:1056D00085B00500029218009B460EAB1A78039223
:1056E000109A90462B680022DA662B6859602B6866
:1056F0000132DA66824600270023019300243E002F
:105700000F9F564543DA5B46013B9946002F02D076
:1057100001214046B8472B685A6F102AFBD0002E53
:105720000BD000229202B1450CD0002149020A435D
:10573000802149000A431A6119E02A79002AF1D030
:105740000122EFE70399002901D00021EEE70121B2
:10575000ECE7002F05D000214046B84701900443F4
:10576000E4B2002C15D12B689A6F002A08D12B685F
:1057700080229A585A6B5206EBD55B6D0124E8E7FC
:105780001B69029A13700136531C0293B9E7370064
:1057900000E03700002C04D0019B002B0BD0022727
:1057A0007F42039B2B71380005B0F0BCBB46B2466C
:1057B000A946A046F0BD01277F42F2E7F0B5D646E4
:1057C0004F464646C0B504000D000520FDF73AF9E6
:1057D000060068088019A8462900FDF793FB07001A
:1057E00043001A18914605211000FDF78BFB0500B8
:1057F0003A1A9246254B42469A4237D87000801991
:105800002349FDF77FFB431CAA1E9A4235D3226829
:105810000021D166226810680431484002310140FD
:105820008020400184466244116022685146D16163
:10583000226815624A464F2A25D92D092168A022DF
:105840008D502268D16F4B401B041B0C11498C46B4
:105850006244136023680122DA6639003000FDF7E4
:1058600051FBE0BCBA46B146A846F0BD70008019B5
:105870000949FDF747FB431CC6E7084B084A09489E
:105880005D21FFF73BFB0125D8E7C0463F420F00F3
:10589000809698007C10000040787D017091002077
:1058A000849800209091002070B504000D00114BE9
:1058B00098421DD00422012393400F4A1360200018
:1058C000FFF73EFE002323712268D366226866211B
:1058D000FF3111602268D3632268936322688833A2
:1058E0006339FF39D15029002000FFF767FF70BDF1
:1058F0000322E0E7C09B002000E0004030B585B007
:1059000008AC24780025029501950094FFF72EFE3F
:1059100005B030BD30B585B008AC247800250295BF
:1059200001950094FFF7CEFE05B030BD074B9842BD
:105930000AD0112301229A40054B1A60054B1B68BF
:1059400011009943FAD170471023F3E700C00340D8
:1059500000F0004008C00040F8B5DE4657464E460D
:105960004546E0B581460E000620FDF76BF88046FF
:105970004B465A6802231A4092464A4604329346DE
:10598000224A4A441360022400E00234FE2C1AD852
:1059900000252002320000230021FEF7EFF8002945
:1059A00003D1A942F1D14045EFD980277F00012FD3
:1059B0000CD97D1E210069434046FDF7A3FAB04291
:1059C00004D82F00F3E780277F00F0E74B461C61E7
:1059D0007A1E12021B685A40FF231B021A408023C2
:1059E0005B014B441A605B468022920194466344FB
:1059F00052461A60390061434046FDF783FAF0BC15
:105A0000BB46B246A946A046F8BDC04604300000D9
:105A100070B504000D00164B984226D011220123C8
:105A20009340144A13602000FFF780FF29002000F4
:105A3000FFF792FF626802231A400F4961180B605A
:105A4000216807254D40CF21294080256D01AC46B6
:105A5000A44465462960094961180A60084A9446C9
:105A60006444032222600B6070BD1022D7E7C04659
:105A700000C0034000E000400430000004200000AB
:105A80002420000070470000014B00221A7070476C
:105A900035AA00204B79FF2B0CD18B79002B0BD131
:105AA000CB79012B0AD1082A0AD98A78054B1A70BA
:105AB000092000E0002070470020FCE70020FAE702
:105AC0000020F8E735AA00200120704710B5012911
:105AD00027D1117953791B020B43134909788B4263
